8=FIX.4.2|9=307|35=8|34=1306|49=BLPDROP|50=ULBRIDGE|52=20090203-20:49:42|56=MALBEC|57=4768676|1=20000073|6=27.17|11=20090203-00093|14=100|15=USD|17=49122080|20=0|22=4|29=1|31=27.17|32=100|37=DMAGVL0XJS|38=764|39=1|40=1|47=A|48=US81369Y2090|54=5|55=XLV|58=PARTIAL|59=0|60=20090203-20:49:42|76=MANS|103=0|150=1|167=CS|207=US|10=163|
8=FIX.4.2|9=307|35=8|34=1307|49=BLPDROP|50=ULBRIDGE|52=20090203-20:49:42|56=MALBEC|57=4768676|1=20000073|6=27.17|11=20090203-00093|14=700|15=USD|17=49122081|20=0|22=4|29=1|31=27.17|32=600|37=DMAGVL0XJS|38=764|39=1|40=1|47=A|48=US81369Y2090|54=5|55=XLV|58=PARTIAL|59=0|60=20090203-20:49:42|76=MANS|103=0|150=1|167=CS|207=US|10=176|
8=FIX.4.2|9=307|35=8|34=1308|49=BLPDROP|50=ULBRIDGE|52=20090203-20:49:42|56=MALBEC|57=4768676|1=20000073|6=27.17|11=20090203-00093|14=764|15=USD|17=49122082|20=0|22=4|29=1|31=27.17|32=64|37=DMAGVL0XJS|38=764|39=2|40=1|47=A|48=US81369Y2090|54=5|55=XLV|58=COMPLETE|59=0|60=20090203-20:49:42|76=MANS|103=0|150=2|167=CS|207=US|10=222|
8=FIX.4.2|9=305|35=8|34=1309|49=BLPDROP|50=ULBRIDGE|52=20090203-20:49:42|56=MALBEC|57=4768676|1=20000073|6=21.17|11=20090203-00095|14=49|15=USD|17=54123878|20=0|22=4|29=1|31=21.17|32=49|37=DMFGVL0XJN|38=49|39=2|40=1|47=A|48=US81369Y1001|54=5|55=XLB|58=COMPLETE|59=0|60=20090203-20:49:42|76=MANS|103=0|150=2|167=CS|207=US|10=091|
8=FIX.4.2|9=308|35=8|34=1310|49=BLPDROP|50=ULBRIDGE|52=20090203-20:49:42|56=MALBEC|57=4768676|1=20000073|6=19.68|11=20090203-00094|14=500|15=USD|17=50125190|20=0|22=4|29=1|31=19.68|32=500|37=DMBGVL0XJZ|38=1088|39=1|40=1|47=A|48=US81369Y4070|54=5|55=XLY|58=PARTIAL|59=0|60=20090203-20:49:42|76=MANS|103=0|150=1|167=CS|207=US|10=238|
8=FIX.4.2|9=309|35=8|34=1311|49=BLPDROP|50=ULBRIDGE|52=20090203-20:49:42|56=MALBEC|57=4768676|1=20000073|6=19.68|11=20090203-00094|14=1000|15=USD|17=50125191|20=0|22=4|29=1|31=19.68|32=500|37=DMBGVL0XJZ|38=1088|39=1|40=1|47=A|48=US81369Y4070|54=5|55=XLY|58=PARTIAL|59=0|60=20090203-20:49:42|76=MANS|103=0|150=1|167=CS|207=US|10=029|
8=FIX.4.2|9=309|35=8|34=1312|49=BLPDROP|50=ULBRIDGE|52=20090203-20:49:42|56=MALBEC|57=4768676|1=20000073|6=19.68|11=20090203-00094|14=1088|15=USD|17=50125192|20=0|22=4|29=1|31=19.68|32=88|37=DMBGVL0XJZ|38=1088|39=2|40=1|47=A|48=US81369Y4070|54=5|55=XLY|58=COMPLETE|59=0|60=20090203-20:49:42|76=MANS|103=0|150=2|167=CS|207=US|10=088|
8=FIX.4.2|9=306|35=8|34=1313|49=BLPDROP|50=ULBRIDGE|52=20090203-20:49:42|56=MALBEC|57=4768676|1=20000073|6=9.01|11=20090203-00097|14=901|15=USD|17=41122257|20=0|22=4|29=1|31=9.01|32=901|37=DM1GVL0XJW|38=901|39=2|40=1|47=A|48=US81369Y6059|54=1|55=XLF|58=COMPLETE|59=0|60=20090203-20:49:42|76=MANS|103=0|150=2|167=CS|207=US|10=118|
8=FIX.4.2|9=302|35=8|34=1314|49=BLPDROP|50=ULBRIDGE|52=20090203-20:49:42|56=MALBEC|57=4768676|1=20000073|6=47|11=20090203-00096|14=379|15=USD|17=55125327|20=0|22=4|29=1|31=47|32=379|37=DMGGVL0XJM|38=379|39=2|40=1|47=A|48=US81369Y5069|54=1|55=XLE|58=COMPLETE|59=0|60=20090203-20:49:42|76=MANS|103=0|150=2|167=CS|207=US|10=228|
8=FIX.4.2|9=309|35=8|34=1315|49=BLPDROP|50=ULBRIDGE|52=20090203-20:49:42|56=MALBEC|57=4768676|1=20000073|6=9.01|11=20090203-00098|14=2092|15=USD|17=42121880|20=0|22=4|29=1|31=9.01|32=2092|37=DM2GVL0XJL|38=2092|39=2|40=1|47=A|48=US81369Y6059|54=1|55=XLF|58=COMPLETE|59=0|60=20090203-20:49:42|76=MANS|103=0|150=2|167=CS|207=US|10=013|
8=FIX.4.2|9=308|35=8|34=1316|49=BLPDROP|50=ULBRIDGE|52=20090203-20:49:42|56=MALBEC|57=4768676|1=20000073|6=20.53|11=20090203-00099|14=500|15=USD|17=43130297|20=0|22=4|29=1|31=20.53|32=500|37=DM3GVL0XJL|38=1707|39=1|40=1|47=A|48=US81369Y7040|54=2|55=XLI|58=PARTIAL|59=0|60=20090203-20:49:42|76=MANS|103=0|150=1|167=CS|207=US|10=177|
8=FIX.4.2|9=308|35=8|34=1317|49=BLPDROP|50=ULBRIDGE|52=20090203-20:49:42|56=MALBEC|57=4768676|1=20000073|6=20.53|11=20090203-00099|14=700|15=USD|17=43130298|20=0|22=4|29=1|31=20.53|32=200|37=DM3GVL0XJL|38=1707|39=1|40=1|47=A|48=US81369Y7040|54=2|55=XLI|58=PARTIAL|59=0|60=20090203-20:49:42|76=MANS|103=0|150=1|167=CS|207=US|10=178|
8=FIX.4.2|9=308|35=8|34=1318|49=BLPDROP|50=ULBRIDGE|52=20090203-20:49:42|56=MALBEC|57=4768676|1=20000073|6=20.53|11=20090203-00099|14=900|15=USD|17=43130299|20=0|22=4|29=1|31=20.53|32=200|37=DM3GVL0XJL|38=1707|39=1|40=1|47=A|48=US81369Y7040|54=2|55=XLI|58=PARTIAL|59=0|60=20090203-20:49:42|76=MANS|103=0|150=1|167=CS|207=US|10=182|
8=FIX.4.2|9=309|35=8|34=1319|49=BLPDROP|50=ULBRIDGE|52=20090203-20:49:42|56=MALBEC|57=4768676|1=20000073|6=20.53|11=20090203-00099|14=1000|15=USD|17=43130300|20=0|22=4|29=1|31=20.53|32=100|37=DM3GVL0XJL|38=1707|39=1|40=1|47=A|48=US81369Y7040|54=2|55=XLI|58=PARTIAL|59=0|60=20090203-20:49:42|76=MANS|103=0|150=1|167=CS|207=US|10=206|
8=FIX.4.2|9=309|35=8|34=1320|49=BLPDROP|50=ULBRIDGE|52=20090203-20:49:42|56=MALBEC|57=4768676|1=20000073|6=20.53|11=20090203-00099|14=1300|15=USD|17=43130301|20=0|22=4|29=1|31=20.53|32=300|37=DM3GVL0XJL|38=1707|39=1|40=1|47=A|48=US81369Y7040|54=2|55=XLI|58=PARTIAL|59=0|60=20090203-20:49:42|76=MANS|103=0|150=1|167=CS|207=US|10=204|
8=FIX.4.2|9=309|35=8|34=1321|49=BLPDROP|50=ULBRIDGE|52=20090203-20:49:42|56=MALBEC|57=4768676|1=20000073|6=20.53|11=20090203-00099|14=1500|15=USD|17=43130302|20=0|22=4|29=1|31=20.53|32=200|37=DM3GVL0XJL|38=1707|39=1|40=1|47=A|48=US81369Y7040|54=2|55=XLI|58=PARTIAL|59=0|60=20090203-20:49:42|76=MANS|103=0|150=1|167=CS|207=US|10=207|
8=FIX.4.2|9=310|35=8|34=1322|49=BLPDROP|50=ULBRIDGE|52=20090203-20:49:42|56=MALBEC|57=4768676|1=20000073|6=20.53|11=20090203-00099|14=1707|15=USD|17=43130303|20=0|22=4|29=1|31=20.53|32=207|37=DM3GVL0XJL|38=1707|39=2|40=1|47=A|48=US81369Y7040|54=2|55=XLI|58=COMPLETE|59=0|60=20090203-20:49:42|76=MANS|103=0|150=2|167=CS|207=US|10=039|
8=FIX.4.2|9=308|35=8|34=1323|49=BLPDROP|50=ULBRIDGE|52=20090203-20:49:42|56=MALBEC|57=4768676|1=20000073|6=22.44|11=20090203-00101|14=400|15=USD|17=50125195|20=0|22=4|29=1|31=22.44|32=400|37=DMBGVL0XK0|38=1387|39=1|40=1|47=A|48=US81369Y3080|54=2|55=XLP|58=PARTIAL|59=0|60=20090203-20:49:42|76=MANS|103=0|150=1|167=CS|207=US|10=159|
8=FIX.4.2|9=308|35=8|34=1324|49=BLPDROP|50=ULBRIDGE|52=20090203-20:49:42|56=MALBEC|57=4768676|1=20000073|6=15.23|11=20090203-00100|14=100|15=USD|17=49122085|20=0|22=4|29=1|31=15.23|32=100|37=DMAGVL0XJT|38=1233|39=1|40=1|47=A|48=US81369Y8030|54=1|55=XLK|58=PARTIAL|59=0|60=20090203-20:49:42|76=MANS|103=0|150=1|167=CS|207=US|10=172|
8=FIX.4.2|9=310|35=8|34=1325|49=BLPDROP|50=ULBRIDGE|52=20090203-20:49:42|56=MALBEC|57=4768676|1=20000073|6=22.44|11=20090203-00101|14=1387|15=USD|17=50125196|20=0|22=4|29=1|31=22.44|32=987|37=DMBGVL0XK0|38=1387|39=2|40=1|47=A|48=US81369Y3080|54=2|55=XLP|58=COMPLETE|59=0|60=20090203-20:49:42|76=MANS|103=0|150=2|167=CS|207=US|10=060|
8=FIX.4.2|9=308|35=8|34=1326|49=BLPDROP|50=ULBRIDGE|52=20090203-20:49:43|56=MALBEC|57=4768676|1=20000073|6=15.23|11=20090203-00100|14=200|15=USD|17=49122086|20=0|22=4|29=1|31=15.23|32=100|37=DMAGVL0XJT|38=1233|39=1|40=1|47=A|48=US81369Y8030|54=1|55=XLK|58=PARTIAL|59=0|60=20090203-20:49:42|76=MANS|103=0|150=1|167=CS|207=US|10=177|
8=FIX.4.2|9=308|35=8|34=1327|49=BLPDROP|50=ULBRIDGE|52=20090203-20:49:43|56=MALBEC|57=4768676|1=20000073|6=15.23|11=20090203-00100|14=300|15=USD|17=49122087|20=0|22=4|29=1|31=15.23|32=100|37=DMAGVL0XJT|38=1233|39=1|40=1|47=A|48=US81369Y8030|54=1|55=XLK|58=PARTIAL|59=0|60=20090203-20:49:42|76=MANS|103=0|150=1|167=CS|207=US|10=180|
8=FIX.4.2|9=308|35=8|34=1328|49=BLPDROP|50=ULBRIDGE|52=20090203-20:49:43|56=MALBEC|57=4768676|1=20000073|6=15.23|11=20090203-00100|14=400|15=USD|17=49122088|20=0|22=4|29=1|31=15.23|32=100|37=DMAGVL0XJT|38=1233|39=1|40=1|47=A|48=US81369Y8030|54=1|55=XLK|58=PARTIAL|59=0|60=20090203-20:49:42|76=MANS|103=0|150=1|167=CS|207=US|10=183|
8=FIX.4.2|9=306|35=8|34=1329|49=BLPDROP|50=ULBRIDGE|52=20090203-20:49:43|56=MALBEC|57=4768676|1=20000073|6=22.44|11=20090203-00102|14=13|15=USD|17=51129789|20=0|22=4|29=1|31=22.44|32=13|37=DMCGVL0XJY|38=3684|39=1|40=1|47=A|48=US81369Y3080|54=5|55=XLP|58=PARTIAL|59=0|60=20090203-20:49:42|76=MANS|103=0|150=1|167=CS|207=US|10=129|
8=FIX.4.2|9=310|35=8|34=1330|49=BLPDROP|50=ULBRIDGE|52=20090203-20:49:43|56=MALBEC|57=4768676|1=20000073|6=15.23|11=20090203-00100|14=1233|15=USD|17=49122089|20=0|22=4|29=1|31=15.23|32=833|37=DMAGVL0XJT|38=1233|39=2|40=1|47=A|48=US81369Y8030|54=1|55=XLK|58=COMPLETE|59=0|60=20090203-20:49:42|76=MANS|103=0|150=2|167=CS|207=US|10=058|
8=FIX.4.2|9=310|35=8|34=1331|49=BLPDROP|50=ULBRIDGE|52=20090203-20:49:43|56=MALBEC|57=4768676|1=20000073|6=22.44|11=20090203-00102|14=1013|15=USD|17=51129790|20=0|22=4|29=1|31=22.44|32=1000|37=DMCGVL0XJY|38=3684|39=1|40=1|47=A|48=US81369Y3080|54=5|55=XLP|58=PARTIAL|59=0|60=20090203-20:49:42|76=MANS|103=0|150=1|167=CS|207=US|10=043|
8=FIX.4.2|9=310|35=8|34=1332|49=BLPDROP|50=ULBRIDGE|52=20090203-20:49:43|56=MALBEC|57=4768676|1=20000073|6=22.44|11=20090203-00102|14=2013|15=USD|17=51129791|20=0|22=4|29=1|31=22.44|32=1000|37=DMCGVL0XJY|38=3684|39=1|40=1|47=A|48=US81369Y3080|54=5|55=XLP|58=PARTIAL|59=0|60=20090203-20:49:42|76=MANS|103=0|150=1|167=CS|207=US|10=046|
8=FIX.4.2|9=309|35=8|34=1333|49=BLPDROP|50=ULBRIDGE|52=20090203-20:49:43|56=MALBEC|57=4768676|1=20000073|6=22.44|11=20090203-00102|14=2413|15=USD|17=51129792|20=0|22=4|29=1|31=22.44|32=400|37=DMCGVL0XJY|38=3684|39=1|40=1|47=A|48=US81369Y3080|54=5|55=XLP|58=PARTIAL|59=0|60=20090203-20:49:42|76=MANS|103=0|150=1|167=CS|207=US|10=015|
8=FIX.4.2|9=310|35=8|34=1334|49=BLPDROP|50=ULBRIDGE|52=20090203-20:49:43|56=MALBEC|57=4768676|1=20000073|6=22.44|11=20090203-00102|14=3413|15=USD|17=51129793|20=0|22=4|29=1|31=22.44|32=1000|37=DMCGVL0XJY|38=3684|39=1|40=1|47=A|48=US81369Y3080|54=5|55=XLP|58=PARTIAL|59=0|60=20090203-20:49:42|76=MANS|103=0|150=1|167=CS|207=US|10=055|
8=FIX.4.2|9=305|35=8|34=1335|49=BLPDROP|50=ULBRIDGE|52=20090203-20:49:43|56=MALBEC|57=4768676|1=20000073|6=29.3|11=20090203-00103|14=300|15=USD|17=53125438|20=0|22=4|29=1|31=29.3|32=300|37=DMEGVL0XK4|38=978|39=1|40=1|47=A|48=US81369Y8865|54=2|55=XLU|58=PARTIAL|59=0|60=20090203-20:49:42|76=MANS|103=0|150=1|167=CS|207=US|10=056|
8=FIX.4.2|9=305|35=8|34=1336|49=BLPDROP|50=ULBRIDGE|52=20090203-20:49:43|56=MALBEC|57=4768676|1=20000073|6=29.3|11=20090203-00103|14=500|15=USD|17=53125439|20=0|22=4|29=1|31=29.3|32=200|37=DMEGVL0XK4|38=978|39=1|40=1|47=A|48=US81369Y8865|54=2|55=XLU|58=PARTIAL|59=0|60=20090203-20:49:42|76=MANS|103=0|150=1|167=CS|207=US|10=059|
8=FIX.4.2|9=310|35=8|34=1337|49=BLPDROP|50=ULBRIDGE|52=20090203-20:49:43|56=MALBEC|57=4768676|1=20000073|6=22.44|11=20090203-00102|14=3684|15=USD|17=51129794|20=0|22=4|29=1|31=22.44|32=271|37=DMCGVL0XJY|38=3684|39=2|40=1|47=A|48=US81369Y3080|54=5|55=XLP|58=COMPLETE|59=0|60=20090203-20:49:42|76=MANS|103=0|150=2|167=CS|207=US|10=108|
8=FIX.4.2|9=305|35=8|34=1338|49=BLPDROP|50=ULBRIDGE|52=20090203-20:49:43|56=MALBEC|57=4768676|1=20000073|6=29.3|11=20090203-00103|14=800|15=USD|17=53125440|20=0|22=4|29=1|31=29.3|32=300|37=DMEGVL0XK4|38=978|39=1|40=1|47=A|48=US81369Y8865|54=2|55=XLU|58=PARTIAL|59=0|60=20090203-20:49:42|76=MANS|103=0|150=1|167=CS|207=US|10=057|
8=FIX.4.2|9=305|35=8|34=1339|49=BLPDROP|50=ULBRIDGE|52=20090203-20:49:43|56=MALBEC|57=4768676|1=20000073|6=29.3|11=20090203-00103|14=900|15=USD|17=53125441|20=0|22=4|29=1|31=29.3|32=100|37=DMEGVL0XK4|38=978|39=1|40=1|47=A|48=US81369Y8865|54=2|55=XLU|58=PARTIAL|59=0|60=20090203-20:49:42|76=MANS|103=0|150=1|167=CS|207=US|10=058|
8=FIX.4.2|9=305|35=8|34=1340|49=BLPDROP|50=ULBRIDGE|52=20090203-20:49:43|56=MALBEC|57=4768676|1=20000073|6=29.3|11=20090203-00103|14=978|15=USD|17=53125442|20=0|22=4|29=1|31=29.3|32=78|37=DMEGVL0XK4|38=978|39=2|40=1|47=A|48=US81369Y8865|54=2|55=XLU|58=COMPLETE|59=0|60=20090203-20:49:42|76=MANS|103=0|150=2|167=CS|207=US|10=110|
8=FIX.4.2|9=308|35=8|34=1343|49=BLPDROP|50=ULBRIDGE|52=20090203-20:50:56|56=MALBEC|57=4768676|1=20000073|6=27.18|11=20090203-00106|14=764|15=USD|17=55125493|20=0|22=4|29=1|31=27.18|32=764|37=DMGGVL0XKM|38=764|39=2|40=1|47=A|48=US81369Y2090|54=5|55=XLV|58=COMPLETE|59=0|60=20090203-20:50:56|76=MANS|103=0|150=2|167=CS|207=US|10=019|
8=FIX.4.2|9=308|35=8|34=1344|49=BLPDROP|50=ULBRIDGE|52=20090203-20:50:56|56=MALBEC|57=4768676|1=20000073|6=19.69|11=20090203-00107|14=200|15=USD|17=41122434|20=0|22=4|29=1|31=19.69|32=200|37=DM1GVL0XKV|38=1089|39=1|40=1|47=A|48=US81369Y4070|54=5|55=XLY|58=PARTIAL|59=0|60=20090203-20:50:56|76=MANS|103=0|150=1|167=CS|207=US|10=209|
8=FIX.4.2|9=309|35=8|34=1345|49=BLPDROP|50=ULBRIDGE|52=20090203-20:50:56|56=MALBEC|57=4768676|1=20000073|6=19.69|11=20090203-00107|14=1000|15=USD|17=41122435|20=0|22=4|29=1|31=19.69|32=800|37=DM1GVL0XKV|38=1089|39=1|40=1|47=A|48=US81369Y4070|54=5|55=XLY|58=PARTIAL|59=0|60=20090203-20:50:56|76=MANS|103=0|150=1|167=CS|207=US|10=009|
8=FIX.4.2|9=309|35=8|34=1346|49=BLPDROP|50=ULBRIDGE|52=20090203-20:50:56|56=MALBEC|57=4768676|1=20000073|6=19.69|11=20090203-00107|14=1089|15=USD|17=41122436|20=0|22=4|29=1|31=19.69|32=89|37=DM1GVL0XKV|38=1089|39=2|40=1|47=A|48=US81369Y4070|54=5|55=XLY|58=COMPLETE|59=0|60=20090203-20:50:56|76=MANS|103=0|150=2|167=CS|207=US|10=067|
8=FIX.4.2|9=307|35=8|34=1347|49=BLPDROP|50=ULBRIDGE|52=20090203-20:50:56|56=MALBEC|57=4768676|1=20000073|6=47.04|11=20090203-00109|14=200|15=USD|17=42122031|20=0|22=4|29=1|31=47.04|32=200|37=DM2GVL0XKK|38=379|39=1|40=1|47=A|48=US81369Y5069|54=1|55=XLE|58=PARTIAL|59=0|60=20090203-20:50:56|76=MANS|103=0|150=1|167=CS|207=US|10=115|
8=FIX.4.2|9=308|35=8|34=1348|49=BLPDROP|50=ULBRIDGE|52=20090203-20:50:56|56=MALBEC|57=4768676|1=20000073|6=47.04|11=20090203-00109|14=379|15=USD|17=42122032|20=0|22=4|29=1|31=47.04|32=179|37=DM2GVL0XKK|38=379|39=2|40=1|47=A|48=US81369Y5069|54=1|55=XLE|58=COMPLETE|59=0|60=20090203-20:50:56|76=MANS|103=0|150=2|167=CS|207=US|10=228|
8=FIX.4.2|9=300|35=8|34=1349|49=BLPDROP|50=ULBRIDGE|52=20090203-20:50:57|56=MALBEC|57=4768676|1=20000073|6=9.03|11=20090203-00110|14=900|15=USD|17=43130465|20=0|22=4|31=9.03|32=900|37=DM3GVL0XKK|38=901|39=1|40=1|47=A|48=US81369Y6059|54=1|55=XLF|58=PARTIAL|59=0|60=20090203-20:50:56|76=MANS|103=0|150=1|167=CS|207=US|10=057|
8=FIX.4.2|9=303|35=8|34=1350|49=BLPDROP|50=ULBRIDGE|52=20090203-20:50:57|56=MALBEC|57=4768676|1=20000073|6=9.03|11=20090203-00111|14=2000|15=USD|17=49122252|20=0|22=4|31=9.03|32=2000|37=DMAGVL0XKS|38=2093|39=1|40=1|47=A|48=US81369Y6059|54=1|55=XLF|58=PARTIAL|59=0|60=20090203-20:50:56|76=MANS|103=0|150=1|167=CS|207=US|10=210|
8=FIX.4.2|9=310|35=8|34=1351|49=BLPDROP|50=ULBRIDGE|52=20090203-20:50:57|56=MALBEC|57=4768676|1=20000073|6=20.54|11=20090203-00112|14=1000|15=USD|17=51129935|20=0|22=4|29=1|31=20.54|32=1000|37=DMCGVL0XKY|38=1708|39=1|40=1|47=A|48=US81369Y7040|54=2|55=XLI|58=PARTIAL|59=0|60=20090203-20:50:56|76=MANS|103=0|150=1|167=CS|207=US|10=021|
8=FIX.4.2|9=309|35=8|34=1352|49=BLPDROP|50=ULBRIDGE|52=20090203-20:50:57|56=MALBEC|57=4768676|1=20000073|6=20.54|11=20090203-00112|14=1200|15=USD|17=51129936|20=0|22=4|29=1|31=20.54|32=200|37=DMCGVL0XKY|38=1708|39=1|40=1|47=A|48=US81369Y7040|54=2|55=XLI|58=PARTIAL|59=0|60=20090203-20:50:56|76=MANS|103=0|150=1|167=CS|207=US|10=242|
8=FIX.4.2|9=309|35=8|34=1353|49=BLPDROP|50=ULBRIDGE|52=20090203-20:50:57|56=MALBEC|57=4768676|1=20000073|6=20.54|11=20090203-00112|14=1300|15=USD|17=51129937|20=0|22=4|29=1|31=20.54|32=100|37=DMCGVL0XKY|38=1708|39=1|40=1|47=A|48=US81369Y7040|54=2|55=XLI|58=PARTIAL|59=0|60=20090203-20:50:56|76=MANS|103=0|150=1|167=CS|207=US|10=244|
8=FIX.4.2|9=304|35=8|34=1354|49=BLPDROP|50=ULBRIDGE|52=20090203-20:50:57|56=MALBEC|57=4768676|1=20000073|6=9.03|11=20090203-00110|14=901|15=USD|17=43130466|20=0|22=4|29=1|31=9.03|32=1|37=DM3GVL0XKK|38=901|39=2|40=1|47=A|48=US81369Y6059|54=1|55=XLF|58=COMPLETE|59=0|60=20090203-20:50:56|76=MANS|103=0|150=2|167=CS|207=US|10=251|
8=FIX.4.2|9=309|35=8|34=1355|49=BLPDROP|50=ULBRIDGE|52=20090203-20:50:57|56=MALBEC|57=4768676|1=20000073|6=20.54|11=20090203-00112|14=1400|15=USD|17=51129938|20=0|22=4|29=1|31=20.54|32=100|37=DMCGVL0XKY|38=1708|39=1|40=1|47=A|48=US81369Y7040|54=2|55=XLI|58=PARTIAL|59=0|60=20090203-20:50:56|76=MANS|103=0|150=1|167=CS|207=US|10=248|
8=FIX.4.2|9=308|35=8|34=1356|49=BLPDROP|50=ULBRIDGE|52=20090203-20:50:57|56=MALBEC|57=4768676|1=20000073|6=15.26|11=20090203-00113|14=100|15=USD|17=53125580|20=0|22=4|29=1|31=15.26|32=100|37=DMEGVL0XL6|38=1233|39=1|40=1|47=A|48=US81369Y8030|54=1|55=XLK|58=PARTIAL|59=0|60=20090203-20:50:56|76=MANS|103=0|150=1|167=CS|207=US|10=156|
8=FIX.4.2|9=308|35=8|34=1357|49=BLPDROP|50=ULBRIDGE|52=20090203-20:50:57|56=MALBEC|57=4768676|1=20000073|6=15.26|11=20090203-00113|14=600|15=USD|17=53125581|20=0|22=4|29=1|31=15.26|32=500|37=DMEGVL0XL6|38=1233|39=1|40=1|47=A|48=US81369Y8030|54=1|55=XLK|58=PARTIAL|59=0|60=20090203-20:50:56|76=MANS|103=0|150=1|167=CS|207=US|10=167|
8=FIX.4.2|9=310|35=8|34=1358|49=BLPDROP|50=ULBRIDGE|52=20090203-20:50:57|56=MALBEC|57=4768676|1=20000073|6=20.54|11=20090203-00112|14=1708|15=USD|17=51129939|20=0|22=4|29=1|31=20.54|32=308|37=DMCGVL0XKY|38=1708|39=2|40=1|47=A|48=US81369Y7040|54=2|55=XLI|58=COMPLETE|59=0|60=20090203-20:50:56|76=MANS|103=0|150=2|167=CS|207=US|10=087|
8=FIX.4.2|9=308|35=8|34=1359|49=BLPDROP|50=ULBRIDGE|52=20090203-20:50:57|56=MALBEC|57=4768676|1=20000073|6=15.26|11=20090203-00113|14=700|15=USD|17=53125582|20=0|22=4|29=1|31=15.26|32=100|37=DMEGVL0XL6|38=1233|39=1|40=1|47=A|48=US81369Y8030|54=1|55=XLK|58=PARTIAL|59=0|60=20090203-20:50:56|76=MANS|103=0|150=1|167=CS|207=US|10=167|
8=FIX.4.2|9=307|35=8|34=1360|49=BLPDROP|50=ULBRIDGE|52=20090203-20:50:57|56=MALBEC|57=4768676|1=20000073|6=9.03|11=20090203-00111|14=2093|15=USD|17=49122253|20=0|22=4|29=1|31=9.03|32=93|37=DMAGVL0XKS|38=2093|39=2|40=1|47=A|48=US81369Y6059|54=1|55=XLF|58=COMPLETE|59=0|60=20090203-20:50:56|76=MANS|103=0|150=2|167=CS|207=US|10=182|
8=FIX.4.2|9=308|35=8|34=1361|49=BLPDROP|50=ULBRIDGE|52=20090203-20:50:57|56=MALBEC|57=4768676|1=20000073|6=15.26|11=20090203-00113|14=800|15=USD|17=53125583|20=0|22=4|29=1|31=15.26|32=100|37=DMEGVL0XL6|38=1233|39=1|40=1|47=A|48=US81369Y8030|54=1|55=XLK|58=PARTIAL|59=0|60=20090203-20:50:56|76=MANS|103=0|150=1|167=CS|207=US|10=162|
8=FIX.4.2|9=308|35=8|34=1362|49=BLPDROP|50=ULBRIDGE|52=20090203-20:50:57|56=MALBEC|57=4768676|1=20000073|6=15.26|11=20090203-00113|14=900|15=USD|17=53125584|20=0|22=4|29=1|31=15.26|32=100|37=DMEGVL0XL6|38=1233|39=1|40=1|47=A|48=US81369Y8030|54=1|55=XLK|58=PARTIAL|59=0|60=20090203-20:50:56|76=MANS|103=0|150=1|167=CS|207=US|10=165|
8=FIX.4.2|9=309|35=8|34=1363|49=BLPDROP|50=ULBRIDGE|52=20090203-20:50:57|56=MALBEC|57=4768676|1=20000073|6=15.26|11=20090203-00113|14=1200|15=USD|17=53125585|20=0|22=4|29=1|31=15.26|32=300|37=DMEGVL0XL6|38=1233|39=1|40=1|47=A|48=US81369Y8030|54=1|55=XLK|58=PARTIAL|59=0|60=20090203-20:50:56|76=MANS|103=0|150=1|167=CS|207=US|10=212|
8=FIX.4.2|9=309|35=8|34=1364|49=BLPDROP|50=ULBRIDGE|52=20090203-20:50:57|56=MALBEC|57=4768676|1=20000073|6=15.26|11=20090203-00113|14=1233|15=USD|17=53125586|20=0|22=4|29=1|31=15.26|32=33|37=DMEGVL0XL6|38=1233|39=2|40=1|47=A|48=US81369Y8030|54=1|55=XLK|58=COMPLETE|59=0|60=20090203-20:50:56|76=MANS|103=0|150=2|167=CS|207=US|10=253|
8=FIX.4.2|9=310|35=8|34=1365|49=BLPDROP|50=ULBRIDGE|52=20090203-20:50:57|56=MALBEC|57=4768676|1=20000073|6=22.45|11=20090203-00114|14=1000|15=USD|17=54124053|20=0|22=4|29=1|31=22.45|32=1000|37=DMFGVL0XKQ|38=1388|39=1|40=1|47=A|48=US81369Y3080|54=2|55=XLP|58=PARTIAL|59=0|60=20090203-20:50:56|76=MANS|103=0|150=1|167=CS|207=US|10=027|
8=FIX.4.2|9=310|35=8|34=1366|49=BLPDROP|50=ULBRIDGE|52=20090203-20:50:57|56=MALBEC|57=4768676|1=20000073|6=22.45|11=20090203-00114|14=1388|15=USD|17=54124054|20=0|22=4|29=1|31=22.45|32=388|37=DMFGVL0XKQ|38=1388|39=2|40=1|47=A|48=US81369Y3080|54=2|55=XLP|58=COMPLETE|59=0|60=20090203-20:50:56|76=MANS|103=0|150=2|167=CS|207=US|10=096|
8=FIX.4.2|9=308|35=8|34=1367|49=BLPDROP|50=ULBRIDGE|52=20090203-20:50:57|56=MALBEC|57=4768676|1=20000073|6=22.45|11=20090203-00115|14=212|15=USD|17=41122439|20=0|22=4|29=1|31=22.45|32=212|37=DM1GVL0XKW|38=3685|39=1|40=1|47=A|48=US81369Y3080|54=5|55=XLP|58=PARTIAL|59=0|60=20090203-20:50:56|76=MANS|103=0|150=1|167=CS|207=US|10=197|
8=FIX.4.2|9=310|35=8|34=1368|49=BLPDROP|50=ULBRIDGE|52=20090203-20:50:57|56=MALBEC|57=4768676|1=20000073|6=22.45|11=20090203-00115|14=2962|15=USD|17=41122440|20=0|22=4|29=1|31=22.45|32=2750|37=DM1GVL0XKW|38=3685|39=1|40=1|47=A|48=US81369Y3080|54=5|55=XLP|58=PARTIAL|59=0|60=20090203-20:50:56|76=MANS|103=0|150=1|167=CS|207=US|10=046|
8=FIX.4.2|9=309|35=8|34=1369|49=BLPDROP|50=ULBRIDGE|52=20090203-20:50:57|56=MALBEC|57=4768676|1=20000073|6=22.45|11=20090203-00115|14=3462|15=USD|17=41122441|20=0|22=4|29=1|31=22.45|32=500|37=DM1GVL0XKW|38=3685|39=1|40=1|47=A|48=US81369Y3080|54=5|55=XLP|58=PARTIAL|59=0|60=20090203-20:50:56|76=MANS|103=0|150=1|167=CS|207=US|10=251|
8=FIX.4.2|9=310|35=8|34=1370|49=BLPDROP|50=ULBRIDGE|52=20090203-20:50:57|56=MALBEC|57=4768676|1=20000073|6=22.45|11=20090203-00115|14=3685|15=USD|17=41122442|20=0|22=4|29=1|31=22.45|32=223|37=DM1GVL0XKW|38=3685|39=2|40=1|47=A|48=US81369Y3080|54=5|55=XLP|58=COMPLETE|59=0|60=20090203-20:50:56|76=MANS|103=0|150=2|167=CS|207=US|10=067|
8=FIX.4.2|9=307|35=8|34=1371|49=BLPDROP|50=ULBRIDGE|52=20090203-20:50:57|56=MALBEC|57=4768676|1=20000073|6=29.34|11=20090203-00116|14=500|15=USD|17=42122035|20=0|22=4|29=1|31=29.34|32=500|37=DM2GVL0XKL|38=979|39=1|40=1|47=A|48=US81369Y8865|54=2|55=XLU|58=PARTIAL|59=0|60=20090203-20:50:56|76=MANS|103=0|150=1|167=CS|207=US|10=158|
8=FIX.4.2|9=307|35=8|34=1372|49=BLPDROP|50=ULBRIDGE|52=20090203-20:50:57|56=MALBEC|57=4768676|1=20000073|6=29.34|11=20090203-00116|14=700|15=USD|17=42122036|20=0|22=4|29=1|31=29.34|32=200|37=DM2GVL0XKL|38=979|39=1|40=1|47=A|48=US81369Y8865|54=2|55=XLU|58=PARTIAL|59=0|60=20090203-20:50:56|76=MANS|103=0|150=1|167=CS|207=US|10=159|
8=FIX.4.2|9=307|35=8|34=1373|49=BLPDROP|50=ULBRIDGE|52=20090203-20:50:57|56=MALBEC|57=4768676|1=20000073|6=29.34|11=20090203-00116|14=800|15=USD|17=42122037|20=0|22=4|29=1|31=29.34|32=100|37=DM2GVL0XKL|38=979|39=1|40=1|47=A|48=US81369Y8865|54=2|55=XLU|58=PARTIAL|59=0|60=20090203-20:50:56|76=MANS|103=0|150=1|167=CS|207=US|10=161|
8=FIX.4.2|9=307|35=8|34=1374|49=BLPDROP|50=ULBRIDGE|52=20090203-20:50:57|56=MALBEC|57=4768676|1=20000073|6=29.34|11=20090203-00116|14=900|15=USD|17=42122038|20=0|22=4|29=1|31=29.34|32=100|37=DM2GVL0XKL|38=979|39=1|40=1|47=A|48=US81369Y8865|54=2|55=XLU|58=PARTIAL|59=0|60=20090203-20:50:56|76=MANS|103=0|150=1|167=CS|207=US|10=164|
8=FIX.4.2|9=307|35=8|34=1375|49=BLPDROP|50=ULBRIDGE|52=20090203-20:50:57|56=MALBEC|57=4768676|1=20000073|6=29.34|11=20090203-00116|14=979|15=USD|17=42122039|20=0|22=4|29=1|31=29.34|32=79|37=DM2GVL0XKL|38=979|39=2|40=1|47=A|48=US81369Y8865|54=2|55=XLU|58=COMPLETE|59=0|60=20090203-20:50:56|76=MANS|103=0|150=2|167=CS|207=US|10=227|