8=FIX.4.2|9=0313|35=8|49=BLPDROP|56=MALBEC|34=74|52=20090120-16:05:20|50=BMTB|57=809063|30=N|60=20090120-16:05:20|150=1|1=TEST|31=83.55|151=950|32=50|6=83.55|37=TBX51090117|38=1000|39=1|40=2|11=20090120-00002|12=0.000003|13=2|14=50|44=83.55|76=BMTB|17=50|167=CS|48=459200101|20=0|21=2|22=1|54=1|55=IBM|207=US|58=PARTIAL FILL|59=0|10=095|
8=FIX.4.2|9=313|35=8|34=74|49=BLPDROP|50=BMTB|52=20090120-16:05:20|56=MALBEC|57=809063|1=TEST|6=83.55|11=20090120-00002|12=0.000003|13=2|14=50|17=50|20=0|21=2|22=1|30=N|31=83.55|32=50|37=TBX51090117|38=1000|39=1|40=2|44=83.55|48=459200101|54=1|55=IBM|58=PARTIAL FILL|59=0|60=20090120-16:05:20|76=BMTB|150=1|151=950|167=CS|207=US|10=047|
8=FIX.4.2|9=313|35=8|34=74|49=BLPDROP|50=BMTB|52=20090120-16:05:20|56=MALBEC|57=809063|1=TEST|6=83.55|11=20090120-00002|12=0.000003|13=2|14=50|17=50|20=0|21=2|22=1|30=N|31=83.55|32=50|37=TBX51090117|38=1000|39=1|40=2|44=83.55|48=459200101|54=1|55=IBM|58=PARTIAL FILL|59=0|60=20090120-16:05:20|76=BMTB|150=1|151=950|167=CS|207=US|10=047|
8=FIX.4.2|9=313|35=8|34=74|49=BLPDROP|50=BMTB|52=20090120-16:05:20|56=MALBEC|57=809063|1=TEST|6=83.55|11=20090120-00002|12=0.000003|13=2|14=50|17=50|20=0|21=2|22=1|30=N|31=83.55|32=50|37=TBX51090117|38=1000|39=1|40=2|44=83.55|48=459200101|54=1|55=IBM|58=PARTIAL FILL|59=0|60=20090120-16:05:20|76=BMTB|150=1|151=950|167=CS|207=US|10=047|
8=FIX.4.2|9=313|35=8|34=74|49=BLPDROP|50=BMTB|52=20090120-16:05:20|56=MALBEC|57=809063|1=TEST|6=83.55|11=20090120-00002|12=0.000003|13=2|14=50|17=50|20=0|21=2|22=1|30=N|31=83.55|32=50|37=TBX51090117|38=1000|39=1|40=2|44=83.55|48=459200101|54=1|55=IBM|58=PARTIAL FILL|59=0|60=20090120-16:05:20|76=BMTB|150=1|151=950|167=CS|207=US|10=047|
8=FIX.4.2|9=0314|35=8|49=BLPDROP|56=MALBEC|34=75|52=20090120-16:05:35|50=BMTB|57=809063|30=N|60=20090120-16:05:35|150=1|1=TEST|31=83.55|151=900|32=50|6=83.55|37=TBX51090117|38=1000|39=1|40=2|11=20090120-00002|12=0.000003|13=2|14=100|44=83.55|76=BMTB|17=51|167=CS|48=459200101|20=0|21=2|22=1|54=1|55=IBM|207=US|58=PARTIAL FILL|59=0|10=149|
8=FIX.4.2|9=314|35=8|34=75|49=BLPDROP|50=BMTB|52=20090120-16:05:35|56=MALBEC|57=809063|1=TEST|6=83.55|11=20090120-00002|12=0.000003|13=2|14=100|17=51|20=0|21=2|22=1|30=N|31=83.55|32=50|37=TBX51090117|38=1000|39=1|40=2|44=83.55|48=459200101|54=1|55=IBM|58=PARTIAL FILL|59=0|60=20090120-16:05:35|76=BMTB|150=1|151=900|167=CS|207=US|10=101|
8=FIX.4.2|9=314|35=8|34=75|49=BLPDROP|50=BMTB|52=20090120-16:05:35|56=MALBEC|57=809063|1=TEST|6=83.55|11=20090120-00002|12=0.000003|13=2|14=100|17=51|20=0|21=2|22=1|30=N|31=83.55|32=50|37=TBX51090117|38=1000|39=1|40=2|44=83.55|48=459200101|54=1|55=IBM|58=PARTIAL FILL|59=0|60=20090120-16:05:35|76=BMTB|150=1|151=900|167=CS|207=US|10=101|
8=FIX.4.2|9=314|35=8|34=75|49=BLPDROP|50=BMTB|52=20090120-16:05:35|56=MALBEC|57=809063|1=TEST|6=83.55|11=20090120-00002|12=0.000003|13=2|14=100|17=51|20=0|21=2|22=1|30=N|31=83.55|32=50|37=TBX51090117|38=1000|39=1|40=2|44=83.55|48=459200101|54=1|55=IBM|58=PARTIAL FILL|59=0|60=20090120-16:05:35|76=BMTB|150=1|151=900|167=CS|207=US|10=101|
8=FIX.4.2|9=314|35=8|34=75|49=BLPDROP|50=BMTB|52=20090120-16:05:35|56=MALBEC|57=809063|1=TEST|6=83.55|11=20090120-00002|12=0.000003|13=2|14=100|17=51|20=0|21=2|22=1|30=N|31=83.55|32=50|37=TBX51090117|38=1000|39=1|40=2|44=83.55|48=459200101|54=1|55=IBM|58=PARTIAL FILL|59=0|60=20090120-16:05:35|76=BMTB|150=1|151=900|167=CS|207=US|10=101|
8=FIX.4.2|9=0314|35=8|49=BLPDROP|56=MALBEC|34=76|52=20090120-16:05:50|50=BMTB|57=809063|30=N|60=20090120-16:05:50|150=1|1=TEST|31=83.55|151=850|32=50|6=83.55|37=TBX51090117|38=1000|39=1|40=2|11=20090120-00002|12=0.000003|13=2|14=150|44=83.55|76=BMTB|17=52|167=CS|48=459200101|20=0|21=2|22=1|54=1|55=IBM|207=US|58=PARTIAL FILL|59=0|10=154|
8=FIX.4.2|9=314|35=8|34=76|49=BLPDROP|50=BMTB|52=20090120-16:05:50|56=MALBEC|57=809063|1=TEST|6=83.55|11=20090120-00002|12=0.000003|13=2|14=150|17=52|20=0|21=2|22=1|30=N|31=83.55|32=50|37=TBX51090117|38=1000|39=1|40=2|44=83.55|48=459200101|54=1|55=IBM|58=PARTIAL FILL|59=0|60=20090120-16:05:50|76=BMTB|150=1|151=850|167=CS|207=US|10=106|
8=FIX.4.2|9=314|35=8|34=76|49=BLPDROP|50=BMTB|52=20090120-16:05:50|56=MALBEC|57=809063|1=TEST|6=83.55|11=20090120-00002|12=0.000003|13=2|14=150|17=52|20=0|21=2|22=1|30=N|31=83.55|32=50|37=TBX51090117|38=1000|39=1|40=2|44=83.55|48=459200101|54=1|55=IBM|58=PARTIAL FILL|59=0|60=20090120-16:05:50|76=BMTB|150=1|151=850|167=CS|207=US|10=106|
8=FIX.4.2|9=314|35=8|34=76|49=BLPDROP|50=BMTB|52=20090120-16:05:50|56=MALBEC|57=809063|1=TEST|6=83.55|11=20090120-00002|12=0.000003|13=2|14=150|17=52|20=0|21=2|22=1|30=N|31=83.55|32=50|37=TBX51090117|38=1000|39=1|40=2|44=83.55|48=459200101|54=1|55=IBM|58=PARTIAL FILL|59=0|60=20090120-16:05:50|76=BMTB|150=1|151=850|167=CS|207=US|10=106|
8=FIX.4.2|9=314|35=8|34=76|49=BLPDROP|50=BMTB|52=20090120-16:05:50|56=MALBEC|57=809063|1=TEST|6=83.55|11=20090120-00002|12=0.000003|13=2|14=150|17=52|20=0|21=2|22=1|30=N|31=83.55|32=50|37=TBX51090117|38=1000|39=1|40=2|44=83.55|48=459200101|54=1|55=IBM|58=PARTIAL FILL|59=0|60=20090120-16:05:50|76=BMTB|150=1|151=850|167=CS|207=US|10=106|
8=FIX.4.2|9=0307|35=8|49=BLPDROP|56=MALBEC|34=77|52=20090120-16:05:55|50=BMTB|57=809063|30=N|60=20090120-16:05:55|150=1|1=TEST|31=9.74|151=500|32=500|6=9.74|37=TBX61090117|38=1000|39=1|40=1|11=20090120-00003|12=0.000003|13=2|14=500|44=0|76=BMTB|17=54|167=CS|48=55616P104|20=0|21=2|22=1|54=2|55=M|207=US|58=PARTIAL FILL|59=0|10=056|
8=FIX.4.2|9=307|35=8|34=77|49=BLPDROP|50=BMTB|52=20090120-16:05:55|56=MALBEC|57=809063|1=TEST|6=9.74|11=20090120-00003|12=0.000003|13=2|14=500|17=54|20=0|21=2|22=1|30=N|31=9.74|32=500|37=TBX61090117|38=1000|39=1|40=1|44=0|48=55616P104|54=2|55=M|58=PARTIAL FILL|59=0|60=20090120-16:05:55|76=BMTB|150=1|151=500|167=CS|207=US|10=008|
8=FIX.4.2|9=307|35=8|34=77|49=BLPDROP|50=BMTB|52=20090120-16:05:55|56=MALBEC|57=809063|1=TEST|6=9.74|11=20090120-00003|12=0.000003|13=2|14=500|17=54|20=0|21=2|22=1|30=N|31=9.74|32=500|37=TBX61090117|38=1000|39=1|40=1|44=0|48=55616P104|54=2|55=M|58=PARTIAL FILL|59=0|60=20090120-16:05:55|76=BMTB|150=1|151=500|167=CS|207=US|10=008|
8=FIX.4.2|9=307|35=8|34=77|49=BLPDROP|50=BMTB|52=20090120-16:05:55|56=MALBEC|57=809063|1=TEST|6=9.74|11=20090120-00003|12=0.000003|13=2|14=500|17=54|20=0|21=2|22=1|30=N|31=9.74|32=500|37=TBX61090117|38=1000|39=1|40=1|44=0|48=55616P104|54=2|55=M|58=PARTIAL FILL|59=0|60=20090120-16:05:55|76=BMTB|150=1|151=500|167=CS|207=US|10=008|
8=FIX.4.2|9=307|35=8|34=77|49=BLPDROP|50=BMTB|52=20090120-16:05:55|56=MALBEC|57=809063|1=TEST|6=9.74|11=20090120-00003|12=0.000003|13=2|14=500|17=54|20=0|21=2|22=1|30=N|31=9.74|32=500|37=TBX61090117|38=1000|39=1|40=1|44=0|48=55616P104|54=2|55=M|58=PARTIAL FILL|59=0|60=20090120-16:05:55|76=BMTB|150=1|151=500|167=CS|207=US|10=008|
8=FIX.4.2|9=0314|35=8|49=BLPDROP|56=MALBEC|34=78|52=20090120-16:06:05|50=BMTB|57=809063|30=N|60=20090120-16:06:05|150=1|1=TEST|31=83.55|151=800|32=50|6=83.55|37=TBX51090117|38=1000|39=1|40=2|11=20090120-00002|12=0.000003|13=2|14=200|44=83.55|76=BMTB|17=55|167=CS|48=459200101|20=0|21=2|22=1|54=1|55=IBM|207=US|58=PARTIAL FILL|59=0|10=152|
8=FIX.4.2|9=314|35=8|34=78|49=BLPDROP|50=BMTB|52=20090120-16:06:05|56=MALBEC|57=809063|1=TEST|6=83.55|11=20090120-00002|12=0.000003|13=2|14=200|17=55|20=0|21=2|22=1|30=N|31=83.55|32=50|37=TBX51090117|38=1000|39=1|40=2|44=83.55|48=459200101|54=1|55=IBM|58=PARTIAL FILL|59=0|60=20090120-16:06:05|76=BMTB|150=1|151=800|167=CS|207=US|10=104|
8=FIX.4.2|9=314|35=8|34=78|49=BLPDROP|50=BMTB|52=20090120-16:06:05|56=MALBEC|57=809063|1=TEST|6=83.55|11=20090120-00002|12=0.000003|13=2|14=200|17=55|20=0|21=2|22=1|30=N|31=83.55|32=50|37=TBX51090117|38=1000|39=1|40=2|44=83.55|48=459200101|54=1|55=IBM|58=PARTIAL FILL|59=0|60=20090120-16:06:05|76=BMTB|150=1|151=800|167=CS|207=US|10=104|
8=FIX.4.2|9=314|35=8|34=78|49=BLPDROP|50=BMTB|52=20090120-16:06:05|56=MALBEC|57=809063|1=TEST|6=83.55|11=20090120-00002|12=0.000003|13=2|14=200|17=55|20=0|21=2|22=1|30=N|31=83.55|32=50|37=TBX51090117|38=1000|39=1|40=2|44=83.55|48=459200101|54=1|55=IBM|58=PARTIAL FILL|59=0|60=20090120-16:06:05|76=BMTB|150=1|151=800|167=CS|207=US|10=104|
8=FIX.4.2|9=314|35=8|34=78|49=BLPDROP|50=BMTB|52=20090120-16:06:05|56=MALBEC|57=809063|1=TEST|6=83.55|11=20090120-00002|12=0.000003|13=2|14=200|17=55|20=0|21=2|22=1|30=N|31=83.55|32=50|37=TBX51090117|38=1000|39=1|40=2|44=83.55|48=459200101|54=1|55=IBM|58=PARTIAL FILL|59=0|60=20090120-16:06:05|76=BMTB|150=1|151=800|167=CS|207=US|10=104|
8=FIX.4.2|9=0314|35=8|49=BLPDROP|56=MALBEC|34=79|52=20090120-16:06:20|50=BMTB|57=809063|30=N|60=20090120-16:06:20|150=1|1=TEST|31=83.55|151=750|32=50|6=83.55|37=TBX51090117|38=1000|39=1|40=2|11=20090120-00002|12=0.000003|13=2|14=250|44=83.55|76=BMTB|17=56|167=CS|48=459200101|20=0|21=2|22=1|54=1|55=IBM|207=US|58=PARTIAL FILL|59=0|10=157|
8=FIX.4.2|9=314|35=8|34=79|49=BLPDROP|50=BMTB|52=20090120-16:06:20|56=MALBEC|57=809063|1=TEST|6=83.55|11=20090120-00002|12=0.000003|13=2|14=250|17=56|20=0|21=2|22=1|30=N|31=83.55|32=50|37=TBX51090117|38=1000|39=1|40=2|44=83.55|48=459200101|54=1|55=IBM|58=PARTIAL FILL|59=0|60=20090120-16:06:20|76=BMTB|150=1|151=750|167=CS|207=US|10=109|
8=FIX.4.2|9=314|35=8|34=79|49=BLPDROP|50=BMTB|52=20090120-16:06:20|56=MALBEC|57=809063|1=TEST|6=83.55|11=20090120-00002|12=0.000003|13=2|14=250|17=56|20=0|21=2|22=1|30=N|31=83.55|32=50|37=TBX51090117|38=1000|39=1|40=2|44=83.55|48=459200101|54=1|55=IBM|58=PARTIAL FILL|59=0|60=20090120-16:06:20|76=BMTB|150=1|151=750|167=CS|207=US|10=109|
8=FIX.4.2|9=314|35=8|34=79|49=BLPDROP|50=BMTB|52=20090120-16:06:20|56=MALBEC|57=809063|1=TEST|6=83.55|11=20090120-00002|12=0.000003|13=2|14=250|17=56|20=0|21=2|22=1|30=N|31=83.55|32=50|37=TBX51090117|38=1000|39=1|40=2|44=83.55|48=459200101|54=1|55=IBM|58=PARTIAL FILL|59=0|60=20090120-16:06:20|76=BMTB|150=1|151=750|167=CS|207=US|10=109|
8=FIX.4.2|9=314|35=8|34=79|49=BLPDROP|50=BMTB|52=20090120-16:06:20|56=MALBEC|57=809063|1=TEST|6=83.55|11=20090120-00002|12=0.000003|13=2|14=250|17=56|20=0|21=2|22=1|30=N|31=83.55|32=50|37=TBX51090117|38=1000|39=1|40=2|44=83.55|48=459200101|54=1|55=IBM|58=PARTIAL FILL|59=0|60=20090120-16:06:20|76=BMTB|150=1|151=750|167=CS|207=US|10=109|
8=FIX.4.2|9=0298|35=8|49=BLPDROP|56=MALBEC|34=80|52=20090120-16:06:25|50=BMTB|57=809063|30=N|60=20090120-16:06:25|150=2|1=TEST|31=9.74|151=0|32=500|6=9.74|37=TBX61090117|38=1000|39=2|40=1|11=20090120-00003|12=0.000003|13=2|14=1000|44=0|76=BMTB|17=57|167=CS|48=55616P104|20=0|21=2|22=1|54=2|55=M|207=US|58=FILL|59=0|10=214|
8=FIX.4.2|9=298|35=8|34=80|49=BLPDROP|50=BMTB|52=20090120-16:06:25|56=MALBEC|57=809063|1=TEST|6=9.74|11=20090120-00003|12=0.000003|13=2|14=1000|17=57|20=0|21=2|22=1|30=N|31=9.74|32=500|37=TBX61090117|38=1000|39=2|40=1|44=0|48=55616P104|54=2|55=M|58=FILL|59=0|60=20090120-16:06:25|76=BMTB|150=2|151=0|167=CS|207=US|10=166|
8=FIX.4.2|9=298|35=8|34=80|49=BLPDROP|50=BMTB|52=20090120-16:06:25|56=MALBEC|57=809063|1=TEST|6=9.74|11=20090120-00003|12=0.000003|13=2|14=1000|17=57|20=0|21=2|22=1|30=N|31=9.74|32=500|37=TBX61090117|38=1000|39=2|40=1|44=0|48=55616P104|54=2|55=M|58=FILL|59=0|60=20090120-16:06:25|76=BMTB|150=2|151=0|167=CS|207=US|10=166|
8=FIX.4.2|9=298|35=8|34=80|49=BLPDROP|50=BMTB|52=20090120-16:06:25|56=MALBEC|57=809063|1=TEST|6=9.74|11=20090120-00003|12=0.000003|13=2|14=1000|17=57|20=0|21=2|22=1|30=N|31=9.74|32=500|37=TBX61090117|38=1000|39=2|40=1|44=0|48=55616P104|54=2|55=M|58=FILL|59=0|60=20090120-16:06:25|76=BMTB|150=2|151=0|167=CS|207=US|10=166|
8=FIX.4.2|9=298|35=8|34=80|49=BLPDROP|50=BMTB|52=20090120-16:06:25|56=MALBEC|57=809063|1=TEST|6=9.74|11=20090120-00003|12=0.000003|13=2|14=1000|17=57|20=0|21=2|22=1|30=N|31=9.74|32=500|37=TBX61090117|38=1000|39=2|40=1|44=0|48=55616P104|54=2|55=M|58=FILL|59=0|60=20090120-16:06:25|76=BMTB|150=2|151=0|167=CS|207=US|10=166|
8=FIX.4.2|9=0314|35=8|49=BLPDROP|56=MALBEC|34=81|52=20090120-16:06:35|50=BMTB|57=809063|30=N|60=20090120-16:06:35|150=1|1=TEST|31=83.55|151=700|32=50|6=83.55|37=TBX51090117|38=1000|39=1|40=2|11=20090120-00002|12=0.000003|13=2|14=300|44=83.55|76=BMTB|17=58|167=CS|48=459200101|20=0|21=2|22=1|54=1|55=IBM|207=US|58=PARTIAL FILL|59=0|10=155|
8=FIX.4.2|9=314|35=8|34=81|49=BLPDROP|50=BMTB|52=20090120-16:06:35|56=MALBEC|57=809063|1=TEST|6=83.55|11=20090120-00002|12=0.000003|13=2|14=300|17=58|20=0|21=2|22=1|30=N|31=83.55|32=50|37=TBX51090117|38=1000|39=1|40=2|44=83.55|48=459200101|54=1|55=IBM|58=PARTIAL FILL|59=0|60=20090120-16:06:35|76=BMTB|150=1|151=700|167=CS|207=US|10=107|
8=FIX.4.2|9=314|35=8|34=81|49=BLPDROP|50=BMTB|52=20090120-16:06:35|56=MALBEC|57=809063|1=TEST|6=83.55|11=20090120-00002|12=0.000003|13=2|14=300|17=58|20=0|21=2|22=1|30=N|31=83.55|32=50|37=TBX51090117|38=1000|39=1|40=2|44=83.55|48=459200101|54=1|55=IBM|58=PARTIAL FILL|59=0|60=20090120-16:06:35|76=BMTB|150=1|151=700|167=CS|207=US|10=107|
8=FIX.4.2|9=314|35=8|34=81|49=BLPDROP|50=BMTB|52=20090120-16:06:35|56=MALBEC|57=809063|1=TEST|6=83.55|11=20090120-00002|12=0.000003|13=2|14=300|17=58|20=0|21=2|22=1|30=N|31=83.55|32=50|37=TBX51090117|38=1000|39=1|40=2|44=83.55|48=459200101|54=1|55=IBM|58=PARTIAL FILL|59=0|60=20090120-16:06:35|76=BMTB|150=1|151=700|167=CS|207=US|10=107|
8=FIX.4.2|9=314|35=8|34=81|49=BLPDROP|50=BMTB|52=20090120-16:06:35|56=MALBEC|57=809063|1=TEST|6=83.55|11=20090120-00002|12=0.000003|13=2|14=300|17=58|20=0|21=2|22=1|30=N|31=83.55|32=50|37=TBX51090117|38=1000|39=1|40=2|44=83.55|48=459200101|54=1|55=IBM|58=PARTIAL FILL|59=0|60=20090120-16:06:35|76=BMTB|150=1|151=700|167=CS|207=US|10=107|
8=FIX.4.2|9=0314|35=8|49=BLPDROP|56=MALBEC|34=82|52=20090120-16:06:50|50=BMTB|57=809063|30=N|60=20090120-16:06:50|150=1|1=TEST|31=83.55|151=650|32=50|6=83.55|37=TBX51090117|38=1000|39=1|40=2|11=20090120-00002|12=0.000003|13=2|14=350|44=83.55|76=BMTB|17=60|167=CS|48=459200101|20=0|21=2|22=1|54=1|55=IBM|207=US|58=PARTIAL FILL|59=0|10=152|
8=FIX.4.2|9=314|35=8|34=82|49=BLPDROP|50=BMTB|52=20090120-16:06:50|56=MALBEC|57=809063|1=TEST|6=83.55|11=20090120-00002|12=0.000003|13=2|14=350|17=60|20=0|21=2|22=1|30=N|31=83.55|32=50|37=TBX51090117|38=1000|39=1|40=2|44=83.55|48=459200101|54=1|55=IBM|58=PARTIAL FILL|59=0|60=20090120-16:06:50|76=BMTB|150=1|151=650|167=CS|207=US|10=104|
8=FIX.4.2|9=314|35=8|34=82|49=BLPDROP|50=BMTB|52=20090120-16:06:50|56=MALBEC|57=809063|1=TEST|6=83.55|11=20090120-00002|12=0.000003|13=2|14=350|17=60|20=0|21=2|22=1|30=N|31=83.55|32=50|37=TBX51090117|38=1000|39=1|40=2|44=83.55|48=459200101|54=1|55=IBM|58=PARTIAL FILL|59=0|60=20090120-16:06:50|76=BMTB|150=1|151=650|167=CS|207=US|10=104|
8=FIX.4.2|9=314|35=8|34=82|49=BLPDROP|50=BMTB|52=20090120-16:06:50|56=MALBEC|57=809063|1=TEST|6=83.55|11=20090120-00002|12=0.000003|13=2|14=350|17=60|20=0|21=2|22=1|30=N|31=83.55|32=50|37=TBX51090117|38=1000|39=1|40=2|44=83.55|48=459200101|54=1|55=IBM|58=PARTIAL FILL|59=0|60=20090120-16:06:50|76=BMTB|150=1|151=650|167=CS|207=US|10=104|
8=FIX.4.2|9=314|35=8|34=82|49=BLPDROP|50=BMTB|52=20090120-16:06:50|56=MALBEC|57=809063|1=TEST|6=83.55|11=20090120-00002|12=0.000003|13=2|14=350|17=60|20=0|21=2|22=1|30=N|31=83.55|32=50|37=TBX51090117|38=1000|39=1|40=2|44=83.55|48=459200101|54=1|55=IBM|58=PARTIAL FILL|59=0|60=20090120-16:06:50|76=BMTB|150=1|151=650|167=CS|207=US|10=104|
8=FIX.4.2|9=0319|35=8|49=BLPDROP|56=MALBEC|34=83|52=20090120-16:06:59|50=BMTB|57=809063|30=N|60=20090120-16:06:59|150=1|1=TEST|31=1.3723|151=950|32=50|6=1.3723|37=TBX71090117|38=1000|39=1|40=2|11=20090120-00004|12=0.000003|13=2|14=50|44=1.3723|76=BMTB|17=61|167=CS|48=GB00B16GWD56|20=0|21=2|22=4|54=3|55=VOD|207=LN|58=PARTIAL FILL|59=0|10=039|
8=FIX.4.2|9=319|35=8|34=83|49=BLPDROP|50=BMTB|52=20090120-16:06:59|56=MALBEC|57=809063|1=TEST|6=1.3723|11=20090120-00004|12=0.000003|13=2|14=50|17=61|20=0|21=2|22=4|30=N|31=1.3723|32=50|37=TBX71090117|38=1000|39=1|40=2|44=1.3723|48=GB00B16GWD56|54=3|55=VOD|58=PARTIAL FILL|59=0|60=20090120-16:06:59|76=BMTB|150=1|151=950|167=CS|207=LN|10=247|
8=FIX.4.2|9=319|35=8|34=83|49=BLPDROP|50=BMTB|52=20090120-16:06:59|56=MALBEC|57=809063|1=TEST|6=1.3723|11=20090120-00004|12=0.000003|13=2|14=50|17=61|20=0|21=2|22=4|30=N|31=1.3723|32=50|37=TBX71090117|38=1000|39=1|40=2|44=1.3723|48=GB00B16GWD56|54=3|55=VOD|58=PARTIAL FILL|59=0|60=20090120-16:06:59|76=BMTB|150=1|151=950|167=CS|207=LN|10=247|
8=FIX.4.2|9=319|35=8|34=83|49=BLPDROP|50=BMTB|52=20090120-16:06:59|56=MALBEC|57=809063|1=TEST|6=1.3723|11=20090120-00004|12=0.000003|13=2|14=50|17=61|20=0|21=2|22=4|30=N|31=1.3723|32=50|37=TBX71090117|38=1000|39=1|40=2|44=1.3723|48=GB00B16GWD56|54=3|55=VOD|58=PARTIAL FILL|59=0|60=20090120-16:06:59|76=BMTB|150=1|151=950|167=CS|207=LN|10=247|
8=FIX.4.2|9=319|35=8|34=83|49=BLPDROP|50=BMTB|52=20090120-16:06:59|56=MALBEC|57=809063|1=TEST|6=1.3723|11=20090120-00004|12=0.000003|13=2|14=50|17=61|20=0|21=2|22=4|30=N|31=1.3723|32=50|37=TBX71090117|38=1000|39=1|40=2|44=1.3723|48=GB00B16GWD56|54=3|55=VOD|58=PARTIAL FILL|59=0|60=20090120-16:06:59|76=BMTB|150=1|151=950|167=CS|207=LN|10=247|
8=FIX.4.2|9=0314|35=8|49=BLPDROP|56=MALBEC|34=84|52=20090120-16:07:05|50=BMTB|57=809063|30=N|60=20090120-16:07:05|150=1|1=TEST|31=83.55|151=600|32=50|6=83.55|37=TBX51090117|38=1000|39=1|40=2|11=20090120-00002|12=0.000003|13=2|14=400|44=83.55|76=BMTB|17=62|167=CS|48=459200101|20=0|21=2|22=1|54=1|55=IBM|207=US|58=PARTIAL FILL|59=0|10=149|
8=FIX.4.2|9=314|35=8|34=84|49=BLPDROP|50=BMTB|52=20090120-16:07:05|56=MALBEC|57=809063|1=TEST|6=83.55|11=20090120-00002|12=0.000003|13=2|14=400|17=62|20=0|21=2|22=1|30=N|31=83.55|32=50|37=TBX51090117|38=1000|39=1|40=2|44=83.55|48=459200101|54=1|55=IBM|58=PARTIAL FILL|59=0|60=20090120-16:07:05|76=BMTB|150=1|151=600|167=CS|207=US|10=101|
8=FIX.4.2|9=314|35=8|34=84|49=BLPDROP|50=BMTB|52=20090120-16:07:05|56=MALBEC|57=809063|1=TEST|6=83.55|11=20090120-00002|12=0.000003|13=2|14=400|17=62|20=0|21=2|22=1|30=N|31=83.55|32=50|37=TBX51090117|38=1000|39=1|40=2|44=83.55|48=459200101|54=1|55=IBM|58=PARTIAL FILL|59=0|60=20090120-16:07:05|76=BMTB|150=1|151=600|167=CS|207=US|10=101|
8=FIX.4.2|9=314|35=8|34=84|49=BLPDROP|50=BMTB|52=20090120-16:07:05|56=MALBEC|57=809063|1=TEST|6=83.55|11=20090120-00002|12=0.000003|13=2|14=400|17=62|20=0|21=2|22=1|30=N|31=83.55|32=50|37=TBX51090117|38=1000|39=1|40=2|44=83.55|48=459200101|54=1|55=IBM|58=PARTIAL FILL|59=0|60=20090120-16:07:05|76=BMTB|150=1|151=600|167=CS|207=US|10=101|
8=FIX.4.2|9=314|35=8|34=84|49=BLPDROP|50=BMTB|52=20090120-16:07:05|56=MALBEC|57=809063|1=TEST|6=83.55|11=20090120-00002|12=0.000003|13=2|14=400|17=62|20=0|21=2|22=1|30=N|31=83.55|32=50|37=TBX51090117|38=1000|39=1|40=2|44=83.55|48=459200101|54=1|55=IBM|58=PARTIAL FILL|59=0|60=20090120-16:07:05|76=BMTB|150=1|151=600|167=CS|207=US|10=101|
8=FIX.4.2|9=0320|35=8|49=BLPDROP|56=MALBEC|34=85|52=20090120-16:07:14|50=BMTB|57=809063|30=N|60=20090120-16:07:14|150=1|1=TEST|31=1.3723|151=900|32=50|6=1.3723|37=TBX71090117|38=1000|39=1|40=2|11=20090120-00004|12=0.000003|13=2|14=100|44=1.3723|76=BMTB|17=63|167=CS|48=GB00B16GWD56|20=0|21=2|22=4|54=3|55=VOD|207=LN|58=PARTIAL FILL|59=0|10=058|
8=FIX.4.2|9=320|35=8|34=85|49=BLPDROP|50=BMTB|52=20090120-16:07:14|56=MALBEC|57=809063|1=TEST|6=1.3723|11=20090120-00004|12=0.000003|13=2|14=100|17=63|20=0|21=2|22=4|30=N|31=1.3723|32=50|37=TBX71090117|38=1000|39=1|40=2|44=1.3723|48=GB00B16GWD56|54=3|55=VOD|58=PARTIAL FILL|59=0|60=20090120-16:07:14|76=BMTB|150=1|151=900|167=CS|207=LN|10=010|
8=FIX.4.2|9=320|35=8|34=85|49=BLPDROP|50=BMTB|52=20090120-16:07:14|56=MALBEC|57=809063|1=TEST|6=1.3723|11=20090120-00004|12=0.000003|13=2|14=100|17=63|20=0|21=2|22=4|30=N|31=1.3723|32=50|37=TBX71090117|38=1000|39=1|40=2|44=1.3723|48=GB00B16GWD56|54=3|55=VOD|58=PARTIAL FILL|59=0|60=20090120-16:07:14|76=BMTB|150=1|151=900|167=CS|207=LN|10=010|
8=FIX.4.2|9=320|35=8|34=85|49=BLPDROP|50=BMTB|52=20090120-16:07:14|56=MALBEC|57=809063|1=TEST|6=1.3723|11=20090120-00004|12=0.000003|13=2|14=100|17=63|20=0|21=2|22=4|30=N|31=1.3723|32=50|37=TBX71090117|38=1000|39=1|40=2|44=1.3723|48=GB00B16GWD56|54=3|55=VOD|58=PARTIAL FILL|59=0|60=20090120-16:07:14|76=BMTB|150=1|151=900|167=CS|207=LN|10=010|
8=FIX.4.2|9=320|35=8|34=85|49=BLPDROP|50=BMTB|52=20090120-16:07:14|56=MALBEC|57=809063|1=TEST|6=1.3723|11=20090120-00004|12=0.000003|13=2|14=100|17=63|20=0|21=2|22=4|30=N|31=1.3723|32=50|37=TBX71090117|38=1000|39=1|40=2|44=1.3723|48=GB00B16GWD56|54=3|55=VOD|58=PARTIAL FILL|59=0|60=20090120-16:07:14|76=BMTB|150=1|151=900|167=CS|207=LN|10=010|
8=FIX.4.2|9=0314|35=8|49=BLPDROP|56=MALBEC|34=86|52=20090120-16:07:20|50=BMTB|57=809063|30=N|60=20090120-16:07:20|150=1|1=TEST|31=83.55|151=550|32=50|6=83.55|37=TBX51090117|38=1000|39=1|40=2|11=20090120-00002|12=0.000003|13=2|14=450|44=83.55|76=BMTB|17=64|167=CS|48=459200101|20=0|21=2|22=1|54=1|55=IBM|207=US|58=PARTIAL FILL|59=0|10=156|
8=FIX.4.2|9=314|35=8|34=86|49=BLPDROP|50=BMTB|52=20090120-16:07:20|56=MALBEC|57=809063|1=TEST|6=83.55|11=20090120-00002|12=0.000003|13=2|14=450|17=64|20=0|21=2|22=1|30=N|31=83.55|32=50|37=TBX51090117|38=1000|39=1|40=2|44=83.55|48=459200101|54=1|55=IBM|58=PARTIAL FILL|59=0|60=20090120-16:07:20|76=BMTB|150=1|151=550|167=CS|207=US|10=108|
8=FIX.4.2|9=314|35=8|34=86|49=BLPDROP|50=BMTB|52=20090120-16:07:20|56=MALBEC|57=809063|1=TEST|6=83.55|11=20090120-00002|12=0.000003|13=2|14=450|17=64|20=0|21=2|22=1|30=N|31=83.55|32=50|37=TBX51090117|38=1000|39=1|40=2|44=83.55|48=459200101|54=1|55=IBM|58=PARTIAL FILL|59=0|60=20090120-16:07:20|76=BMTB|150=1|151=550|167=CS|207=US|10=108|
8=FIX.4.2|9=314|35=8|34=86|49=BLPDROP|50=BMTB|52=20090120-16:07:20|56=MALBEC|57=809063|1=TEST|6=83.55|11=20090120-00002|12=0.000003|13=2|14=450|17=64|20=0|21=2|22=1|30=N|31=83.55|32=50|37=TBX51090117|38=1000|39=1|40=2|44=83.55|48=459200101|54=1|55=IBM|58=PARTIAL FILL|59=0|60=20090120-16:07:20|76=BMTB|150=1|151=550|167=CS|207=US|10=108|
8=FIX.4.2|9=314|35=8|34=86|49=BLPDROP|50=BMTB|52=20090120-16:07:20|56=MALBEC|57=809063|1=TEST|6=83.55|11=20090120-00002|12=0.000003|13=2|14=450|17=64|20=0|21=2|22=1|30=N|31=83.55|32=50|37=TBX51090117|38=1000|39=1|40=2|44=83.55|48=459200101|54=1|55=IBM|58=PARTIAL FILL|59=0|60=20090120-16:07:20|76=BMTB|150=1|151=550|167=CS|207=US|10=108|
8=FIX.4.2|9=0320|35=8|49=BLPDROP|56=MALBEC|34=87|52=20090120-16:07:29|50=BMTB|57=809063|30=N|60=20090120-16:07:29|150=1|1=TEST|31=1.3723|151=850|32=50|6=1.3723|37=TBX71090117|38=1000|39=1|40=2|11=20090120-00004|12=0.000003|13=2|14=150|44=1.3723|76=BMTB|17=65|167=CS|48=GB00B16GWD56|20=0|21=2|22=4|54=3|55=VOD|207=LN|58=PARTIAL FILL|59=0|10=083|
8=FIX.4.2|9=320|35=8|34=87|49=BLPDROP|50=BMTB|52=20090120-16:07:29|56=MALBEC|57=809063|1=TEST|6=1.3723|11=20090120-00004|12=0.000003|13=2|14=150|17=65|20=0|21=2|22=4|30=N|31=1.3723|32=50|37=TBX71090117|38=1000|39=1|40=2|44=1.3723|48=GB00B16GWD56|54=3|55=VOD|58=PARTIAL FILL|59=0|60=20090120-16:07:29|76=BMTB|150=1|151=850|167=CS|207=LN|10=035|
8=FIX.4.2|9=320|35=8|34=87|49=BLPDROP|50=BMTB|52=20090120-16:07:29|56=MALBEC|57=809063|1=TEST|6=1.3723|11=20090120-00004|12=0.000003|13=2|14=150|17=65|20=0|21=2|22=4|30=N|31=1.3723|32=50|37=TBX71090117|38=1000|39=1|40=2|44=1.3723|48=GB00B16GWD56|54=3|55=VOD|58=PARTIAL FILL|59=0|60=20090120-16:07:29|76=BMTB|150=1|151=850|167=CS|207=LN|10=035|
8=FIX.4.2|9=320|35=8|34=87|49=BLPDROP|50=BMTB|52=20090120-16:07:29|56=MALBEC|57=809063|1=TEST|6=1.3723|11=20090120-00004|12=0.000003|13=2|14=150|17=65|20=0|21=2|22=4|30=N|31=1.3723|32=50|37=TBX71090117|38=1000|39=1|40=2|44=1.3723|48=GB00B16GWD56|54=3|55=VOD|58=PARTIAL FILL|59=0|60=20090120-16:07:29|76=BMTB|150=1|151=850|167=CS|207=LN|10=035|
8=FIX.4.2|9=320|35=8|34=87|49=BLPDROP|50=BMTB|52=20090120-16:07:29|56=MALBEC|57=809063|1=TEST|6=1.3723|11=20090120-00004|12=0.000003|13=2|14=150|17=65|20=0|21=2|22=4|30=N|31=1.3723|32=50|37=TBX71090117|38=1000|39=1|40=2|44=1.3723|48=GB00B16GWD56|54=3|55=VOD|58=PARTIAL FILL|59=0|60=20090120-16:07:29|76=BMTB|150=1|151=850|167=CS|207=LN|10=035|
8=FIX.4.2|9=0314|35=8|49=BLPDROP|56=MALBEC|34=88|52=20090120-16:07:35|50=BMTB|57=809063|30=N|60=20090120-16:07:35|150=1|1=TEST|31=83.55|151=500|32=50|6=83.55|37=TBX51090117|38=1000|39=1|40=2|11=20090120-00002|12=0.000003|13=2|14=500|44=83.55|76=BMTB|17=66|167=CS|48=459200101|20=0|21=2|22=1|54=1|55=IBM|207=US|58=PARTIAL FILL|59=0|10=163|
8=FIX.4.2|9=314|35=8|34=88|49=BLPDROP|50=BMTB|52=20090120-16:07:35|56=MALBEC|57=809063|1=TEST|6=83.55|11=20090120-00002|12=0.000003|13=2|14=500|17=66|20=0|21=2|22=1|30=N|31=83.55|32=50|37=TBX51090117|38=1000|39=1|40=2|44=83.55|48=459200101|54=1|55=IBM|58=PARTIAL FILL|59=0|60=20090120-16:07:35|76=BMTB|150=1|151=500|167=CS|207=US|10=115|
8=FIX.4.2|9=314|35=8|34=88|49=BLPDROP|50=BMTB|52=20090120-16:07:35|56=MALBEC|57=809063|1=TEST|6=83.55|11=20090120-00002|12=0.000003|13=2|14=500|17=66|20=0|21=2|22=1|30=N|31=83.55|32=50|37=TBX51090117|38=1000|39=1|40=2|44=83.55|48=459200101|54=1|55=IBM|58=PARTIAL FILL|59=0|60=20090120-16:07:35|76=BMTB|150=1|151=500|167=CS|207=US|10=115|
8=FIX.4.2|9=314|35=8|34=88|49=BLPDROP|50=BMTB|52=20090120-16:07:35|56=MALBEC|57=809063|1=TEST|6=83.55|11=20090120-00002|12=0.000003|13=2|14=500|17=66|20=0|21=2|22=1|30=N|31=83.55|32=50|37=TBX51090117|38=1000|39=1|40=2|44=83.55|48=459200101|54=1|55=IBM|58=PARTIAL FILL|59=0|60=20090120-16:07:35|76=BMTB|150=1|151=500|167=CS|207=US|10=115|
8=FIX.4.2|9=314|35=8|34=88|49=BLPDROP|50=BMTB|52=20090120-16:07:35|56=MALBEC|57=809063|1=TEST|6=83.55|11=20090120-00002|12=0.000003|13=2|14=500|17=66|20=0|21=2|22=1|30=N|31=83.55|32=50|37=TBX51090117|38=1000|39=1|40=2|44=83.55|48=459200101|54=1|55=IBM|58=PARTIAL FILL|59=0|60=20090120-16:07:35|76=BMTB|150=1|151=500|167=CS|207=US|10=115|
8=FIX.4.2|9=0320|35=8|49=BLPDROP|56=MALBEC|34=89|52=20090120-16:07:44|50=BMTB|57=809063|30=N|60=20090120-16:07:44|150=1|1=TEST|31=1.3723|151=800|32=50|6=1.3723|37=TBX71090117|38=1000|39=1|40=2|11=20090120-00004|12=0.000003|13=2|14=200|44=1.3723|76=BMTB|17=67|167=CS|48=GB00B16GWD56|20=0|21=2|22=4|54=3|55=VOD|207=LN|58=PARTIAL FILL|59=0|10=072|
8=FIX.4.2|9=320|35=8|34=89|49=BLPDROP|50=BMTB|52=20090120-16:07:44|56=MALBEC|57=809063|1=TEST|6=1.3723|11=20090120-00004|12=0.000003|13=2|14=200|17=67|20=0|21=2|22=4|30=N|31=1.3723|32=50|37=TBX71090117|38=1000|39=1|40=2|44=1.3723|48=GB00B16GWD56|54=3|55=VOD|58=PARTIAL FILL|59=0|60=20090120-16:07:44|76=BMTB|150=1|151=800|167=CS|207=LN|10=024|
8=FIX.4.2|9=320|35=8|34=89|49=BLPDROP|50=BMTB|52=20090120-16:07:44|56=MALBEC|57=809063|1=TEST|6=1.3723|11=20090120-00004|12=0.000003|13=2|14=200|17=67|20=0|21=2|22=4|30=N|31=1.3723|32=50|37=TBX71090117|38=1000|39=1|40=2|44=1.3723|48=GB00B16GWD56|54=3|55=VOD|58=PARTIAL FILL|59=0|60=20090120-16:07:44|76=BMTB|150=1|151=800|167=CS|207=LN|10=024|
8=FIX.4.2|9=320|35=8|34=89|49=BLPDROP|50=BMTB|52=20090120-16:07:44|56=MALBEC|57=809063|1=TEST|6=1.3723|11=20090120-00004|12=0.000003|13=2|14=200|17=67|20=0|21=2|22=4|30=N|31=1.3723|32=50|37=TBX71090117|38=1000|39=1|40=2|44=1.3723|48=GB00B16GWD56|54=3|55=VOD|58=PARTIAL FILL|59=0|60=20090120-16:07:44|76=BMTB|150=1|151=800|167=CS|207=LN|10=024|
8=FIX.4.2|9=320|35=8|34=89|49=BLPDROP|50=BMTB|52=20090120-16:07:44|56=MALBEC|57=809063|1=TEST|6=1.3723|11=20090120-00004|12=0.000003|13=2|14=200|17=67|20=0|21=2|22=4|30=N|31=1.3723|32=50|37=TBX71090117|38=1000|39=1|40=2|44=1.3723|48=GB00B16GWD56|54=3|55=VOD|58=PARTIAL FILL|59=0|60=20090120-16:07:44|76=BMTB|150=1|151=800|167=CS|207=LN|10=024|
8=FIX.4.2|9=0314|35=8|49=BLPDROP|56=MALBEC|34=90|52=20090120-16:07:50|50=BMTB|57=809063|30=N|60=20090120-16:07:50|150=1|1=TEST|31=83.55|151=450|32=50|6=83.55|37=TBX51090117|38=1000|39=1|40=2|11=20090120-00002|12=0.000003|13=2|14=550|44=83.55|76=BMTB|17=68|167=CS|48=459200101|20=0|21=2|22=1|54=1|55=IBM|207=US|58=PARTIAL FILL|59=0|10=161|
8=FIX.4.2|9=314|35=8|34=90|49=BLPDROP|50=BMTB|52=20090120-16:07:50|56=MALBEC|57=809063|1=TEST|6=83.55|11=20090120-00002|12=0.000003|13=2|14=550|17=68|20=0|21=2|22=1|30=N|31=83.55|32=50|37=TBX51090117|38=1000|39=1|40=2|44=83.55|48=459200101|54=1|55=IBM|58=PARTIAL FILL|59=0|60=20090120-16:07:50|76=BMTB|150=1|151=450|167=CS|207=US|10=113|
8=FIX.4.2|9=314|35=8|34=90|49=BLPDROP|50=BMTB|52=20090120-16:07:50|56=MALBEC|57=809063|1=TEST|6=83.55|11=20090120-00002|12=0.000003|13=2|14=550|17=68|20=0|21=2|22=1|30=N|31=83.55|32=50|37=TBX51090117|38=1000|39=1|40=2|44=83.55|48=459200101|54=1|55=IBM|58=PARTIAL FILL|59=0|60=20090120-16:07:50|76=BMTB|150=1|151=450|167=CS|207=US|10=113|
8=FIX.4.2|9=314|35=8|34=90|49=BLPDROP|50=BMTB|52=20090120-16:07:50|56=MALBEC|57=809063|1=TEST|6=83.55|11=20090120-00002|12=0.000003|13=2|14=550|17=68|20=0|21=2|22=1|30=N|31=83.55|32=50|37=TBX51090117|38=1000|39=1|40=2|44=83.55|48=459200101|54=1|55=IBM|58=PARTIAL FILL|59=0|60=20090120-16:07:50|76=BMTB|150=1|151=450|167=CS|207=US|10=113|
8=FIX.4.2|9=314|35=8|34=90|49=BLPDROP|50=BMTB|52=20090120-16:07:50|56=MALBEC|57=809063|1=TEST|6=83.55|11=20090120-00002|12=0.000003|13=2|14=550|17=68|20=0|21=2|22=1|30=N|31=83.55|32=50|37=TBX51090117|38=1000|39=1|40=2|44=83.55|48=459200101|54=1|55=IBM|58=PARTIAL FILL|59=0|60=20090120-16:07:50|76=BMTB|150=1|151=450|167=CS|207=US|10=113|
8=FIX.4.2|9=0320|35=8|49=BLPDROP|56=MALBEC|34=91|52=20090120-16:07:59|50=BMTB|57=809063|30=N|60=20090120-16:07:59|150=1|1=TEST|31=1.3723|151=750|32=50|6=1.3723|37=TBX71090117|38=1000|39=1|40=2|11=20090120-00004|12=0.000003|13=2|14=250|44=1.3723|76=BMTB|17=69|167=CS|48=GB00B16GWD56|20=0|21=2|22=4|54=3|55=VOD|207=LN|58=PARTIAL FILL|59=0|10=088|
8=FIX.4.2|9=320|35=8|34=91|49=BLPDROP|50=BMTB|52=20090120-16:07:59|56=MALBEC|57=809063|1=TEST|6=1.3723|11=20090120-00004|12=0.000003|13=2|14=250|17=69|20=0|21=2|22=4|30=N|31=1.3723|32=50|37=TBX71090117|38=1000|39=1|40=2|44=1.3723|48=GB00B16GWD56|54=3|55=VOD|58=PARTIAL FILL|59=0|60=20090120-16:07:59|76=BMTB|150=1|151=750|167=CS|207=LN|10=040|
8=FIX.4.2|9=320|35=8|34=91|49=BLPDROP|50=BMTB|52=20090120-16:07:59|56=MALBEC|57=809063|1=TEST|6=1.3723|11=20090120-00004|12=0.000003|13=2|14=250|17=69|20=0|21=2|22=4|30=N|31=1.3723|32=50|37=TBX71090117|38=1000|39=1|40=2|44=1.3723|48=GB00B16GWD56|54=3|55=VOD|58=PARTIAL FILL|59=0|60=20090120-16:07:59|76=BMTB|150=1|151=750|167=CS|207=LN|10=040|
8=FIX.4.2|9=320|35=8|34=91|49=BLPDROP|50=BMTB|52=20090120-16:07:59|56=MALBEC|57=809063|1=TEST|6=1.3723|11=20090120-00004|12=0.000003|13=2|14=250|17=69|20=0|21=2|22=4|30=N|31=1.3723|32=50|37=TBX71090117|38=1000|39=1|40=2|44=1.3723|48=GB00B16GWD56|54=3|55=VOD|58=PARTIAL FILL|59=0|60=20090120-16:07:59|76=BMTB|150=1|151=750|167=CS|207=LN|10=040|
8=FIX.4.2|9=320|35=8|34=91|49=BLPDROP|50=BMTB|52=20090120-16:07:59|56=MALBEC|57=809063|1=TEST|6=1.3723|11=20090120-00004|12=0.000003|13=2|14=250|17=69|20=0|21=2|22=4|30=N|31=1.3723|32=50|37=TBX71090117|38=1000|39=1|40=2|44=1.3723|48=GB00B16GWD56|54=3|55=VOD|58=PARTIAL FILL|59=0|60=20090120-16:07:59|76=BMTB|150=1|151=750|167=CS|207=LN|10=040|
8=FIX.4.2|9=0314|35=8|49=BLPDROP|56=MALBEC|34=92|52=20090120-16:08:05|50=BMTB|57=809063|30=N|60=20090120-16:08:05|150=1|1=TEST|31=83.55|151=400|32=50|6=83.55|37=TBX51090117|38=1000|39=1|40=2|11=20090120-00002|12=0.000003|13=2|14=600|44=83.55|76=BMTB|17=70|167=CS|48=459200101|20=0|21=2|22=1|54=1|55=IBM|207=US|58=PARTIAL FILL|59=0|10=149|
8=FIX.4.2|9=314|35=8|34=92|49=BLPDROP|50=BMTB|52=20090120-16:08:05|56=MALBEC|57=809063|1=TEST|6=83.55|11=20090120-00002|12=0.000003|13=2|14=600|17=70|20=0|21=2|22=1|30=N|31=83.55|32=50|37=TBX51090117|38=1000|39=1|40=2|44=83.55|48=459200101|54=1|55=IBM|58=PARTIAL FILL|59=0|60=20090120-16:08:05|76=BMTB|150=1|151=400|167=CS|207=US|10=101|
8=FIX.4.2|9=314|35=8|34=92|49=BLPDROP|50=BMTB|52=20090120-16:08:05|56=MALBEC|57=809063|1=TEST|6=83.55|11=20090120-00002|12=0.000003|13=2|14=600|17=70|20=0|21=2|22=1|30=N|31=83.55|32=50|37=TBX51090117|38=1000|39=1|40=2|44=83.55|48=459200101|54=1|55=IBM|58=PARTIAL FILL|59=0|60=20090120-16:08:05|76=BMTB|150=1|151=400|167=CS|207=US|10=101|
8=FIX.4.2|9=314|35=8|34=92|49=BLPDROP|50=BMTB|52=20090120-16:08:05|56=MALBEC|57=809063|1=TEST|6=83.55|11=20090120-00002|12=0.000003|13=2|14=600|17=70|20=0|21=2|22=1|30=N|31=83.55|32=50|37=TBX51090117|38=1000|39=1|40=2|44=83.55|48=459200101|54=1|55=IBM|58=PARTIAL FILL|59=0|60=20090120-16:08:05|76=BMTB|150=1|151=400|167=CS|207=US|10=101|
8=FIX.4.2|9=314|35=8|34=92|49=BLPDROP|50=BMTB|52=20090120-16:08:05|56=MALBEC|57=809063|1=TEST|6=83.55|11=20090120-00002|12=0.000003|13=2|14=600|17=70|20=0|21=2|22=1|30=N|31=83.55|32=50|37=TBX51090117|38=1000|39=1|40=2|44=83.55|48=459200101|54=1|55=IBM|58=PARTIAL FILL|59=0|60=20090120-16:08:05|76=BMTB|150=1|151=400|167=CS|207=US|10=101|
8=FIX.4.2|9=0320|35=8|49=BLPDROP|56=MALBEC|34=93|52=20090120-16:08:14|50=BMTB|57=809063|30=N|60=20090120-16:08:14|150=1|1=TEST|31=1.3723|151=700|32=50|6=1.3723|37=TBX71090117|38=1000|39=1|40=2|11=20090120-00004|12=0.000003|13=2|14=300|44=1.3723|76=BMTB|17=71|167=CS|48=GB00B16GWD56|20=0|21=2|22=4|54=3|55=VOD|207=LN|58=PARTIAL FILL|59=0|10=058|
8=FIX.4.2|9=320|35=8|34=93|49=BLPDROP|50=BMTB|52=20090120-16:08:14|56=MALBEC|57=809063|1=TEST|6=1.3723|11=20090120-00004|12=0.000003|13=2|14=300|17=71|20=0|21=2|22=4|30=N|31=1.3723|32=50|37=TBX71090117|38=1000|39=1|40=2|44=1.3723|48=GB00B16GWD56|54=3|55=VOD|58=PARTIAL FILL|59=0|60=20090120-16:08:14|76=BMTB|150=1|151=700|167=CS|207=LN|10=010|
8=FIX.4.2|9=320|35=8|34=93|49=BLPDROP|50=BMTB|52=20090120-16:08:14|56=MALBEC|57=809063|1=TEST|6=1.3723|11=20090120-00004|12=0.000003|13=2|14=300|17=71|20=0|21=2|22=4|30=N|31=1.3723|32=50|37=TBX71090117|38=1000|39=1|40=2|44=1.3723|48=GB00B16GWD56|54=3|55=VOD|58=PARTIAL FILL|59=0|60=20090120-16:08:14|76=BMTB|150=1|151=700|167=CS|207=LN|10=010|
8=FIX.4.2|9=320|35=8|34=93|49=BLPDROP|50=BMTB|52=20090120-16:08:14|56=MALBEC|57=809063|1=TEST|6=1.3723|11=20090120-00004|12=0.000003|13=2|14=300|17=71|20=0|21=2|22=4|30=N|31=1.3723|32=50|37=TBX71090117|38=1000|39=1|40=2|44=1.3723|48=GB00B16GWD56|54=3|55=VOD|58=PARTIAL FILL|59=0|60=20090120-16:08:14|76=BMTB|150=1|151=700|167=CS|207=LN|10=010|
8=FIX.4.2|9=320|35=8|34=93|49=BLPDROP|50=BMTB|52=20090120-16:08:14|56=MALBEC|57=809063|1=TEST|6=1.3723|11=20090120-00004|12=0.000003|13=2|14=300|17=71|20=0|21=2|22=4|30=N|31=1.3723|32=50|37=TBX71090117|38=1000|39=1|40=2|44=1.3723|48=GB00B16GWD56|54=3|55=VOD|58=PARTIAL FILL|59=0|60=20090120-16:08:14|76=BMTB|150=1|151=700|167=CS|207=LN|10=010|
8=FIX.4.2|9=0314|35=8|49=BLPDROP|56=MALBEC|34=94|52=20090120-16:08:20|50=BMTB|57=809063|30=N|60=20090120-16:08:20|150=1|1=TEST|31=83.55|151=350|32=50|6=83.55|37=TBX51090117|38=1000|39=1|40=2|11=20090120-00002|12=0.000003|13=2|14=650|44=83.55|76=BMTB|17=72|167=CS|48=459200101|20=0|21=2|22=1|54=1|55=IBM|207=US|58=PARTIAL FILL|59=0|10=156|
8=FIX.4.2|9=314|35=8|34=94|49=BLPDROP|50=BMTB|52=20090120-16:08:20|56=MALBEC|57=809063|1=TEST|6=83.55|11=20090120-00002|12=0.000003|13=2|14=650|17=72|20=0|21=2|22=1|30=N|31=83.55|32=50|37=TBX51090117|38=1000|39=1|40=2|44=83.55|48=459200101|54=1|55=IBM|58=PARTIAL FILL|59=0|60=20090120-16:08:20|76=BMTB|150=1|151=350|167=CS|207=US|10=108|
8=FIX.4.2|9=314|35=8|34=94|49=BLPDROP|50=BMTB|52=20090120-16:08:20|56=MALBEC|57=809063|1=TEST|6=83.55|11=20090120-00002|12=0.000003|13=2|14=650|17=72|20=0|21=2|22=1|30=N|31=83.55|32=50|37=TBX51090117|38=1000|39=1|40=2|44=83.55|48=459200101|54=1|55=IBM|58=PARTIAL FILL|59=0|60=20090120-16:08:20|76=BMTB|150=1|151=350|167=CS|207=US|10=108|
8=FIX.4.2|9=314|35=8|34=94|49=BLPDROP|50=BMTB|52=20090120-16:08:20|56=MALBEC|57=809063|1=TEST|6=83.55|11=20090120-00002|12=0.000003|13=2|14=650|17=72|20=0|21=2|22=1|30=N|31=83.55|32=50|37=TBX51090117|38=1000|39=1|40=2|44=83.55|48=459200101|54=1|55=IBM|58=PARTIAL FILL|59=0|60=20090120-16:08:20|76=BMTB|150=1|151=350|167=CS|207=US|10=108|
8=FIX.4.2|9=314|35=8|34=94|49=BLPDROP|50=BMTB|52=20090120-16:08:20|56=MALBEC|57=809063|1=TEST|6=83.55|11=20090120-00002|12=0.000003|13=2|14=650|17=72|20=0|21=2|22=1|30=N|31=83.55|32=50|37=TBX51090117|38=1000|39=1|40=2|44=83.55|48=459200101|54=1|55=IBM|58=PARTIAL FILL|59=0|60=20090120-16:08:20|76=BMTB|150=1|151=350|167=CS|207=US|10=108|
8=FIX.4.2|9=0320|35=8|49=BLPDROP|56=MALBEC|34=95|52=20090120-16:08:29|50=BMTB|57=809063|30=N|60=20090120-16:08:29|150=1|1=TEST|31=1.3723|151=650|32=50|6=1.3723|37=TBX71090117|38=1000|39=1|40=2|11=20090120-00004|12=0.000003|13=2|14=350|44=1.3723|76=BMTB|17=73|167=CS|48=GB00B16GWD56|20=0|21=2|22=4|54=3|55=VOD|207=LN|58=PARTIAL FILL|59=0|10=083|
8=FIX.4.2|9=320|35=8|34=95|49=BLPDROP|50=BMTB|52=20090120-16:08:29|56=MALBEC|57=809063|1=TEST|6=1.3723|11=20090120-00004|12=0.000003|13=2|14=350|17=73|20=0|21=2|22=4|30=N|31=1.3723|32=50|37=TBX71090117|38=1000|39=1|40=2|44=1.3723|48=GB00B16GWD56|54=3|55=VOD|58=PARTIAL FILL|59=0|60=20090120-16:08:29|76=BMTB|150=1|151=650|167=CS|207=LN|10=035|
8=FIX.4.2|9=320|35=8|34=95|49=BLPDROP|50=BMTB|52=20090120-16:08:29|56=MALBEC|57=809063|1=TEST|6=1.3723|11=20090120-00004|12=0.000003|13=2|14=350|17=73|20=0|21=2|22=4|30=N|31=1.3723|32=50|37=TBX71090117|38=1000|39=1|40=2|44=1.3723|48=GB00B16GWD56|54=3|55=VOD|58=PARTIAL FILL|59=0|60=20090120-16:08:29|76=BMTB|150=1|151=650|167=CS|207=LN|10=035|
8=FIX.4.2|9=320|35=8|34=95|49=BLPDROP|50=BMTB|52=20090120-16:08:29|56=MALBEC|57=809063|1=TEST|6=1.3723|11=20090120-00004|12=0.000003|13=2|14=350|17=73|20=0|21=2|22=4|30=N|31=1.3723|32=50|37=TBX71090117|38=1000|39=1|40=2|44=1.3723|48=GB00B16GWD56|54=3|55=VOD|58=PARTIAL FILL|59=0|60=20090120-16:08:29|76=BMTB|150=1|151=650|167=CS|207=LN|10=035|
8=FIX.4.2|9=320|35=8|34=95|49=BLPDROP|50=BMTB|52=20090120-16:08:29|56=MALBEC|57=809063|1=TEST|6=1.3723|11=20090120-00004|12=0.000003|13=2|14=350|17=73|20=0|21=2|22=4|30=N|31=1.3723|32=50|37=TBX71090117|38=1000|39=1|40=2|44=1.3723|48=GB00B16GWD56|54=3|55=VOD|58=PARTIAL FILL|59=0|60=20090120-16:08:29|76=BMTB|150=1|151=650|167=CS|207=LN|10=035|
8=FIX.4.2|9=0314|35=8|49=BLPDROP|56=MALBEC|34=96|52=20090120-16:08:35|50=BMTB|57=809063|30=N|60=20090120-16:08:35|150=1|1=TEST|31=83.55|151=300|32=50|6=83.55|37=TBX51090117|38=1000|39=1|40=2|11=20090120-00002|12=0.000003|13=2|14=700|44=83.55|76=BMTB|17=74|167=CS|48=459200101|20=0|21=2|22=1|54=1|55=IBM|207=US|58=PARTIAL FILL|59=0|10=163|
8=FIX.4.2|9=314|35=8|34=96|49=BLPDROP|50=BMTB|52=20090120-16:08:35|56=MALBEC|57=809063|1=TEST|6=83.55|11=20090120-00002|12=0.000003|13=2|14=700|17=74|20=0|21=2|22=1|30=N|31=83.55|32=50|37=TBX51090117|38=1000|39=1|40=2|44=83.55|48=459200101|54=1|55=IBM|58=PARTIAL FILL|59=0|60=20090120-16:08:35|76=BMTB|150=1|151=300|167=CS|207=US|10=115|
8=FIX.4.2|9=314|35=8|34=96|49=BLPDROP|50=BMTB|52=20090120-16:08:35|56=MALBEC|57=809063|1=TEST|6=83.55|11=20090120-00002|12=0.000003|13=2|14=700|17=74|20=0|21=2|22=1|30=N|31=83.55|32=50|37=TBX51090117|38=1000|39=1|40=2|44=83.55|48=459200101|54=1|55=IBM|58=PARTIAL FILL|59=0|60=20090120-16:08:35|76=BMTB|150=1|151=300|167=CS|207=US|10=115|
8=FIX.4.2|9=314|35=8|34=96|49=BLPDROP|50=BMTB|52=20090120-16:08:35|56=MALBEC|57=809063|1=TEST|6=83.55|11=20090120-00002|12=0.000003|13=2|14=700|17=74|20=0|21=2|22=1|30=N|31=83.55|32=50|37=TBX51090117|38=1000|39=1|40=2|44=83.55|48=459200101|54=1|55=IBM|58=PARTIAL FILL|59=0|60=20090120-16:08:35|76=BMTB|150=1|151=300|167=CS|207=US|10=115|
8=FIX.4.2|9=314|35=8|34=96|49=BLPDROP|50=BMTB|52=20090120-16:08:35|56=MALBEC|57=809063|1=TEST|6=83.55|11=20090120-00002|12=0.000003|13=2|14=700|17=74|20=0|21=2|22=1|30=N|31=83.55|32=50|37=TBX51090117|38=1000|39=1|40=2|44=83.55|48=459200101|54=1|55=IBM|58=PARTIAL FILL|59=0|60=20090120-16:08:35|76=BMTB|150=1|151=300|167=CS|207=US|10=115|
8=FIX.4.2|9=0320|35=8|49=BLPDROP|56=MALBEC|34=97|52=20090120-16:08:44|50=BMTB|57=809063|30=N|60=20090120-16:08:44|150=1|1=TEST|31=1.3723|151=600|32=50|6=1.3723|37=TBX71090117|38=1000|39=1|40=2|11=20090120-00004|12=0.000003|13=2|14=400|44=1.3723|76=BMTB|17=75|167=CS|48=GB00B16GWD56|20=0|21=2|22=4|54=3|55=VOD|207=LN|58=PARTIAL FILL|59=0|10=072|
8=FIX.4.2|9=320|35=8|34=97|49=BLPDROP|50=BMTB|52=20090120-16:08:44|56=MALBEC|57=809063|1=TEST|6=1.3723|11=20090120-00004|12=0.000003|13=2|14=400|17=75|20=0|21=2|22=4|30=N|31=1.3723|32=50|37=TBX71090117|38=1000|39=1|40=2|44=1.3723|48=GB00B16GWD56|54=3|55=VOD|58=PARTIAL FILL|59=0|60=20090120-16:08:44|76=BMTB|150=1|151=600|167=CS|207=LN|10=024|
8=FIX.4.2|9=320|35=8|34=97|49=BLPDROP|50=BMTB|52=20090120-16:08:44|56=MALBEC|57=809063|1=TEST|6=1.3723|11=20090120-00004|12=0.000003|13=2|14=400|17=75|20=0|21=2|22=4|30=N|31=1.3723|32=50|37=TBX71090117|38=1000|39=1|40=2|44=1.3723|48=GB00B16GWD56|54=3|55=VOD|58=PARTIAL FILL|59=0|60=20090120-16:08:44|76=BMTB|150=1|151=600|167=CS|207=LN|10=024|
8=FIX.4.2|9=320|35=8|34=97|49=BLPDROP|50=BMTB|52=20090120-16:08:44|56=MALBEC|57=809063|1=TEST|6=1.3723|11=20090120-00004|12=0.000003|13=2|14=400|17=75|20=0|21=2|22=4|30=N|31=1.3723|32=50|37=TBX71090117|38=1000|39=1|40=2|44=1.3723|48=GB00B16GWD56|54=3|55=VOD|58=PARTIAL FILL|59=0|60=20090120-16:08:44|76=BMTB|150=1|151=600|167=CS|207=LN|10=024|
8=FIX.4.2|9=320|35=8|34=97|49=BLPDROP|50=BMTB|52=20090120-16:08:44|56=MALBEC|57=809063|1=TEST|6=1.3723|11=20090120-00004|12=0.000003|13=2|14=400|17=75|20=0|21=2|22=4|30=N|31=1.3723|32=50|37=TBX71090117|38=1000|39=1|40=2|44=1.3723|48=GB00B16GWD56|54=3|55=VOD|58=PARTIAL FILL|59=0|60=20090120-16:08:44|76=BMTB|150=1|151=600|167=CS|207=LN|10=024|
8=FIX.4.2|9=0314|35=8|49=BLPDROP|56=MALBEC|34=98|52=20090120-16:08:50|50=BMTB|57=809063|30=N|60=20090120-16:08:50|150=1|1=TEST|31=83.55|151=250|32=50|6=83.55|37=TBX51090117|38=1000|39=1|40=2|11=20090120-00002|12=0.000003|13=2|14=750|44=83.55|76=BMTB|17=76|167=CS|48=459200101|20=0|21=2|22=1|54=1|55=IBM|207=US|58=PARTIAL FILL|59=0|10=170|
8=FIX.4.2|9=314|35=8|34=98|49=BLPDROP|50=BMTB|52=20090120-16:08:50|56=MALBEC|57=809063|1=TEST|6=83.55|11=20090120-00002|12=0.000003|13=2|14=750|17=76|20=0|21=2|22=1|30=N|31=83.55|32=50|37=TBX51090117|38=1000|39=1|40=2|44=83.55|48=459200101|54=1|55=IBM|58=PARTIAL FILL|59=0|60=20090120-16:08:50|76=BMTB|150=1|151=250|167=CS|207=US|10=122|
8=FIX.4.2|9=314|35=8|34=98|49=BLPDROP|50=BMTB|52=20090120-16:08:50|56=MALBEC|57=809063|1=TEST|6=83.55|11=20090120-00002|12=0.000003|13=2|14=750|17=76|20=0|21=2|22=1|30=N|31=83.55|32=50|37=TBX51090117|38=1000|39=1|40=2|44=83.55|48=459200101|54=1|55=IBM|58=PARTIAL FILL|59=0|60=20090120-16:08:50|76=BMTB|150=1|151=250|167=CS|207=US|10=122|
8=FIX.4.2|9=314|35=8|34=98|49=BLPDROP|50=BMTB|52=20090120-16:08:50|56=MALBEC|57=809063|1=TEST|6=83.55|11=20090120-00002|12=0.000003|13=2|14=750|17=76|20=0|21=2|22=1|30=N|31=83.55|32=50|37=TBX51090117|38=1000|39=1|40=2|44=83.55|48=459200101|54=1|55=IBM|58=PARTIAL FILL|59=0|60=20090120-16:08:50|76=BMTB|150=1|151=250|167=CS|207=US|10=122|
8=FIX.4.2|9=314|35=8|34=98|49=BLPDROP|50=BMTB|52=20090120-16:08:50|56=MALBEC|57=809063|1=TEST|6=83.55|11=20090120-00002|12=0.000003|13=2|14=750|17=76|20=0|21=2|22=1|30=N|31=83.55|32=50|37=TBX51090117|38=1000|39=1|40=2|44=83.55|48=459200101|54=1|55=IBM|58=PARTIAL FILL|59=0|60=20090120-16:08:50|76=BMTB|150=1|151=250|167=CS|207=US|10=122|
8=FIX.4.2|9=0320|35=8|49=BLPDROP|56=MALBEC|34=99|52=20090120-16:08:59|50=BMTB|57=809063|30=N|60=20090120-16:08:59|150=1|1=TEST|31=1.3723|151=550|32=50|6=1.3723|37=TBX71090117|38=1000|39=1|40=2|11=20090120-00004|12=0.000003|13=2|14=450|44=1.3723|76=BMTB|17=77|167=CS|48=GB00B16GWD56|20=0|21=2|22=4|54=3|55=VOD|207=LN|58=PARTIAL FILL|59=0|10=097|
8=FIX.4.2|9=320|35=8|34=99|49=BLPDROP|50=BMTB|52=20090120-16:08:59|56=MALBEC|57=809063|1=TEST|6=1.3723|11=20090120-00004|12=0.000003|13=2|14=450|17=77|20=0|21=2|22=4|30=N|31=1.3723|32=50|37=TBX71090117|38=1000|39=1|40=2|44=1.3723|48=GB00B16GWD56|54=3|55=VOD|58=PARTIAL FILL|59=0|60=20090120-16:08:59|76=BMTB|150=1|151=550|167=CS|207=LN|10=049|
8=FIX.4.2|9=320|35=8|34=99|49=BLPDROP|50=BMTB|52=20090120-16:08:59|56=MALBEC|57=809063|1=TEST|6=1.3723|11=20090120-00004|12=0.000003|13=2|14=450|17=77|20=0|21=2|22=4|30=N|31=1.3723|32=50|37=TBX71090117|38=1000|39=1|40=2|44=1.3723|48=GB00B16GWD56|54=3|55=VOD|58=PARTIAL FILL|59=0|60=20090120-16:08:59|76=BMTB|150=1|151=550|167=CS|207=LN|10=049|
8=FIX.4.2|9=320|35=8|34=99|49=BLPDROP|50=BMTB|52=20090120-16:08:59|56=MALBEC|57=809063|1=TEST|6=1.3723|11=20090120-00004|12=0.000003|13=2|14=450|17=77|20=0|21=2|22=4|30=N|31=1.3723|32=50|37=TBX71090117|38=1000|39=1|40=2|44=1.3723|48=GB00B16GWD56|54=3|55=VOD|58=PARTIAL FILL|59=0|60=20090120-16:08:59|76=BMTB|150=1|151=550|167=CS|207=LN|10=049|
8=FIX.4.2|9=320|35=8|34=99|49=BLPDROP|50=BMTB|52=20090120-16:08:59|56=MALBEC|57=809063|1=TEST|6=1.3723|11=20090120-00004|12=0.000003|13=2|14=450|17=77|20=0|21=2|22=4|30=N|31=1.3723|32=50|37=TBX71090117|38=1000|39=1|40=2|44=1.3723|48=GB00B16GWD56|54=3|55=VOD|58=PARTIAL FILL|59=0|60=20090120-16:08:59|76=BMTB|150=1|151=550|167=CS|207=LN|10=049|
8=FIX.4.2|9=0315|35=8|49=BLPDROP|56=MALBEC|34=100|52=20090120-16:09:05|50=BMTB|57=809063|30=N|60=20090120-16:09:05|150=1|1=TEST|31=83.55|151=200|32=50|6=83.55|37=TBX51090117|38=1000|39=1|40=2|11=20090120-00002|12=0.000003|13=2|14=800|44=83.55|76=BMTB|17=78|167=CS|48=459200101|20=0|21=2|22=1|54=1|55=IBM|207=US|58=PARTIAL FILL|59=0|10=198|
8=FIX.4.2|9=315|35=8|34=100|49=BLPDROP|50=BMTB|52=20090120-16:09:05|56=MALBEC|57=809063|1=TEST|6=83.55|11=20090120-00002|12=0.000003|13=2|14=800|17=78|20=0|21=2|22=1|30=N|31=83.55|32=50|37=TBX51090117|38=1000|39=1|40=2|44=83.55|48=459200101|54=1|55=IBM|58=PARTIAL FILL|59=0|60=20090120-16:09:05|76=BMTB|150=1|151=200|167=CS|207=US|10=150|
8=FIX.4.2|9=315|35=8|34=100|49=BLPDROP|50=BMTB|52=20090120-16:09:05|56=MALBEC|57=809063|1=TEST|6=83.55|11=20090120-00002|12=0.000003|13=2|14=800|17=78|20=0|21=2|22=1|30=N|31=83.55|32=50|37=TBX51090117|38=1000|39=1|40=2|44=83.55|48=459200101|54=1|55=IBM|58=PARTIAL FILL|59=0|60=20090120-16:09:05|76=BMTB|150=1|151=200|167=CS|207=US|10=150|
8=FIX.4.2|9=315|35=8|34=100|49=BLPDROP|50=BMTB|52=20090120-16:09:05|56=MALBEC|57=809063|1=TEST|6=83.55|11=20090120-00002|12=0.000003|13=2|14=800|17=78|20=0|21=2|22=1|30=N|31=83.55|32=50|37=TBX51090117|38=1000|39=1|40=2|44=83.55|48=459200101|54=1|55=IBM|58=PARTIAL FILL|59=0|60=20090120-16:09:05|76=BMTB|150=1|151=200|167=CS|207=US|10=150|
8=FIX.4.2|9=315|35=8|34=100|49=BLPDROP|50=BMTB|52=20090120-16:09:05|56=MALBEC|57=809063|1=TEST|6=83.55|11=20090120-00002|12=0.000003|13=2|14=800|17=78|20=0|21=2|22=1|30=N|31=83.55|32=50|37=TBX51090117|38=1000|39=1|40=2|44=83.55|48=459200101|54=1|55=IBM|58=PARTIAL FILL|59=0|60=20090120-16:09:05|76=BMTB|150=1|151=200|167=CS|207=US|10=150|
8=FIX.4.2|9=0321|35=8|49=BLPDROP|56=MALBEC|34=101|52=20090120-16:09:14|50=BMTB|57=809063|30=N|60=20090120-16:09:14|150=1|1=TEST|31=1.3723|151=500|32=50|6=1.3723|37=TBX71090117|38=1000|39=1|40=2|11=20090120-00004|12=0.000003|13=2|14=500|44=1.3723|76=BMTB|17=79|167=CS|48=GB00B16GWD56|20=0|21=2|22=4|54=3|55=VOD|207=LN|58=PARTIAL FILL|59=0|10=107|
8=FIX.4.2|9=321|35=8|34=101|49=BLPDROP|50=BMTB|52=20090120-16:09:14|56=MALBEC|57=809063|1=TEST|6=1.3723|11=20090120-00004|12=0.000003|13=2|14=500|17=79|20=0|21=2|22=4|30=N|31=1.3723|32=50|37=TBX71090117|38=1000|39=1|40=2|44=1.3723|48=GB00B16GWD56|54=3|55=VOD|58=PARTIAL FILL|59=0|60=20090120-16:09:14|76=BMTB|150=1|151=500|167=CS|207=LN|10=059|
8=FIX.4.2|9=321|35=8|34=101|49=BLPDROP|50=BMTB|52=20090120-16:09:14|56=MALBEC|57=809063|1=TEST|6=1.3723|11=20090120-00004|12=0.000003|13=2|14=500|17=79|20=0|21=2|22=4|30=N|31=1.3723|32=50|37=TBX71090117|38=1000|39=1|40=2|44=1.3723|48=GB00B16GWD56|54=3|55=VOD|58=PARTIAL FILL|59=0|60=20090120-16:09:14|76=BMTB|150=1|151=500|167=CS|207=LN|10=059|
8=FIX.4.2|9=321|35=8|34=101|49=BLPDROP|50=BMTB|52=20090120-16:09:14|56=MALBEC|57=809063|1=TEST|6=1.3723|11=20090120-00004|12=0.000003|13=2|14=500|17=79|20=0|21=2|22=4|30=N|31=1.3723|32=50|37=TBX71090117|38=1000|39=1|40=2|44=1.3723|48=GB00B16GWD56|54=3|55=VOD|58=PARTIAL FILL|59=0|60=20090120-16:09:14|76=BMTB|150=1|151=500|167=CS|207=LN|10=059|
8=FIX.4.2|9=321|35=8|34=101|49=BLPDROP|50=BMTB|52=20090120-16:09:14|56=MALBEC|57=809063|1=TEST|6=1.3723|11=20090120-00004|12=0.000003|13=2|14=500|17=79|20=0|21=2|22=4|30=N|31=1.3723|32=50|37=TBX71090117|38=1000|39=1|40=2|44=1.3723|48=GB00B16GWD56|54=3|55=VOD|58=PARTIAL FILL|59=0|60=20090120-16:09:14|76=BMTB|150=1|151=500|167=CS|207=LN|10=059|
8=FIX.4.2|9=0315|35=8|49=BLPDROP|56=MALBEC|34=102|52=20090120-16:09:20|50=BMTB|57=809063|30=N|60=20090120-16:09:20|150=1|1=TEST|31=83.55|151=150|32=50|6=83.55|37=TBX51090117|38=1000|39=1|40=2|11=20090120-00002|12=0.000003|13=2|14=850|44=83.55|76=BMTB|17=80|167=CS|48=459200101|20=0|21=2|22=1|54=1|55=IBM|207=US|58=PARTIAL FILL|59=0|10=196|
8=FIX.4.2|9=315|35=8|34=102|49=BLPDROP|50=BMTB|52=20090120-16:09:20|56=MALBEC|57=809063|1=TEST|6=83.55|11=20090120-00002|12=0.000003|13=2|14=850|17=80|20=0|21=2|22=1|30=N|31=83.55|32=50|37=TBX51090117|38=1000|39=1|40=2|44=83.55|48=459200101|54=1|55=IBM|58=PARTIAL FILL|59=0|60=20090120-16:09:20|76=BMTB|150=1|151=150|167=CS|207=US|10=148|
8=FIX.4.2|9=315|35=8|34=102|49=BLPDROP|50=BMTB|52=20090120-16:09:20|56=MALBEC|57=809063|1=TEST|6=83.55|11=20090120-00002|12=0.000003|13=2|14=850|17=80|20=0|21=2|22=1|30=N|31=83.55|32=50|37=TBX51090117|38=1000|39=1|40=2|44=83.55|48=459200101|54=1|55=IBM|58=PARTIAL FILL|59=0|60=20090120-16:09:20|76=BMTB|150=1|151=150|167=CS|207=US|10=148|
8=FIX.4.2|9=315|35=8|34=102|49=BLPDROP|50=BMTB|52=20090120-16:09:20|56=MALBEC|57=809063|1=TEST|6=83.55|11=20090120-00002|12=0.000003|13=2|14=850|17=80|20=0|21=2|22=1|30=N|31=83.55|32=50|37=TBX51090117|38=1000|39=1|40=2|44=83.55|48=459200101|54=1|55=IBM|58=PARTIAL FILL|59=0|60=20090120-16:09:20|76=BMTB|150=1|151=150|167=CS|207=US|10=148|
8=FIX.4.2|9=315|35=8|34=102|49=BLPDROP|50=BMTB|52=20090120-16:09:20|56=MALBEC|57=809063|1=TEST|6=83.55|11=20090120-00002|12=0.000003|13=2|14=850|17=80|20=0|21=2|22=1|30=N|31=83.55|32=50|37=TBX51090117|38=1000|39=1|40=2|44=83.55|48=459200101|54=1|55=IBM|58=PARTIAL FILL|59=0|60=20090120-16:09:20|76=BMTB|150=1|151=150|167=CS|207=US|10=148|
8=FIX.4.2|9=0321|35=8|49=BLPDROP|56=MALBEC|34=103|52=20090120-16:09:29|50=BMTB|57=809063|30=N|60=20090120-16:09:29|150=1|1=TEST|31=1.3723|151=450|32=50|6=1.3723|37=TBX71090117|38=1000|39=1|40=2|11=20090120-00004|12=0.000003|13=2|14=550|44=1.3723|76=BMTB|17=81|167=CS|48=GB00B16GWD56|20=0|21=2|22=4|54=3|55=VOD|207=LN|58=PARTIAL FILL|59=0|10=123|
8=FIX.4.2|9=321|35=8|34=103|49=BLPDROP|50=BMTB|52=20090120-16:09:29|56=MALBEC|57=809063|1=TEST|6=1.3723|11=20090120-00004|12=0.000003|13=2|14=550|17=81|20=0|21=2|22=4|30=N|31=1.3723|32=50|37=TBX71090117|38=1000|39=1|40=2|44=1.3723|48=GB00B16GWD56|54=3|55=VOD|58=PARTIAL FILL|59=0|60=20090120-16:09:29|76=BMTB|150=1|151=450|167=CS|207=LN|10=075|
8=FIX.4.2|9=321|35=8|34=103|49=BLPDROP|50=BMTB|52=20090120-16:09:29|56=MALBEC|57=809063|1=TEST|6=1.3723|11=20090120-00004|12=0.000003|13=2|14=550|17=81|20=0|21=2|22=4|30=N|31=1.3723|32=50|37=TBX71090117|38=1000|39=1|40=2|44=1.3723|48=GB00B16GWD56|54=3|55=VOD|58=PARTIAL FILL|59=0|60=20090120-16:09:29|76=BMTB|150=1|151=450|167=CS|207=LN|10=075|
8=FIX.4.2|9=321|35=8|34=103|49=BLPDROP|50=BMTB|52=20090120-16:09:29|56=MALBEC|57=809063|1=TEST|6=1.3723|11=20090120-00004|12=0.000003|13=2|14=550|17=81|20=0|21=2|22=4|30=N|31=1.3723|32=50|37=TBX71090117|38=1000|39=1|40=2|44=1.3723|48=GB00B16GWD56|54=3|55=VOD|58=PARTIAL FILL|59=0|60=20090120-16:09:29|76=BMTB|150=1|151=450|167=CS|207=LN|10=075|
8=FIX.4.2|9=321|35=8|34=103|49=BLPDROP|50=BMTB|52=20090120-16:09:29|56=MALBEC|57=809063|1=TEST|6=1.3723|11=20090120-00004|12=0.000003|13=2|14=550|17=81|20=0|21=2|22=4|30=N|31=1.3723|32=50|37=TBX71090117|38=1000|39=1|40=2|44=1.3723|48=GB00B16GWD56|54=3|55=VOD|58=PARTIAL FILL|59=0|60=20090120-16:09:29|76=BMTB|150=1|151=450|167=CS|207=LN|10=075|
8=FIX.4.2|9=0315|35=8|49=BLPDROP|56=MALBEC|34=104|52=20090120-16:09:35|50=BMTB|57=809063|30=N|60=20090120-16:09:35|150=1|1=TEST|31=83.55|151=100|32=50|6=83.55|37=TBX51090117|38=1000|39=1|40=2|11=20090120-00002|12=0.000003|13=2|14=900|44=83.55|76=BMTB|17=82|167=CS|48=459200101|20=0|21=2|22=1|54=1|55=IBM|207=US|58=PARTIAL FILL|59=0|10=203|
8=FIX.4.2|9=315|35=8|34=104|49=BLPDROP|50=BMTB|52=20090120-16:09:35|56=MALBEC|57=809063|1=TEST|6=83.55|11=20090120-00002|12=0.000003|13=2|14=900|17=82|20=0|21=2|22=1|30=N|31=83.55|32=50|37=TBX51090117|38=1000|39=1|40=2|44=83.55|48=459200101|54=1|55=IBM|58=PARTIAL FILL|59=0|60=20090120-16:09:35|76=BMTB|150=1|151=100|167=CS|207=US|10=155|
8=FIX.4.2|9=315|35=8|34=104|49=BLPDROP|50=BMTB|52=20090120-16:09:35|56=MALBEC|57=809063|1=TEST|6=83.55|11=20090120-00002|12=0.000003|13=2|14=900|17=82|20=0|21=2|22=1|30=N|31=83.55|32=50|37=TBX51090117|38=1000|39=1|40=2|44=83.55|48=459200101|54=1|55=IBM|58=PARTIAL FILL|59=0|60=20090120-16:09:35|76=BMTB|150=1|151=100|167=CS|207=US|10=155|
8=FIX.4.2|9=315|35=8|34=104|49=BLPDROP|50=BMTB|52=20090120-16:09:35|56=MALBEC|57=809063|1=TEST|6=83.55|11=20090120-00002|12=0.000003|13=2|14=900|17=82|20=0|21=2|22=1|30=N|31=83.55|32=50|37=TBX51090117|38=1000|39=1|40=2|44=83.55|48=459200101|54=1|55=IBM|58=PARTIAL FILL|59=0|60=20090120-16:09:35|76=BMTB|150=1|151=100|167=CS|207=US|10=155|
8=FIX.4.2|9=315|35=8|34=104|49=BLPDROP|50=BMTB|52=20090120-16:09:35|56=MALBEC|57=809063|1=TEST|6=83.55|11=20090120-00002|12=0.000003|13=2|14=900|17=82|20=0|21=2|22=1|30=N|31=83.55|32=50|37=TBX51090117|38=1000|39=1|40=2|44=83.55|48=459200101|54=1|55=IBM|58=PARTIAL FILL|59=0|60=20090120-16:09:35|76=BMTB|150=1|151=100|167=CS|207=US|10=155|
8=FIX.4.2|9=0321|35=8|49=BLPDROP|56=MALBEC|34=105|52=20090120-16:09:45|50=BMTB|57=809063|30=N|60=20090120-16:09:44|150=1|1=TEST|31=1.3723|151=400|32=50|6=1.3723|37=TBX71090117|38=1000|39=1|40=2|11=20090120-00004|12=0.000003|13=2|14=600|44=1.3723|76=BMTB|17=83|167=CS|48=GB00B16GWD56|20=0|21=2|22=4|54=3|55=VOD|207=LN|58=PARTIAL FILL|59=0|10=113|
8=FIX.4.2|9=321|35=8|34=105|49=BLPDROP|50=BMTB|52=20090120-16:09:45|56=MALBEC|57=809063|1=TEST|6=1.3723|11=20090120-00004|12=0.000003|13=2|14=600|17=83|20=0|21=2|22=4|30=N|31=1.3723|32=50|37=TBX71090117|38=1000|39=1|40=2|44=1.3723|48=GB00B16GWD56|54=3|55=VOD|58=PARTIAL FILL|59=0|60=20090120-16:09:44|76=BMTB|150=1|151=400|167=CS|207=LN|10=065|
8=FIX.4.2|9=321|35=8|34=105|49=BLPDROP|50=BMTB|52=20090120-16:09:45|56=MALBEC|57=809063|1=TEST|6=1.3723|11=20090120-00004|12=0.000003|13=2|14=600|17=83|20=0|21=2|22=4|30=N|31=1.3723|32=50|37=TBX71090117|38=1000|39=1|40=2|44=1.3723|48=GB00B16GWD56|54=3|55=VOD|58=PARTIAL FILL|59=0|60=20090120-16:09:44|76=BMTB|150=1|151=400|167=CS|207=LN|10=065|
8=FIX.4.2|9=321|35=8|34=105|49=BLPDROP|50=BMTB|52=20090120-16:09:45|56=MALBEC|57=809063|1=TEST|6=1.3723|11=20090120-00004|12=0.000003|13=2|14=600|17=83|20=0|21=2|22=4|30=N|31=1.3723|32=50|37=TBX71090117|38=1000|39=1|40=2|44=1.3723|48=GB00B16GWD56|54=3|55=VOD|58=PARTIAL FILL|59=0|60=20090120-16:09:44|76=BMTB|150=1|151=400|167=CS|207=LN|10=065|
8=FIX.4.2|9=321|35=8|34=105|49=BLPDROP|50=BMTB|52=20090120-16:09:45|56=MALBEC|57=809063|1=TEST|6=1.3723|11=20090120-00004|12=0.000003|13=2|14=600|17=83|20=0|21=2|22=4|30=N|31=1.3723|32=50|37=TBX71090117|38=1000|39=1|40=2|44=1.3723|48=GB00B16GWD56|54=3|55=VOD|58=PARTIAL FILL|59=0|60=20090120-16:09:44|76=BMTB|150=1|151=400|167=CS|207=LN|10=065|
8=FIX.4.2|9=0314|35=8|49=BLPDROP|56=MALBEC|34=106|52=20090120-16:09:50|50=BMTB|57=809063|30=N|60=20090120-16:09:50|150=1|1=TEST|31=83.55|151=50|32=50|6=83.55|37=TBX51090117|38=1000|39=1|40=2|11=20090120-00002|12=0.000003|13=2|14=950|44=83.55|76=BMTB|17=84|167=CS|48=459200101|20=0|21=2|22=1|54=1|55=IBM|207=US|58=PARTIAL FILL|59=0|10=161|
8=FIX.4.2|9=314|35=8|34=106|49=BLPDROP|50=BMTB|52=20090120-16:09:50|56=MALBEC|57=809063|1=TEST|6=83.55|11=20090120-00002|12=0.000003|13=2|14=950|17=84|20=0|21=2|22=1|30=N|31=83.55|32=50|37=TBX51090117|38=1000|39=1|40=2|44=83.55|48=459200101|54=1|55=IBM|58=PARTIAL FILL|59=0|60=20090120-16:09:50|76=BMTB|150=1|151=50|167=CS|207=US|10=113|
8=FIX.4.2|9=314|35=8|34=106|49=BLPDROP|50=BMTB|52=20090120-16:09:50|56=MALBEC|57=809063|1=TEST|6=83.55|11=20090120-00002|12=0.000003|13=2|14=950|17=84|20=0|21=2|22=1|30=N|31=83.55|32=50|37=TBX51090117|38=1000|39=1|40=2|44=83.55|48=459200101|54=1|55=IBM|58=PARTIAL FILL|59=0|60=20090120-16:09:50|76=BMTB|150=1|151=50|167=CS|207=US|10=113|
8=FIX.4.2|9=314|35=8|34=106|49=BLPDROP|50=BMTB|52=20090120-16:09:50|56=MALBEC|57=809063|1=TEST|6=83.55|11=20090120-00002|12=0.000003|13=2|14=950|17=84|20=0|21=2|22=1|30=N|31=83.55|32=50|37=TBX51090117|38=1000|39=1|40=2|44=83.55|48=459200101|54=1|55=IBM|58=PARTIAL FILL|59=0|60=20090120-16:09:50|76=BMTB|150=1|151=50|167=CS|207=US|10=113|
8=FIX.4.2|9=314|35=8|34=106|49=BLPDROP|50=BMTB|52=20090120-16:09:50|56=MALBEC|57=809063|1=TEST|6=83.55|11=20090120-00002|12=0.000003|13=2|14=950|17=84|20=0|21=2|22=1|30=N|31=83.55|32=50|37=TBX51090117|38=1000|39=1|40=2|44=83.55|48=459200101|54=1|55=IBM|58=PARTIAL FILL|59=0|60=20090120-16:09:50|76=BMTB|150=1|151=50|167=CS|207=US|10=113|
8=FIX.4.2|9=0321|35=8|49=BLPDROP|56=MALBEC|34=107|52=20090120-16:10:00|50=BMTB|57=809063|30=N|60=20090120-16:09:59|150=1|1=TEST|31=1.3723|151=350|32=50|6=1.3723|37=TBX71090117|38=1000|39=1|40=2|11=20090120-00004|12=0.000003|13=2|14=650|44=1.3723|76=BMTB|17=85|167=CS|48=GB00B16GWD56|20=0|21=2|22=4|54=3|55=VOD|207=LN|58=PARTIAL FILL|59=0|10=115|
8=FIX.4.2|9=321|35=8|34=107|49=BLPDROP|50=BMTB|52=20090120-16:10:00|56=MALBEC|57=809063|1=TEST|6=1.3723|11=20090120-00004|12=0.000003|13=2|14=650|17=85|20=0|21=2|22=4|30=N|31=1.3723|32=50|37=TBX71090117|38=1000|39=1|40=2|44=1.3723|48=GB00B16GWD56|54=3|55=VOD|58=PARTIAL FILL|59=0|60=20090120-16:09:59|76=BMTB|150=1|151=350|167=CS|207=LN|10=067|
8=FIX.4.2|9=321|35=8|34=107|49=BLPDROP|50=BMTB|52=20090120-16:10:00|56=MALBEC|57=809063|1=TEST|6=1.3723|11=20090120-00004|12=0.000003|13=2|14=650|17=85|20=0|21=2|22=4|30=N|31=1.3723|32=50|37=TBX71090117|38=1000|39=1|40=2|44=1.3723|48=GB00B16GWD56|54=3|55=VOD|58=PARTIAL FILL|59=0|60=20090120-16:09:59|76=BMTB|150=1|151=350|167=CS|207=LN|10=067|
8=FIX.4.2|9=321|35=8|34=107|49=BLPDROP|50=BMTB|52=20090120-16:10:00|56=MALBEC|57=809063|1=TEST|6=1.3723|11=20090120-00004|12=0.000003|13=2|14=650|17=85|20=0|21=2|22=4|30=N|31=1.3723|32=50|37=TBX71090117|38=1000|39=1|40=2|44=1.3723|48=GB00B16GWD56|54=3|55=VOD|58=PARTIAL FILL|59=0|60=20090120-16:09:59|76=BMTB|150=1|151=350|167=CS|207=LN|10=067|
8=FIX.4.2|9=321|35=8|34=107|49=BLPDROP|50=BMTB|52=20090120-16:10:00|56=MALBEC|57=809063|1=TEST|6=1.3723|11=20090120-00004|12=0.000003|13=2|14=650|17=85|20=0|21=2|22=4|30=N|31=1.3723|32=50|37=TBX71090117|38=1000|39=1|40=2|44=1.3723|48=GB00B16GWD56|54=3|55=VOD|58=PARTIAL FILL|59=0|60=20090120-16:09:59|76=BMTB|150=1|151=350|167=CS|207=LN|10=067|
8=FIX.4.2|9=0306|35=8|49=BLPDROP|56=MALBEC|34=108|52=20090120-16:10:05|50=BMTB|57=809063|30=N|60=20090120-16:10:05|150=2|1=TEST|31=83.55|151=0|32=50|6=83.55|37=TBX51090117|38=1000|39=2|40=2|11=20090120-00002|12=0.000003|13=2|14=1000|44=83.55|76=BMTB|17=86|167=CS|48=459200101|20=0|21=2|22=1|54=1|55=IBM|207=US|58=FILL|59=0|10=089|
8=FIX.4.2|9=306|35=8|34=108|49=BLPDROP|50=BMTB|52=20090120-16:10:05|56=MALBEC|57=809063|1=TEST|6=83.55|11=20090120-00002|12=0.000003|13=2|14=1000|17=86|20=0|21=2|22=1|30=N|31=83.55|32=50|37=TBX51090117|38=1000|39=2|40=2|44=83.55|48=459200101|54=1|55=IBM|58=FILL|59=0|60=20090120-16:10:05|76=BMTB|150=2|151=0|167=CS|207=US|10=041|
8=FIX.4.2|9=306|35=8|34=108|49=BLPDROP|50=BMTB|52=20090120-16:10:05|56=MALBEC|57=809063|1=TEST|6=83.55|11=20090120-00002|12=0.000003|13=2|14=1000|17=86|20=0|21=2|22=1|30=N|31=83.55|32=50|37=TBX51090117|38=1000|39=2|40=2|44=83.55|48=459200101|54=1|55=IBM|58=FILL|59=0|60=20090120-16:10:05|76=BMTB|150=2|151=0|167=CS|207=US|10=041|
8=FIX.4.2|9=306|35=8|34=108|49=BLPDROP|50=BMTB|52=20090120-16:10:05|56=MALBEC|57=809063|1=TEST|6=83.55|11=20090120-00002|12=0.000003|13=2|14=1000|17=86|20=0|21=2|22=1|30=N|31=83.55|32=50|37=TBX51090117|38=1000|39=2|40=2|44=83.55|48=459200101|54=1|55=IBM|58=FILL|59=0|60=20090120-16:10:05|76=BMTB|150=2|151=0|167=CS|207=US|10=041|
8=FIX.4.2|9=306|35=8|34=108|49=BLPDROP|50=BMTB|52=20090120-16:10:05|56=MALBEC|57=809063|1=TEST|6=83.55|11=20090120-00002|12=0.000003|13=2|14=1000|17=86|20=0|21=2|22=1|30=N|31=83.55|32=50|37=TBX51090117|38=1000|39=2|40=2|44=83.55|48=459200101|54=1|55=IBM|58=FILL|59=0|60=20090120-16:10:05|76=BMTB|150=2|151=0|167=CS|207=US|10=041|
8=FIX.4.2|9=0321|35=8|49=BLPDROP|56=MALBEC|34=109|52=20090120-16:10:15|50=BMTB|57=809063|30=N|60=20090120-16:10:15|150=1|1=TEST|31=1.3723|151=300|32=50|6=1.3723|37=TBX71090117|38=1000|39=1|40=2|11=20090120-00004|12=0.000003|13=2|14=700|44=1.3723|76=BMTB|17=87|167=CS|48=GB00B16GWD56|20=0|21=2|22=4|54=3|55=VOD|207=LN|58=PARTIAL FILL|59=0|10=100|
8=FIX.4.2|9=321|35=8|34=109|49=BLPDROP|50=BMTB|52=20090120-16:10:15|56=MALBEC|57=809063|1=TEST|6=1.3723|11=20090120-00004|12=0.000003|13=2|14=700|17=87|20=0|21=2|22=4|30=N|31=1.3723|32=50|37=TBX71090117|38=1000|39=1|40=2|44=1.3723|48=GB00B16GWD56|54=3|55=VOD|58=PARTIAL FILL|59=0|60=20090120-16:10:15|76=BMTB|150=1|151=300|167=CS|207=LN|10=052|
8=FIX.4.2|9=321|35=8|34=109|49=BLPDROP|50=BMTB|52=20090120-16:10:15|56=MALBEC|57=809063|1=TEST|6=1.3723|11=20090120-00004|12=0.000003|13=2|14=700|17=87|20=0|21=2|22=4|30=N|31=1.3723|32=50|37=TBX71090117|38=1000|39=1|40=2|44=1.3723|48=GB00B16GWD56|54=3|55=VOD|58=PARTIAL FILL|59=0|60=20090120-16:10:15|76=BMTB|150=1|151=300|167=CS|207=LN|10=052|
8=FIX.4.2|9=321|35=8|34=109|49=BLPDROP|50=BMTB|52=20090120-16:10:15|56=MALBEC|57=809063|1=TEST|6=1.3723|11=20090120-00004|12=0.000003|13=2|14=700|17=87|20=0|21=2|22=4|30=N|31=1.3723|32=50|37=TBX71090117|38=1000|39=1|40=2|44=1.3723|48=GB00B16GWD56|54=3|55=VOD|58=PARTIAL FILL|59=0|60=20090120-16:10:15|76=BMTB|150=1|151=300|167=CS|207=LN|10=052|
8=FIX.4.2|9=321|35=8|34=109|49=BLPDROP|50=BMTB|52=20090120-16:10:15|56=MALBEC|57=809063|1=TEST|6=1.3723|11=20090120-00004|12=0.000003|13=2|14=700|17=87|20=0|21=2|22=4|30=N|31=1.3723|32=50|37=TBX71090117|38=1000|39=1|40=2|44=1.3723|48=GB00B16GWD56|54=3|55=VOD|58=PARTIAL FILL|59=0|60=20090120-16:10:15|76=BMTB|150=1|151=300|167=CS|207=LN|10=052|
8=FIX.4.2|9=0321|35=8|49=BLPDROP|56=MALBEC|34=110|52=20090120-16:10:30|50=BMTB|57=809063|30=N|60=20090120-16:10:30|150=1|1=TEST|31=1.3723|151=250|32=50|6=1.3723|37=TBX71090117|38=1000|39=1|40=2|11=20090120-00004|12=0.000003|13=2|14=750|44=1.3723|76=BMTB|17=88|167=CS|48=GB00B16GWD56|20=0|21=2|22=4|54=3|55=VOD|207=LN|58=PARTIAL FILL|59=0|10=096|
8=FIX.4.2|9=321|35=8|34=110|49=BLPDROP|50=BMTB|52=20090120-16:10:30|56=MALBEC|57=809063|1=TEST|6=1.3723|11=20090120-00004|12=0.000003|13=2|14=750|17=88|20=0|21=2|22=4|30=N|31=1.3723|32=50|37=TBX71090117|38=1000|39=1|40=2|44=1.3723|48=GB00B16GWD56|54=3|55=VOD|58=PARTIAL FILL|59=0|60=20090120-16:10:30|76=BMTB|150=1|151=250|167=CS|207=LN|10=048|
8=FIX.4.2|9=321|35=8|34=110|49=BLPDROP|50=BMTB|52=20090120-16:10:30|56=MALBEC|57=809063|1=TEST|6=1.3723|11=20090120-00004|12=0.000003|13=2|14=750|17=88|20=0|21=2|22=4|30=N|31=1.3723|32=50|37=TBX71090117|38=1000|39=1|40=2|44=1.3723|48=GB00B16GWD56|54=3|55=VOD|58=PARTIAL FILL|59=0|60=20090120-16:10:30|76=BMTB|150=1|151=250|167=CS|207=LN|10=048|
8=FIX.4.2|9=321|35=8|34=110|49=BLPDROP|50=BMTB|52=20090120-16:10:30|56=MALBEC|57=809063|1=TEST|6=1.3723|11=20090120-00004|12=0.000003|13=2|14=750|17=88|20=0|21=2|22=4|30=N|31=1.3723|32=50|37=TBX71090117|38=1000|39=1|40=2|44=1.3723|48=GB00B16GWD56|54=3|55=VOD|58=PARTIAL FILL|59=0|60=20090120-16:10:30|76=BMTB|150=1|151=250|167=CS|207=LN|10=048|
8=FIX.4.2|9=321|35=8|34=110|49=BLPDROP|50=BMTB|52=20090120-16:10:30|56=MALBEC|57=809063|1=TEST|6=1.3723|11=20090120-00004|12=0.000003|13=2|14=750|17=88|20=0|21=2|22=4|30=N|31=1.3723|32=50|37=TBX71090117|38=1000|39=1|40=2|44=1.3723|48=GB00B16GWD56|54=3|55=VOD|58=PARTIAL FILL|59=0|60=20090120-16:10:30|76=BMTB|150=1|151=250|167=CS|207=LN|10=048|
8=FIX.4.2|9=0321|35=8|49=BLPDROP|56=MALBEC|34=111|52=20090120-16:10:45|50=BMTB|57=809063|30=N|60=20090120-16:10:45|150=1|1=TEST|31=1.3723|151=200|32=50|6=1.3723|37=TBX71090117|38=1000|39=1|40=2|11=20090120-00004|12=0.000003|13=2|14=800|44=1.3723|76=BMTB|17=89|167=CS|48=GB00B16GWD56|20=0|21=2|22=4|54=3|55=VOD|207=LN|58=PARTIAL FILL|59=0|10=101|
8=FIX.4.2|9=321|35=8|34=111|49=BLPDROP|50=BMTB|52=20090120-16:10:45|56=MALBEC|57=809063|1=TEST|6=1.3723|11=20090120-00004|12=0.000003|13=2|14=800|17=89|20=0|21=2|22=4|30=N|31=1.3723|32=50|37=TBX71090117|38=1000|39=1|40=2|44=1.3723|48=GB00B16GWD56|54=3|55=VOD|58=PARTIAL FILL|59=0|60=20090120-16:10:45|76=BMTB|150=1|151=200|167=CS|207=LN|10=053|
8=FIX.4.2|9=321|35=8|34=111|49=BLPDROP|50=BMTB|52=20090120-16:10:45|56=MALBEC|57=809063|1=TEST|6=1.3723|11=20090120-00004|12=0.000003|13=2|14=800|17=89|20=0|21=2|22=4|30=N|31=1.3723|32=50|37=TBX71090117|38=1000|39=1|40=2|44=1.3723|48=GB00B16GWD56|54=3|55=VOD|58=PARTIAL FILL|59=0|60=20090120-16:10:45|76=BMTB|150=1|151=200|167=CS|207=LN|10=053|
8=FIX.4.2|9=321|35=8|34=111|49=BLPDROP|50=BMTB|52=20090120-16:10:45|56=MALBEC|57=809063|1=TEST|6=1.3723|11=20090120-00004|12=0.000003|13=2|14=800|17=89|20=0|21=2|22=4|30=N|31=1.3723|32=50|37=TBX71090117|38=1000|39=1|40=2|44=1.3723|48=GB00B16GWD56|54=3|55=VOD|58=PARTIAL FILL|59=0|60=20090120-16:10:45|76=BMTB|150=1|151=200|167=CS|207=LN|10=053|
8=FIX.4.2|9=321|35=8|34=111|49=BLPDROP|50=BMTB|52=20090120-16:10:45|56=MALBEC|57=809063|1=TEST|6=1.3723|11=20090120-00004|12=0.000003|13=2|14=800|17=89|20=0|21=2|22=4|30=N|31=1.3723|32=50|37=TBX71090117|38=1000|39=1|40=2|44=1.3723|48=GB00B16GWD56|54=3|55=VOD|58=PARTIAL FILL|59=0|60=20090120-16:10:45|76=BMTB|150=1|151=200|167=CS|207=LN|10=053|
8=FIX.4.2|9=0321|35=8|49=BLPDROP|56=MALBEC|34=112|52=20090120-16:11:00|50=BMTB|57=809063|30=N|60=20090120-16:11:00|150=1|1=TEST|31=1.3723|151=150|32=50|6=1.3723|37=TBX71090117|38=1000|39=1|40=2|11=20090120-00004|12=0.000003|13=2|14=850|44=1.3723|76=BMTB|17=90|167=CS|48=GB00B16GWD56|20=0|21=2|22=4|54=3|55=VOD|207=LN|58=PARTIAL FILL|59=0|10=087|
8=FIX.4.2|9=321|35=8|34=112|49=BLPDROP|50=BMTB|52=20090120-16:11:00|56=MALBEC|57=809063|1=TEST|6=1.3723|11=20090120-00004|12=0.000003|13=2|14=850|17=90|20=0|21=2|22=4|30=N|31=1.3723|32=50|37=TBX71090117|38=1000|39=1|40=2|44=1.3723|48=GB00B16GWD56|54=3|55=VOD|58=PARTIAL FILL|59=0|60=20090120-16:11:00|76=BMTB|150=1|151=150|167=CS|207=LN|10=039|
8=FIX.4.2|9=321|35=8|34=112|49=BLPDROP|50=BMTB|52=20090120-16:11:00|56=MALBEC|57=809063|1=TEST|6=1.3723|11=20090120-00004|12=0.000003|13=2|14=850|17=90|20=0|21=2|22=4|30=N|31=1.3723|32=50|37=TBX71090117|38=1000|39=1|40=2|44=1.3723|48=GB00B16GWD56|54=3|55=VOD|58=PARTIAL FILL|59=0|60=20090120-16:11:00|76=BMTB|150=1|151=150|167=CS|207=LN|10=039|
8=FIX.4.2|9=321|35=8|34=112|49=BLPDROP|50=BMTB|52=20090120-16:11:00|56=MALBEC|57=809063|1=TEST|6=1.3723|11=20090120-00004|12=0.000003|13=2|14=850|17=90|20=0|21=2|22=4|30=N|31=1.3723|32=50|37=TBX71090117|38=1000|39=1|40=2|44=1.3723|48=GB00B16GWD56|54=3|55=VOD|58=PARTIAL FILL|59=0|60=20090120-16:11:00|76=BMTB|150=1|151=150|167=CS|207=LN|10=039|
8=FIX.4.2|9=321|35=8|34=112|49=BLPDROP|50=BMTB|52=20090120-16:11:00|56=MALBEC|57=809063|1=TEST|6=1.3723|11=20090120-00004|12=0.000003|13=2|14=850|17=90|20=0|21=2|22=4|30=N|31=1.3723|32=50|37=TBX71090117|38=1000|39=1|40=2|44=1.3723|48=GB00B16GWD56|54=3|55=VOD|58=PARTIAL FILL|59=0|60=20090120-16:11:00|76=BMTB|150=1|151=150|167=CS|207=LN|10=039|
8=FIX.4.2|9=0321|35=8|49=BLPDROP|56=MALBEC|34=113|52=20090120-16:11:15|50=BMTB|57=809063|30=N|60=20090120-16:11:15|150=1|1=TEST|31=1.3723|151=100|32=50|6=1.3723|37=TBX71090117|38=1000|39=1|40=2|11=20090120-00004|12=0.000003|13=2|14=900|44=1.3723|76=BMTB|17=91|167=CS|48=GB00B16GWD56|20=0|21=2|22=4|54=3|55=VOD|207=LN|58=PARTIAL FILL|59=0|10=092|
8=FIX.4.2|9=321|35=8|34=113|49=BLPDROP|50=BMTB|52=20090120-16:11:15|56=MALBEC|57=809063|1=TEST|6=1.3723|11=20090120-00004|12=0.000003|13=2|14=900|17=91|20=0|21=2|22=4|30=N|31=1.3723|32=50|37=TBX71090117|38=1000|39=1|40=2|44=1.3723|48=GB00B16GWD56|54=3|55=VOD|58=PARTIAL FILL|59=0|60=20090120-16:11:15|76=BMTB|150=1|151=100|167=CS|207=LN|10=044|
8=FIX.4.2|9=321|35=8|34=113|49=BLPDROP|50=BMTB|52=20090120-16:11:15|56=MALBEC|57=809063|1=TEST|6=1.3723|11=20090120-00004|12=0.000003|13=2|14=900|17=91|20=0|21=2|22=4|30=N|31=1.3723|32=50|37=TBX71090117|38=1000|39=1|40=2|44=1.3723|48=GB00B16GWD56|54=3|55=VOD|58=PARTIAL FILL|59=0|60=20090120-16:11:15|76=BMTB|150=1|151=100|167=CS|207=LN|10=044|
8=FIX.4.2|9=321|35=8|34=113|49=BLPDROP|50=BMTB|52=20090120-16:11:15|56=MALBEC|57=809063|1=TEST|6=1.3723|11=20090120-00004|12=0.000003|13=2|14=900|17=91|20=0|21=2|22=4|30=N|31=1.3723|32=50|37=TBX71090117|38=1000|39=1|40=2|44=1.3723|48=GB00B16GWD56|54=3|55=VOD|58=PARTIAL FILL|59=0|60=20090120-16:11:15|76=BMTB|150=1|151=100|167=CS|207=LN|10=044|
8=FIX.4.2|9=321|35=8|34=113|49=BLPDROP|50=BMTB|52=20090120-16:11:15|56=MALBEC|57=809063|1=TEST|6=1.3723|11=20090120-00004|12=0.000003|13=2|14=900|17=91|20=0|21=2|22=4|30=N|31=1.3723|32=50|37=TBX71090117|38=1000|39=1|40=2|44=1.3723|48=GB00B16GWD56|54=3|55=VOD|58=PARTIAL FILL|59=0|60=20090120-16:11:15|76=BMTB|150=1|151=100|167=CS|207=LN|10=044|
8=FIX.4.2|9=0320|35=8|49=BLPDROP|56=MALBEC|34=114|52=20090120-16:11:30|50=BMTB|57=809063|30=N|60=20090120-16:11:30|150=1|1=TEST|31=1.3723|151=50|32=50|6=1.3723|37=TBX71090117|38=1000|39=1|40=2|11=20090120-00004|12=0.000003|13=2|14=950|44=1.3723|76=BMTB|17=92|167=CS|48=GB00B16GWD56|20=0|21=2|22=4|54=3|55=VOD|207=LN|58=PARTIAL FILL|59=0|10=048|
8=FIX.4.2|9=320|35=8|34=114|49=BLPDROP|50=BMTB|52=20090120-16:11:30|56=MALBEC|57=809063|1=TEST|6=1.3723|11=20090120-00004|12=0.000003|13=2|14=950|17=92|20=0|21=2|22=4|30=N|31=1.3723|32=50|37=TBX71090117|38=1000|39=1|40=2|44=1.3723|48=GB00B16GWD56|54=3|55=VOD|58=PARTIAL FILL|59=0|60=20090120-16:11:30|76=BMTB|150=1|151=50|167=CS|207=LN|10=000|
8=FIX.4.2|9=320|35=8|34=114|49=BLPDROP|50=BMTB|52=20090120-16:11:30|56=MALBEC|57=809063|1=TEST|6=1.3723|11=20090120-00004|12=0.000003|13=2|14=950|17=92|20=0|21=2|22=4|30=N|31=1.3723|32=50|37=TBX71090117|38=1000|39=1|40=2|44=1.3723|48=GB00B16GWD56|54=3|55=VOD|58=PARTIAL FILL|59=0|60=20090120-16:11:30|76=BMTB|150=1|151=50|167=CS|207=LN|10=000|
8=FIX.4.2|9=320|35=8|34=114|49=BLPDROP|50=BMTB|52=20090120-16:11:30|56=MALBEC|57=809063|1=TEST|6=1.3723|11=20090120-00004|12=0.000003|13=2|14=950|17=92|20=0|21=2|22=4|30=N|31=1.3723|32=50|37=TBX71090117|38=1000|39=1|40=2|44=1.3723|48=GB00B16GWD56|54=3|55=VOD|58=PARTIAL FILL|59=0|60=20090120-16:11:30|76=BMTB|150=1|151=50|167=CS|207=LN|10=000|
8=FIX.4.2|9=320|35=8|34=114|49=BLPDROP|50=BMTB|52=20090120-16:11:30|56=MALBEC|57=809063|1=TEST|6=1.3723|11=20090120-00004|12=0.000003|13=2|14=950|17=92|20=0|21=2|22=4|30=N|31=1.3723|32=50|37=TBX71090117|38=1000|39=1|40=2|44=1.3723|48=GB00B16GWD56|54=3|55=VOD|58=PARTIAL FILL|59=0|60=20090120-16:11:30|76=BMTB|150=1|151=50|167=CS|207=LN|10=000|
8=FIX.4.2|9=0312|35=8|49=BLPDROP|56=MALBEC|34=115|52=20090120-16:11:45|50=BMTB|57=809063|30=N|60=20090120-16:11:45|150=2|1=TEST|31=1.3723|151=0|32=50|6=1.3723|37=TBX71090117|38=1000|39=2|40=2|11=20090120-00004|12=0.000003|13=2|14=1000|44=1.3723|76=BMTB|17=93|167=CS|48=GB00B16GWD56|20=0|21=2|22=4|54=3|55=VOD|207=LN|58=FILL|59=0|10=002|
8=FIX.4.2|9=312|35=8|34=115|49=BLPDROP|50=BMTB|52=20090120-16:11:45|56=MALBEC|57=809063|1=TEST|6=1.3723|11=20090120-00004|12=0.000003|13=2|14=1000|17=93|20=0|21=2|22=4|30=N|31=1.3723|32=50|37=TBX71090117|38=1000|39=2|40=2|44=1.3723|48=GB00B16GWD56|54=3|55=VOD|58=FILL|59=0|60=20090120-16:11:45|76=BMTB|150=2|151=0|167=CS|207=LN|10=210|
8=FIX.4.2|9=312|35=8|34=115|49=BLPDROP|50=BMTB|52=20090120-16:11:45|56=MALBEC|57=809063|1=TEST|6=1.3723|11=20090120-00004|12=0.000003|13=2|14=1000|17=93|20=0|21=2|22=4|30=N|31=1.3723|32=50|37=TBX71090117|38=1000|39=2|40=2|44=1.3723|48=GB00B16GWD56|54=3|55=VOD|58=FILL|59=0|60=20090120-16:11:45|76=BMTB|150=2|151=0|167=CS|207=LN|10=210|
8=FIX.4.2|9=312|35=8|34=115|49=BLPDROP|50=BMTB|52=20090120-16:11:45|56=MALBEC|57=809063|1=TEST|6=1.3723|11=20090120-00004|12=0.000003|13=2|14=1000|17=93|20=0|21=2|22=4|30=N|31=1.3723|32=50|37=TBX71090117|38=1000|39=2|40=2|44=1.3723|48=GB00B16GWD56|54=3|55=VOD|58=FILL|59=0|60=20090120-16:11:45|76=BMTB|150=2|151=0|167=CS|207=LN|10=210|
8=FIX.4.2|9=312|35=8|34=115|49=BLPDROP|50=BMTB|52=20090120-16:11:45|56=MALBEC|57=809063|1=TEST|6=1.3723|11=20090120-00004|12=0.000003|13=2|14=1000|17=93|20=0|21=2|22=4|30=N|31=1.3723|32=50|37=TBX71090117|38=1000|39=2|40=2|44=1.3723|48=GB00B16GWD56|54=3|55=VOD|58=FILL|59=0|60=20090120-16:11:45|76=BMTB|150=2|151=0|167=CS|207=LN|10=210|
8=FIX.4.2|9=0312|35=8|49=BLPDROP|56=MALBEC|34=124|52=20090120-16:16:13|50=BMTB|57=809063|30=N|60=20090120-16:16:12|150=1|1=TEST|31=40.5|151=950|32=50|6=40.5|37=TBX81090117|38=1000|39=1|40=1|11=20090120-00005|12=0.000003|13=2|14=50|44=0|76=BMTB|17=95|167=CS|48=JP3435000009|20=0|21=2|22=4|54=5|55=6758|207=JP|58=PARTIAL FILL|59=0|10=027|
8=FIX.4.2|9=312|35=8|34=124|49=BLPDROP|50=BMTB|52=20090120-16:16:13|56=MALBEC|57=809063|1=TEST|6=40.5|11=20090120-00005|12=0.000003|13=2|14=50|17=95|20=0|21=2|22=4|30=N|31=40.5|32=50|37=TBX81090117|38=1000|39=1|40=1|44=0|48=JP3435000009|54=5|55=6758|58=PARTIAL FILL|59=0|60=20090120-16:16:12|76=BMTB|150=1|151=950|167=CS|207=JP|10=235|
8=FIX.4.2|9=312|35=8|34=124|49=BLPDROP|50=BMTB|52=20090120-16:16:13|56=MALBEC|57=809063|1=TEST|6=40.5|11=20090120-00005|12=0.000003|13=2|14=50|17=95|20=0|21=2|22=4|30=N|31=40.5|32=50|37=TBX81090117|38=1000|39=1|40=1|44=0|48=JP3435000009|54=5|55=6758|58=PARTIAL FILL|59=0|60=20090120-16:16:12|76=BMTB|150=1|151=950|167=CS|207=JP|10=235|
8=FIX.4.2|9=312|35=8|34=124|49=BLPDROP|50=BMTB|52=20090120-16:16:13|56=MALBEC|57=809063|1=TEST|6=40.5|11=20090120-00005|12=0.000003|13=2|14=50|17=95|20=0|21=2|22=4|30=N|31=40.5|32=50|37=TBX81090117|38=1000|39=1|40=1|44=0|48=JP3435000009|54=5|55=6758|58=PARTIAL FILL|59=0|60=20090120-16:16:12|76=BMTB|150=1|151=950|167=CS|207=JP|10=235|
8=FIX.4.2|9=312|35=8|34=124|49=BLPDROP|50=BMTB|52=20090120-16:16:13|56=MALBEC|57=809063|1=TEST|6=40.5|11=20090120-00005|12=0.000003|13=2|14=50|17=95|20=0|21=2|22=4|30=N|31=40.5|32=50|37=TBX81090117|38=1000|39=1|40=1|44=0|48=JP3435000009|54=5|55=6758|58=PARTIAL FILL|59=0|60=20090120-16:16:12|76=BMTB|150=1|151=950|167=CS|207=JP|10=235|
8=FIX.4.2|9=0313|35=8|49=BLPDROP|56=MALBEC|34=125|52=20090120-16:16:28|50=BMTB|57=809063|30=N|60=20090120-16:16:28|150=1|1=TEST|31=40.5|151=900|32=50|6=40.5|37=TBX81090117|38=1000|39=1|40=1|11=20090120-00005|12=0.000003|13=2|14=100|44=0|76=BMTB|17=96|167=CS|48=JP3435000009|20=0|21=2|22=4|54=5|55=6758|207=JP|58=PARTIAL FILL|59=0|10=082|
8=FIX.4.2|9=313|35=8|34=125|49=BLPDROP|50=BMTB|52=20090120-16:16:28|56=MALBEC|57=809063|1=TEST|6=40.5|11=20090120-00005|12=0.000003|13=2|14=100|17=96|20=0|21=2|22=4|30=N|31=40.5|32=50|37=TBX81090117|38=1000|39=1|40=1|44=0|48=JP3435000009|54=5|55=6758|58=PARTIAL FILL|59=0|60=20090120-16:16:28|76=BMTB|150=1|151=900|167=CS|207=JP|10=034|
8=FIX.4.2|9=313|35=8|34=125|49=BLPDROP|50=BMTB|52=20090120-16:16:28|56=MALBEC|57=809063|1=TEST|6=40.5|11=20090120-00005|12=0.000003|13=2|14=100|17=96|20=0|21=2|22=4|30=N|31=40.5|32=50|37=TBX81090117|38=1000|39=1|40=1|44=0|48=JP3435000009|54=5|55=6758|58=PARTIAL FILL|59=0|60=20090120-16:16:28|76=BMTB|150=1|151=900|167=CS|207=JP|10=034|
8=FIX.4.2|9=313|35=8|34=125|49=BLPDROP|50=BMTB|52=20090120-16:16:28|56=MALBEC|57=809063|1=TEST|6=40.5|11=20090120-00005|12=0.000003|13=2|14=100|17=96|20=0|21=2|22=4|30=N|31=40.5|32=50|37=TBX81090117|38=1000|39=1|40=1|44=0|48=JP3435000009|54=5|55=6758|58=PARTIAL FILL|59=0|60=20090120-16:16:28|76=BMTB|150=1|151=900|167=CS|207=JP|10=034|
8=FIX.4.2|9=313|35=8|34=125|49=BLPDROP|50=BMTB|52=20090120-16:16:28|56=MALBEC|57=809063|1=TEST|6=40.5|11=20090120-00005|12=0.000003|13=2|14=100|17=96|20=0|21=2|22=4|30=N|31=40.5|32=50|37=TBX81090117|38=1000|39=1|40=1|44=0|48=JP3435000009|54=5|55=6758|58=PARTIAL FILL|59=0|60=20090120-16:16:28|76=BMTB|150=1|151=900|167=CS|207=JP|10=034|
8=FIX.4.2|9=0313|35=8|49=BLPDROP|56=MALBEC|34=126|52=20090120-16:16:43|50=BMTB|57=809063|30=N|60=20090120-16:16:43|150=1|1=TEST|31=40.5|151=850|32=50|6=40.5|37=TBX81090117|38=1000|39=1|40=1|11=20090120-00005|12=0.000003|13=2|14=150|44=0|76=BMTB|17=97|167=CS|48=JP3435000009|20=0|21=2|22=4|54=5|55=6758|207=JP|58=PARTIAL FILL|59=0|10=087|
8=FIX.4.2|9=313|35=8|34=126|49=BLPDROP|50=BMTB|52=20090120-16:16:43|56=MALBEC|57=809063|1=TEST|6=40.5|11=20090120-00005|12=0.000003|13=2|14=150|17=97|20=0|21=2|22=4|30=N|31=40.5|32=50|37=TBX81090117|38=1000|39=1|40=1|44=0|48=JP3435000009|54=5|55=6758|58=PARTIAL FILL|59=0|60=20090120-16:16:43|76=BMTB|150=1|151=850|167=CS|207=JP|10=039|
8=FIX.4.2|9=313|35=8|34=126|49=BLPDROP|50=BMTB|52=20090120-16:16:43|56=MALBEC|57=809063|1=TEST|6=40.5|11=20090120-00005|12=0.000003|13=2|14=150|17=97|20=0|21=2|22=4|30=N|31=40.5|32=50|37=TBX81090117|38=1000|39=1|40=1|44=0|48=JP3435000009|54=5|55=6758|58=PARTIAL FILL|59=0|60=20090120-16:16:43|76=BMTB|150=1|151=850|167=CS|207=JP|10=039|
8=FIX.4.2|9=313|35=8|34=126|49=BLPDROP|50=BMTB|52=20090120-16:16:43|56=MALBEC|57=809063|1=TEST|6=40.5|11=20090120-00005|12=0.000003|13=2|14=150|17=97|20=0|21=2|22=4|30=N|31=40.5|32=50|37=TBX81090117|38=1000|39=1|40=1|44=0|48=JP3435000009|54=5|55=6758|58=PARTIAL FILL|59=0|60=20090120-16:16:43|76=BMTB|150=1|151=850|167=CS|207=JP|10=039|
8=FIX.4.2|9=313|35=8|34=126|49=BLPDROP|50=BMTB|52=20090120-16:16:43|56=MALBEC|57=809063|1=TEST|6=40.5|11=20090120-00005|12=0.000003|13=2|14=150|17=97|20=0|21=2|22=4|30=N|31=40.5|32=50|37=TBX81090117|38=1000|39=1|40=1|44=0|48=JP3435000009|54=5|55=6758|58=PARTIAL FILL|59=0|60=20090120-16:16:43|76=BMTB|150=1|151=850|167=CS|207=JP|10=039|
8=FIX.4.2|9=0314|35=8|49=BLPDROP|56=MALBEC|34=127|52=20090120-16:16:52|50=BMTB|57=809063|30=N|60=20090120-16:16:52|150=1|1=TEST|31=9.753|151=500|32=500|6=9.753|37=TBX91090117|38=1000|39=1|40=2|11=20090120-00006|12=0.000003|13=2|14=500|44=9.753|76=BMTB|17=99|167=CS|48=55616P104|20=0|21=2|22=1|54=4|55=M|207=US|58=PARTIAL FILL|59=0|10=176|
8=FIX.4.2|9=314|35=8|34=127|49=BLPDROP|50=BMTB|52=20090120-16:16:52|56=MALBEC|57=809063|1=TEST|6=9.753|11=20090120-00006|12=0.000003|13=2|14=500|17=99|20=0|21=2|22=1|30=N|31=9.753|32=500|37=TBX91090117|38=1000|39=1|40=2|44=9.753|48=55616P104|54=4|55=M|58=PARTIAL FILL|59=0|60=20090120-16:16:52|76=BMTB|150=1|151=500|167=CS|207=US|10=128|
8=FIX.4.2|9=314|35=8|34=127|49=BLPDROP|50=BMTB|52=20090120-16:16:52|56=MALBEC|57=809063|1=TEST|6=9.753|11=20090120-00006|12=0.000003|13=2|14=500|17=99|20=0|21=2|22=1|30=N|31=9.753|32=500|37=TBX91090117|38=1000|39=1|40=2|44=9.753|48=55616P104|54=4|55=M|58=PARTIAL FILL|59=0|60=20090120-16:16:52|76=BMTB|150=1|151=500|167=CS|207=US|10=128|
8=FIX.4.2|9=314|35=8|34=127|49=BLPDROP|50=BMTB|52=20090120-16:16:52|56=MALBEC|57=809063|1=TEST|6=9.753|11=20090120-00006|12=0.000003|13=2|14=500|17=99|20=0|21=2|22=1|30=N|31=9.753|32=500|37=TBX91090117|38=1000|39=1|40=2|44=9.753|48=55616P104|54=4|55=M|58=PARTIAL FILL|59=0|60=20090120-16:16:52|76=BMTB|150=1|151=500|167=CS|207=US|10=128|
8=FIX.4.2|9=314|35=8|34=127|49=BLPDROP|50=BMTB|52=20090120-16:16:52|56=MALBEC|57=809063|1=TEST|6=9.753|11=20090120-00006|12=0.000003|13=2|14=500|17=99|20=0|21=2|22=1|30=N|31=9.753|32=500|37=TBX91090117|38=1000|39=1|40=2|44=9.753|48=55616P104|54=4|55=M|58=PARTIAL FILL|59=0|60=20090120-16:16:52|76=BMTB|150=1|151=500|167=CS|207=US|10=128|
8=FIX.4.2|9=0314|35=8|49=BLPDROP|56=MALBEC|34=128|52=20090120-16:16:58|50=BMTB|57=809063|30=N|60=20090120-16:16:58|150=1|1=TEST|31=40.5|151=800|32=50|6=40.5|37=TBX81090117|38=1000|39=1|40=1|11=20090120-00005|12=0.000003|13=2|14=200|44=0|76=BMTB|17=100|167=CS|48=JP3435000009|20=0|21=2|22=4|54=5|55=6758|207=JP|58=PARTIAL FILL|59=0|10=126|
8=FIX.4.2|9=314|35=8|34=128|49=BLPDROP|50=BMTB|52=20090120-16:16:58|56=MALBEC|57=809063|1=TEST|6=40.5|11=20090120-00005|12=0.000003|13=2|14=200|17=100|20=0|21=2|22=4|30=N|31=40.5|32=50|37=TBX81090117|38=1000|39=1|40=1|44=0|48=JP3435000009|54=5|55=6758|58=PARTIAL FILL|59=0|60=20090120-16:16:58|76=BMTB|150=1|151=800|167=CS|207=JP|10=078|
8=FIX.4.2|9=314|35=8|34=128|49=BLPDROP|50=BMTB|52=20090120-16:16:58|56=MALBEC|57=809063|1=TEST|6=40.5|11=20090120-00005|12=0.000003|13=2|14=200|17=100|20=0|21=2|22=4|30=N|31=40.5|32=50|37=TBX81090117|38=1000|39=1|40=1|44=0|48=JP3435000009|54=5|55=6758|58=PARTIAL FILL|59=0|60=20090120-16:16:58|76=BMTB|150=1|151=800|167=CS|207=JP|10=078|
8=FIX.4.2|9=314|35=8|34=128|49=BLPDROP|50=BMTB|52=20090120-16:16:58|56=MALBEC|57=809063|1=TEST|6=40.5|11=20090120-00005|12=0.000003|13=2|14=200|17=100|20=0|21=2|22=4|30=N|31=40.5|32=50|37=TBX81090117|38=1000|39=1|40=1|44=0|48=JP3435000009|54=5|55=6758|58=PARTIAL FILL|59=0|60=20090120-16:16:58|76=BMTB|150=1|151=800|167=CS|207=JP|10=078|
8=FIX.4.2|9=314|35=8|34=128|49=BLPDROP|50=BMTB|52=20090120-16:16:58|56=MALBEC|57=809063|1=TEST|6=40.5|11=20090120-00005|12=0.000003|13=2|14=200|17=100|20=0|21=2|22=4|30=N|31=40.5|32=50|37=TBX81090117|38=1000|39=1|40=1|44=0|48=JP3435000009|54=5|55=6758|58=PARTIAL FILL|59=0|60=20090120-16:16:58|76=BMTB|150=1|151=800|167=CS|207=JP|10=078|
8=FIX.4.2|9=0314|35=8|49=BLPDROP|56=MALBEC|34=129|52=20090120-16:17:13|50=BMTB|57=809063|30=N|60=20090120-16:17:13|150=1|1=TEST|31=40.5|151=750|32=50|6=40.5|37=TBX81090117|38=1000|39=1|40=1|11=20090120-00005|12=0.000003|13=2|14=250|44=0|76=BMTB|17=101|167=CS|48=JP3435000009|20=0|21=2|22=4|54=5|55=6758|207=JP|58=PARTIAL FILL|59=0|10=121|
8=FIX.4.2|9=314|35=8|34=129|49=BLPDROP|50=BMTB|52=20090120-16:17:13|56=MALBEC|57=809063|1=TEST|6=40.5|11=20090120-00005|12=0.000003|13=2|14=250|17=101|20=0|21=2|22=4|30=N|31=40.5|32=50|37=TBX81090117|38=1000|39=1|40=1|44=0|48=JP3435000009|54=5|55=6758|58=PARTIAL FILL|59=0|60=20090120-16:17:13|76=BMTB|150=1|151=750|167=CS|207=JP|10=073|
8=FIX.4.2|9=314|35=8|34=129|49=BLPDROP|50=BMTB|52=20090120-16:17:13|56=MALBEC|57=809063|1=TEST|6=40.5|11=20090120-00005|12=0.000003|13=2|14=250|17=101|20=0|21=2|22=4|30=N|31=40.5|32=50|37=TBX81090117|38=1000|39=1|40=1|44=0|48=JP3435000009|54=5|55=6758|58=PARTIAL FILL|59=0|60=20090120-16:17:13|76=BMTB|150=1|151=750|167=CS|207=JP|10=073|
8=FIX.4.2|9=314|35=8|34=129|49=BLPDROP|50=BMTB|52=20090120-16:17:13|56=MALBEC|57=809063|1=TEST|6=40.5|11=20090120-00005|12=0.000003|13=2|14=250|17=101|20=0|21=2|22=4|30=N|31=40.5|32=50|37=TBX81090117|38=1000|39=1|40=1|44=0|48=JP3435000009|54=5|55=6758|58=PARTIAL FILL|59=0|60=20090120-16:17:13|76=BMTB|150=1|151=750|167=CS|207=JP|10=073|
8=FIX.4.2|9=314|35=8|34=129|49=BLPDROP|50=BMTB|52=20090120-16:17:13|56=MALBEC|57=809063|1=TEST|6=40.5|11=20090120-00005|12=0.000003|13=2|14=250|17=101|20=0|21=2|22=4|30=N|31=40.5|32=50|37=TBX81090117|38=1000|39=1|40=1|44=0|48=JP3435000009|54=5|55=6758|58=PARTIAL FILL|59=0|60=20090120-16:17:13|76=BMTB|150=1|151=750|167=CS|207=JP|10=073|
8=FIX.4.2|9=0306|35=8|49=BLPDROP|56=MALBEC|34=130|52=20090120-16:17:22|50=BMTB|57=809063|30=N|60=20090120-16:17:22|150=2|1=TEST|31=9.753|151=0|32=500|6=9.753|37=TBX91090117|38=1000|39=2|40=2|11=20090120-00006|12=0.000003|13=2|14=1000|44=9.753|76=BMTB|17=102|167=CS|48=55616P104|20=0|21=2|22=1|54=4|55=M|207=US|58=FILL|59=0|10=100|
8=FIX.4.2|9=306|35=8|34=130|49=BLPDROP|50=BMTB|52=20090120-16:17:22|56=MALBEC|57=809063|1=TEST|6=9.753|11=20090120-00006|12=0.000003|13=2|14=1000|17=102|20=0|21=2|22=1|30=N|31=9.753|32=500|37=TBX91090117|38=1000|39=2|40=2|44=9.753|48=55616P104|54=4|55=M|58=FILL|59=0|60=20090120-16:17:22|76=BMTB|150=2|151=0|167=CS|207=US|10=052|
8=FIX.4.2|9=306|35=8|34=130|49=BLPDROP|50=BMTB|52=20090120-16:17:22|56=MALBEC|57=809063|1=TEST|6=9.753|11=20090120-00006|12=0.000003|13=2|14=1000|17=102|20=0|21=2|22=1|30=N|31=9.753|32=500|37=TBX91090117|38=1000|39=2|40=2|44=9.753|48=55616P104|54=4|55=M|58=FILL|59=0|60=20090120-16:17:22|76=BMTB|150=2|151=0|167=CS|207=US|10=052|
8=FIX.4.2|9=306|35=8|34=130|49=BLPDROP|50=BMTB|52=20090120-16:17:22|56=MALBEC|57=809063|1=TEST|6=9.753|11=20090120-00006|12=0.000003|13=2|14=1000|17=102|20=0|21=2|22=1|30=N|31=9.753|32=500|37=TBX91090117|38=1000|39=2|40=2|44=9.753|48=55616P104|54=4|55=M|58=FILL|59=0|60=20090120-16:17:22|76=BMTB|150=2|151=0|167=CS|207=US|10=052|
8=FIX.4.2|9=306|35=8|34=130|49=BLPDROP|50=BMTB|52=20090120-16:17:22|56=MALBEC|57=809063|1=TEST|6=9.753|11=20090120-00006|12=0.000003|13=2|14=1000|17=102|20=0|21=2|22=1|30=N|31=9.753|32=500|37=TBX91090117|38=1000|39=2|40=2|44=9.753|48=55616P104|54=4|55=M|58=FILL|59=0|60=20090120-16:17:22|76=BMTB|150=2|151=0|167=CS|207=US|10=052|
8=FIX.4.2|9=0314|35=8|49=BLPDROP|56=MALBEC|34=131|52=20090120-16:17:28|50=BMTB|57=809063|30=N|60=20090120-16:17:28|150=1|1=TEST|31=40.5|151=700|32=50|6=40.5|37=TBX81090117|38=1000|39=1|40=1|11=20090120-00005|12=0.000003|13=2|14=300|44=0|76=BMTB|17=103|167=CS|48=JP3435000009|20=0|21=2|22=4|54=5|55=6758|207=JP|58=PARTIAL FILL|59=0|10=119|
8=FIX.4.2|9=314|35=8|34=131|49=BLPDROP|50=BMTB|52=20090120-16:17:28|56=MALBEC|57=809063|1=TEST|6=40.5|11=20090120-00005|12=0.000003|13=2|14=300|17=103|20=0|21=2|22=4|30=N|31=40.5|32=50|37=TBX81090117|38=1000|39=1|40=1|44=0|48=JP3435000009|54=5|55=6758|58=PARTIAL FILL|59=0|60=20090120-16:17:28|76=BMTB|150=1|151=700|167=CS|207=JP|10=071|
8=FIX.4.2|9=314|35=8|34=131|49=BLPDROP|50=BMTB|52=20090120-16:17:28|56=MALBEC|57=809063|1=TEST|6=40.5|11=20090120-00005|12=0.000003|13=2|14=300|17=103|20=0|21=2|22=4|30=N|31=40.5|32=50|37=TBX81090117|38=1000|39=1|40=1|44=0|48=JP3435000009|54=5|55=6758|58=PARTIAL FILL|59=0|60=20090120-16:17:28|76=BMTB|150=1|151=700|167=CS|207=JP|10=071|
8=FIX.4.2|9=314|35=8|34=131|49=BLPDROP|50=BMTB|52=20090120-16:17:28|56=MALBEC|57=809063|1=TEST|6=40.5|11=20090120-00005|12=0.000003|13=2|14=300|17=103|20=0|21=2|22=4|30=N|31=40.5|32=50|37=TBX81090117|38=1000|39=1|40=1|44=0|48=JP3435000009|54=5|55=6758|58=PARTIAL FILL|59=0|60=20090120-16:17:28|76=BMTB|150=1|151=700|167=CS|207=JP|10=071|
8=FIX.4.2|9=314|35=8|34=131|49=BLPDROP|50=BMTB|52=20090120-16:17:28|56=MALBEC|57=809063|1=TEST|6=40.5|11=20090120-00005|12=0.000003|13=2|14=300|17=103|20=0|21=2|22=4|30=N|31=40.5|32=50|37=TBX81090117|38=1000|39=1|40=1|44=0|48=JP3435000009|54=5|55=6758|58=PARTIAL FILL|59=0|60=20090120-16:17:28|76=BMTB|150=1|151=700|167=CS|207=JP|10=071|
8=FIX.4.2|9=0314|35=8|49=BLPDROP|56=MALBEC|34=132|52=20090120-16:17:43|50=BMTB|57=809063|30=N|60=20090120-16:17:43|150=1|1=TEST|31=40.5|151=650|32=50|6=40.5|37=TBX81090117|38=1000|39=1|40=1|11=20090120-00005|12=0.000003|13=2|14=350|44=0|76=BMTB|17=104|167=CS|48=JP3435000009|20=0|21=2|22=4|54=5|55=6758|207=JP|58=PARTIAL FILL|59=0|10=124|
8=FIX.4.2|9=314|35=8|34=132|49=BLPDROP|50=BMTB|52=20090120-16:17:43|56=MALBEC|57=809063|1=TEST|6=40.5|11=20090120-00005|12=0.000003|13=2|14=350|17=104|20=0|21=2|22=4|30=N|31=40.5|32=50|37=TBX81090117|38=1000|39=1|40=1|44=0|48=JP3435000009|54=5|55=6758|58=PARTIAL FILL|59=0|60=20090120-16:17:43|76=BMTB|150=1|151=650|167=CS|207=JP|10=076|
8=FIX.4.2|9=314|35=8|34=132|49=BLPDROP|50=BMTB|52=20090120-16:17:43|56=MALBEC|57=809063|1=TEST|6=40.5|11=20090120-00005|12=0.000003|13=2|14=350|17=104|20=0|21=2|22=4|30=N|31=40.5|32=50|37=TBX81090117|38=1000|39=1|40=1|44=0|48=JP3435000009|54=5|55=6758|58=PARTIAL FILL|59=0|60=20090120-16:17:43|76=BMTB|150=1|151=650|167=CS|207=JP|10=076|
8=FIX.4.2|9=314|35=8|34=132|49=BLPDROP|50=BMTB|52=20090120-16:17:43|56=MALBEC|57=809063|1=TEST|6=40.5|11=20090120-00005|12=0.000003|13=2|14=350|17=104|20=0|21=2|22=4|30=N|31=40.5|32=50|37=TBX81090117|38=1000|39=1|40=1|44=0|48=JP3435000009|54=5|55=6758|58=PARTIAL FILL|59=0|60=20090120-16:17:43|76=BMTB|150=1|151=650|167=CS|207=JP|10=076|
8=FIX.4.2|9=314|35=8|34=132|49=BLPDROP|50=BMTB|52=20090120-16:17:43|56=MALBEC|57=809063|1=TEST|6=40.5|11=20090120-00005|12=0.000003|13=2|14=350|17=104|20=0|21=2|22=4|30=N|31=40.5|32=50|37=TBX81090117|38=1000|39=1|40=1|44=0|48=JP3435000009|54=5|55=6758|58=PARTIAL FILL|59=0|60=20090120-16:17:43|76=BMTB|150=1|151=650|167=CS|207=JP|10=076|
8=FIX.4.2|9=0314|35=8|49=BLPDROP|56=MALBEC|34=133|52=20090120-16:17:58|50=BMTB|57=809063|30=N|60=20090120-16:17:58|150=1|1=TEST|31=40.5|151=600|32=50|6=40.5|37=TBX81090117|38=1000|39=1|40=1|11=20090120-00005|12=0.000003|13=2|14=400|44=0|76=BMTB|17=105|167=CS|48=JP3435000009|20=0|21=2|22=4|54=5|55=6758|207=JP|58=PARTIAL FILL|59=0|10=129|
8=FIX.4.2|9=314|35=8|34=133|49=BLPDROP|50=BMTB|52=20090120-16:17:58|56=MALBEC|57=809063|1=TEST|6=40.5|11=20090120-00005|12=0.000003|13=2|14=400|17=105|20=0|21=2|22=4|30=N|31=40.5|32=50|37=TBX81090117|38=1000|39=1|40=1|44=0|48=JP3435000009|54=5|55=6758|58=PARTIAL FILL|59=0|60=20090120-16:17:58|76=BMTB|150=1|151=600|167=CS|207=JP|10=081|
8=FIX.4.2|9=314|35=8|34=133|49=BLPDROP|50=BMTB|52=20090120-16:17:58|56=MALBEC|57=809063|1=TEST|6=40.5|11=20090120-00005|12=0.000003|13=2|14=400|17=105|20=0|21=2|22=4|30=N|31=40.5|32=50|37=TBX81090117|38=1000|39=1|40=1|44=0|48=JP3435000009|54=5|55=6758|58=PARTIAL FILL|59=0|60=20090120-16:17:58|76=BMTB|150=1|151=600|167=CS|207=JP|10=081|
8=FIX.4.2|9=314|35=8|34=133|49=BLPDROP|50=BMTB|52=20090120-16:17:58|56=MALBEC|57=809063|1=TEST|6=40.5|11=20090120-00005|12=0.000003|13=2|14=400|17=105|20=0|21=2|22=4|30=N|31=40.5|32=50|37=TBX81090117|38=1000|39=1|40=1|44=0|48=JP3435000009|54=5|55=6758|58=PARTIAL FILL|59=0|60=20090120-16:17:58|76=BMTB|150=1|151=600|167=CS|207=JP|10=081|
8=FIX.4.2|9=314|35=8|34=133|49=BLPDROP|50=BMTB|52=20090120-16:17:58|56=MALBEC|57=809063|1=TEST|6=40.5|11=20090120-00005|12=0.000003|13=2|14=400|17=105|20=0|21=2|22=4|30=N|31=40.5|32=50|37=TBX81090117|38=1000|39=1|40=1|44=0|48=JP3435000009|54=5|55=6758|58=PARTIAL FILL|59=0|60=20090120-16:17:58|76=BMTB|150=1|151=600|167=CS|207=JP|10=081|
8=FIX.4.2|9=0314|35=8|49=BLPDROP|56=MALBEC|34=134|52=20090120-16:18:13|50=BMTB|57=809063|30=N|60=20090120-16:18:13|150=1|1=TEST|31=40.5|151=550|32=50|6=40.5|37=TBX81090117|38=1000|39=1|40=1|11=20090120-00005|12=0.000003|13=2|14=450|44=0|76=BMTB|17=106|167=CS|48=JP3435000009|20=0|21=2|22=4|54=5|55=6758|207=JP|58=PARTIAL FILL|59=0|10=124|
8=FIX.4.2|9=314|35=8|34=134|49=BLPDROP|50=BMTB|52=20090120-16:18:13|56=MALBEC|57=809063|1=TEST|6=40.5|11=20090120-00005|12=0.000003|13=2|14=450|17=106|20=0|21=2|22=4|30=N|31=40.5|32=50|37=TBX81090117|38=1000|39=1|40=1|44=0|48=JP3435000009|54=5|55=6758|58=PARTIAL FILL|59=0|60=20090120-16:18:13|76=BMTB|150=1|151=550|167=CS|207=JP|10=076|
8=FIX.4.2|9=314|35=8|34=134|49=BLPDROP|50=BMTB|52=20090120-16:18:13|56=MALBEC|57=809063|1=TEST|6=40.5|11=20090120-00005|12=0.000003|13=2|14=450|17=106|20=0|21=2|22=4|30=N|31=40.5|32=50|37=TBX81090117|38=1000|39=1|40=1|44=0|48=JP3435000009|54=5|55=6758|58=PARTIAL FILL|59=0|60=20090120-16:18:13|76=BMTB|150=1|151=550|167=CS|207=JP|10=076|
8=FIX.4.2|9=314|35=8|34=134|49=BLPDROP|50=BMTB|52=20090120-16:18:13|56=MALBEC|57=809063|1=TEST|6=40.5|11=20090120-00005|12=0.000003|13=2|14=450|17=106|20=0|21=2|22=4|30=N|31=40.5|32=50|37=TBX81090117|38=1000|39=1|40=1|44=0|48=JP3435000009|54=5|55=6758|58=PARTIAL FILL|59=0|60=20090120-16:18:13|76=BMTB|150=1|151=550|167=CS|207=JP|10=076|
8=FIX.4.2|9=314|35=8|34=134|49=BLPDROP|50=BMTB|52=20090120-16:18:13|56=MALBEC|57=809063|1=TEST|6=40.5|11=20090120-00005|12=0.000003|13=2|14=450|17=106|20=0|21=2|22=4|30=N|31=40.5|32=50|37=TBX81090117|38=1000|39=1|40=1|44=0|48=JP3435000009|54=5|55=6758|58=PARTIAL FILL|59=0|60=20090120-16:18:13|76=BMTB|150=1|151=550|167=CS|207=JP|10=076|
8=FIX.4.2|9=0314|35=8|49=BLPDROP|56=MALBEC|34=135|52=20090120-16:18:28|50=BMTB|57=809063|30=N|60=20090120-16:18:28|150=1|1=TEST|31=40.5|151=500|32=50|6=40.5|37=TBX81090117|38=1000|39=1|40=1|11=20090120-00005|12=0.000003|13=2|14=500|44=0|76=BMTB|17=107|167=CS|48=JP3435000009|20=0|21=2|22=4|54=5|55=6758|207=JP|58=PARTIAL FILL|59=0|10=129|
8=FIX.4.2|9=314|35=8|34=135|49=BLPDROP|50=BMTB|52=20090120-16:18:28|56=MALBEC|57=809063|1=TEST|6=40.5|11=20090120-00005|12=0.000003|13=2|14=500|17=107|20=0|21=2|22=4|30=N|31=40.5|32=50|37=TBX81090117|38=1000|39=1|40=1|44=0|48=JP3435000009|54=5|55=6758|58=PARTIAL FILL|59=0|60=20090120-16:18:28|76=BMTB|150=1|151=500|167=CS|207=JP|10=081|
8=FIX.4.2|9=314|35=8|34=135|49=BLPDROP|50=BMTB|52=20090120-16:18:28|56=MALBEC|57=809063|1=TEST|6=40.5|11=20090120-00005|12=0.000003|13=2|14=500|17=107|20=0|21=2|22=4|30=N|31=40.5|32=50|37=TBX81090117|38=1000|39=1|40=1|44=0|48=JP3435000009|54=5|55=6758|58=PARTIAL FILL|59=0|60=20090120-16:18:28|76=BMTB|150=1|151=500|167=CS|207=JP|10=081|
8=FIX.4.2|9=314|35=8|34=135|49=BLPDROP|50=BMTB|52=20090120-16:18:28|56=MALBEC|57=809063|1=TEST|6=40.5|11=20090120-00005|12=0.000003|13=2|14=500|17=107|20=0|21=2|22=4|30=N|31=40.5|32=50|37=TBX81090117|38=1000|39=1|40=1|44=0|48=JP3435000009|54=5|55=6758|58=PARTIAL FILL|59=0|60=20090120-16:18:28|76=BMTB|150=1|151=500|167=CS|207=JP|10=081|
8=FIX.4.2|9=314|35=8|34=135|49=BLPDROP|50=BMTB|52=20090120-16:18:28|56=MALBEC|57=809063|1=TEST|6=40.5|11=20090120-00005|12=0.000003|13=2|14=500|17=107|20=0|21=2|22=4|30=N|31=40.5|32=50|37=TBX81090117|38=1000|39=1|40=1|44=0|48=JP3435000009|54=5|55=6758|58=PARTIAL FILL|59=0|60=20090120-16:18:28|76=BMTB|150=1|151=500|167=CS|207=JP|10=081|
8=FIX.4.2|9=0314|35=8|49=BLPDROP|56=MALBEC|34=136|52=20090120-16:18:43|50=BMTB|57=809063|30=N|60=20090120-16:18:43|150=1|1=TEST|31=40.5|151=450|32=50|6=40.5|37=TBX81090117|38=1000|39=1|40=1|11=20090120-00005|12=0.000003|13=2|14=550|44=0|76=BMTB|17=108|167=CS|48=JP3435000009|20=0|21=2|22=4|54=5|55=6758|207=JP|58=PARTIAL FILL|59=0|10=134|
8=FIX.4.2|9=314|35=8|34=136|49=BLPDROP|50=BMTB|52=20090120-16:18:43|56=MALBEC|57=809063|1=TEST|6=40.5|11=20090120-00005|12=0.000003|13=2|14=550|17=108|20=0|21=2|22=4|30=N|31=40.5|32=50|37=TBX81090117|38=1000|39=1|40=1|44=0|48=JP3435000009|54=5|55=6758|58=PARTIAL FILL|59=0|60=20090120-16:18:43|76=BMTB|150=1|151=450|167=CS|207=JP|10=086|
8=FIX.4.2|9=314|35=8|34=136|49=BLPDROP|50=BMTB|52=20090120-16:18:43|56=MALBEC|57=809063|1=TEST|6=40.5|11=20090120-00005|12=0.000003|13=2|14=550|17=108|20=0|21=2|22=4|30=N|31=40.5|32=50|37=TBX81090117|38=1000|39=1|40=1|44=0|48=JP3435000009|54=5|55=6758|58=PARTIAL FILL|59=0|60=20090120-16:18:43|76=BMTB|150=1|151=450|167=CS|207=JP|10=086|
8=FIX.4.2|9=314|35=8|34=136|49=BLPDROP|50=BMTB|52=20090120-16:18:43|56=MALBEC|57=809063|1=TEST|6=40.5|11=20090120-00005|12=0.000003|13=2|14=550|17=108|20=0|21=2|22=4|30=N|31=40.5|32=50|37=TBX81090117|38=1000|39=1|40=1|44=0|48=JP3435000009|54=5|55=6758|58=PARTIAL FILL|59=0|60=20090120-16:18:43|76=BMTB|150=1|151=450|167=CS|207=JP|10=086|
8=FIX.4.2|9=314|35=8|34=136|49=BLPDROP|50=BMTB|52=20090120-16:18:43|56=MALBEC|57=809063|1=TEST|6=40.5|11=20090120-00005|12=0.000003|13=2|14=550|17=108|20=0|21=2|22=4|30=N|31=40.5|32=50|37=TBX81090117|38=1000|39=1|40=1|44=0|48=JP3435000009|54=5|55=6758|58=PARTIAL FILL|59=0|60=20090120-16:18:43|76=BMTB|150=1|151=450|167=CS|207=JP|10=086|
8=FIX.4.2|9=0314|35=8|49=BLPDROP|56=MALBEC|34=137|52=20090120-16:18:58|50=BMTB|57=809063|30=N|60=20090120-16:18:58|150=1|1=TEST|31=40.5|151=400|32=50|6=40.5|37=TBX81090117|38=1000|39=1|40=1|11=20090120-00005|12=0.000003|13=2|14=600|44=0|76=BMTB|17=109|167=CS|48=JP3435000009|20=0|21=2|22=4|54=5|55=6758|207=JP|58=PARTIAL FILL|59=0|10=139|
8=FIX.4.2|9=314|35=8|34=137|49=BLPDROP|50=BMTB|52=20090120-16:18:58|56=MALBEC|57=809063|1=TEST|6=40.5|11=20090120-00005|12=0.000003|13=2|14=600|17=109|20=0|21=2|22=4|30=N|31=40.5|32=50|37=TBX81090117|38=1000|39=1|40=1|44=0|48=JP3435000009|54=5|55=6758|58=PARTIAL FILL|59=0|60=20090120-16:18:58|76=BMTB|150=1|151=400|167=CS|207=JP|10=091|
8=FIX.4.2|9=314|35=8|34=137|49=BLPDROP|50=BMTB|52=20090120-16:18:58|56=MALBEC|57=809063|1=TEST|6=40.5|11=20090120-00005|12=0.000003|13=2|14=600|17=109|20=0|21=2|22=4|30=N|31=40.5|32=50|37=TBX81090117|38=1000|39=1|40=1|44=0|48=JP3435000009|54=5|55=6758|58=PARTIAL FILL|59=0|60=20090120-16:18:58|76=BMTB|150=1|151=400|167=CS|207=JP|10=091|
8=FIX.4.2|9=314|35=8|34=137|49=BLPDROP|50=BMTB|52=20090120-16:18:58|56=MALBEC|57=809063|1=TEST|6=40.5|11=20090120-00005|12=0.000003|13=2|14=600|17=109|20=0|21=2|22=4|30=N|31=40.5|32=50|37=TBX81090117|38=1000|39=1|40=1|44=0|48=JP3435000009|54=5|55=6758|58=PARTIAL FILL|59=0|60=20090120-16:18:58|76=BMTB|150=1|151=400|167=CS|207=JP|10=091|
8=FIX.4.2|9=314|35=8|34=137|49=BLPDROP|50=BMTB|52=20090120-16:18:58|56=MALBEC|57=809063|1=TEST|6=40.5|11=20090120-00005|12=0.000003|13=2|14=600|17=109|20=0|21=2|22=4|30=N|31=40.5|32=50|37=TBX81090117|38=1000|39=1|40=1|44=0|48=JP3435000009|54=5|55=6758|58=PARTIAL FILL|59=0|60=20090120-16:18:58|76=BMTB|150=1|151=400|167=CS|207=JP|10=091|
8=FIX.4.2|9=0314|35=8|49=BLPDROP|56=MALBEC|34=138|52=20090120-16:19:13|50=BMTB|57=809063|30=N|60=20090120-16:19:13|150=1|1=TEST|31=40.5|151=350|32=50|6=40.5|37=TBX81090117|38=1000|39=1|40=1|11=20090120-00005|12=0.000003|13=2|14=650|44=0|76=BMTB|17=110|167=CS|48=JP3435000009|20=0|21=2|22=4|54=5|55=6758|207=JP|58=PARTIAL FILL|59=0|10=125|
8=FIX.4.2|9=314|35=8|34=138|49=BLPDROP|50=BMTB|52=20090120-16:19:13|56=MALBEC|57=809063|1=TEST|6=40.5|11=20090120-00005|12=0.000003|13=2|14=650|17=110|20=0|21=2|22=4|30=N|31=40.5|32=50|37=TBX81090117|38=1000|39=1|40=1|44=0|48=JP3435000009|54=5|55=6758|58=PARTIAL FILL|59=0|60=20090120-16:19:13|76=BMTB|150=1|151=350|167=CS|207=JP|10=077|
8=FIX.4.2|9=314|35=8|34=138|49=BLPDROP|50=BMTB|52=20090120-16:19:13|56=MALBEC|57=809063|1=TEST|6=40.5|11=20090120-00005|12=0.000003|13=2|14=650|17=110|20=0|21=2|22=4|30=N|31=40.5|32=50|37=TBX81090117|38=1000|39=1|40=1|44=0|48=JP3435000009|54=5|55=6758|58=PARTIAL FILL|59=0|60=20090120-16:19:13|76=BMTB|150=1|151=350|167=CS|207=JP|10=077|
8=FIX.4.2|9=314|35=8|34=138|49=BLPDROP|50=BMTB|52=20090120-16:19:13|56=MALBEC|57=809063|1=TEST|6=40.5|11=20090120-00005|12=0.000003|13=2|14=650|17=110|20=0|21=2|22=4|30=N|31=40.5|32=50|37=TBX81090117|38=1000|39=1|40=1|44=0|48=JP3435000009|54=5|55=6758|58=PARTIAL FILL|59=0|60=20090120-16:19:13|76=BMTB|150=1|151=350|167=CS|207=JP|10=077|
8=FIX.4.2|9=314|35=8|34=138|49=BLPDROP|50=BMTB|52=20090120-16:19:13|56=MALBEC|57=809063|1=TEST|6=40.5|11=20090120-00005|12=0.000003|13=2|14=650|17=110|20=0|21=2|22=4|30=N|31=40.5|32=50|37=TBX81090117|38=1000|39=1|40=1|44=0|48=JP3435000009|54=5|55=6758|58=PARTIAL FILL|59=0|60=20090120-16:19:13|76=BMTB|150=1|151=350|167=CS|207=JP|10=077|
8=FIX.4.2|9=0314|35=8|49=BLPDROP|56=MALBEC|34=139|52=20090120-16:19:28|50=BMTB|57=809063|30=N|60=20090120-16:19:28|150=1|1=TEST|31=40.5|151=300|32=50|6=40.5|37=TBX81090117|38=1000|39=1|40=1|11=20090120-00005|12=0.000003|13=2|14=700|44=0|76=BMTB|17=111|167=CS|48=JP3435000009|20=0|21=2|22=4|54=5|55=6758|207=JP|58=PARTIAL FILL|59=0|10=130|
8=FIX.4.2|9=314|35=8|34=139|49=BLPDROP|50=BMTB|52=20090120-16:19:28|56=MALBEC|57=809063|1=TEST|6=40.5|11=20090120-00005|12=0.000003|13=2|14=700|17=111|20=0|21=2|22=4|30=N|31=40.5|32=50|37=TBX81090117|38=1000|39=1|40=1|44=0|48=JP3435000009|54=5|55=6758|58=PARTIAL FILL|59=0|60=20090120-16:19:28|76=BMTB|150=1|151=300|167=CS|207=JP|10=082|
8=FIX.4.2|9=314|35=8|34=139|49=BLPDROP|50=BMTB|52=20090120-16:19:28|56=MALBEC|57=809063|1=TEST|6=40.5|11=20090120-00005|12=0.000003|13=2|14=700|17=111|20=0|21=2|22=4|30=N|31=40.5|32=50|37=TBX81090117|38=1000|39=1|40=1|44=0|48=JP3435000009|54=5|55=6758|58=PARTIAL FILL|59=0|60=20090120-16:19:28|76=BMTB|150=1|151=300|167=CS|207=JP|10=082|
8=FIX.4.2|9=314|35=8|34=139|49=BLPDROP|50=BMTB|52=20090120-16:19:28|56=MALBEC|57=809063|1=TEST|6=40.5|11=20090120-00005|12=0.000003|13=2|14=700|17=111|20=0|21=2|22=4|30=N|31=40.5|32=50|37=TBX81090117|38=1000|39=1|40=1|44=0|48=JP3435000009|54=5|55=6758|58=PARTIAL FILL|59=0|60=20090120-16:19:28|76=BMTB|150=1|151=300|167=CS|207=JP|10=082|
8=FIX.4.2|9=314|35=8|34=139|49=BLPDROP|50=BMTB|52=20090120-16:19:28|56=MALBEC|57=809063|1=TEST|6=40.5|11=20090120-00005|12=0.000003|13=2|14=700|17=111|20=0|21=2|22=4|30=N|31=40.5|32=50|37=TBX81090117|38=1000|39=1|40=1|44=0|48=JP3435000009|54=5|55=6758|58=PARTIAL FILL|59=0|60=20090120-16:19:28|76=BMTB|150=1|151=300|167=CS|207=JP|10=082|
8=FIX.4.2|9=0314|35=8|49=BLPDROP|56=MALBEC|34=140|52=20090120-16:19:43|50=BMTB|57=809063|30=N|60=20090120-16:19:43|150=1|1=TEST|31=40.5|151=250|32=50|6=40.5|37=TBX81090117|38=1000|39=1|40=1|11=20090120-00005|12=0.000003|13=2|14=750|44=0|76=BMTB|17=112|167=CS|48=JP3435000009|20=0|21=2|22=4|54=5|55=6758|207=JP|58=PARTIAL FILL|59=0|10=126|
8=FIX.4.2|9=314|35=8|34=140|49=BLPDROP|50=BMTB|52=20090120-16:19:43|56=MALBEC|57=809063|1=TEST|6=40.5|11=20090120-00005|12=0.000003|13=2|14=750|17=112|20=0|21=2|22=4|30=N|31=40.5|32=50|37=TBX81090117|38=1000|39=1|40=1|44=0|48=JP3435000009|54=5|55=6758|58=PARTIAL FILL|59=0|60=20090120-16:19:43|76=BMTB|150=1|151=250|167=CS|207=JP|10=078|
8=FIX.4.2|9=314|35=8|34=140|49=BLPDROP|50=BMTB|52=20090120-16:19:43|56=MALBEC|57=809063|1=TEST|6=40.5|11=20090120-00005|12=0.000003|13=2|14=750|17=112|20=0|21=2|22=4|30=N|31=40.5|32=50|37=TBX81090117|38=1000|39=1|40=1|44=0|48=JP3435000009|54=5|55=6758|58=PARTIAL FILL|59=0|60=20090120-16:19:43|76=BMTB|150=1|151=250|167=CS|207=JP|10=078|
