8=FIX.4.2|9=267|35=8|34=60|49=REDIRPT|52=20081204-18:30:03.366|56=MALBECRPT|97=Y|1=CPNSWAPF|6=0|11=LBE0001|14=1|15=USD|17=906510034|20=0|31=124.0625|32=1|37=LBE0001VS10034|38=10|39=1|40=1|44=124.0625|54=1|55=TYH9|60=20081204-12:26:35.000|76=GSCO|150=1|151=9|167=FUT|200=200903|207=2|10=085|
8=FIX.4.2|9=328|35=8|34=2526|49=REDIRPT|50=gc318119|52=20090413-19:09:13|56=MALBECRPT|128=SILK|1=FADERCLS|6=0.7268|11=192669|14=5|15=USD|17=906512959|20=0|29=1|30=2|31=0.726800|32=5|37=PZL00011VS15000|38=5|39=2|40=2|44=0.726800|47=E|54=2|55=ADM9|59=0|60=20090413-15:09:13|76=GSCO|109=FADERCLS|113=N|150=2|151=0|167=FUT|200=200906|207=2|439=998|10=215|
8=FIX.4.2|9=336|35=8|34=1934|49=REDIRPT|50=gc318117|52=20090521-14:21:09|56=MALBECRPT|128=SILK|1=NBARFADE|6=887.2500|11=917|14=1|15=USD|17=1248714953|20=0|29=1|30=CME|31=887.250000|32=1|37=LBE00001pA12281|38=7|39=1|40=2|44=887.250000|47=E|54=2|55=ESM9|59=0|60=20090521-10:21:09|76=GSCO|109=NBARFADE|113=N|150=1|151=6|167=FUT|200=200906|207=CME|439=998|10=174|
8=FIX.4.2|9=253|35=8|34=1516|49=REDIRPT|52=20090106-20:55:30.821|56=MALBECRPT|97=Y|1=MSCO|6=0|11=IRD0203|14=9900|15=USD|17=1280392594|20=0|31=23.96|32=300|37=IRD0203wP92594|38=15516|39=1|40=1|44=23.96|54=1|55=XLP|60=20090106-20:55:21.000|76=NSDQ|150=1|151=5616|207=OTC|10=235|

