8=FIX.4.2|9=332|35=8|34=1865|49=REDIRPT|50=gc318119|52=20080818-14:48:58|56=MALBECRPT|128=SILK|1=NDAYBRK|6=117.7812|11=730|14=38|15=USD|17=906510662|20=0|29=1|30=2|31=117.781250|32=38|37=PZL00044VS10560|38=38|39=2|40=2|44=117.781250|47=E|54=1|55=USU8|59=0|60=20080818-10:30:09|76=GSCO|109=NDAYBRK|113=N|150=2|151=0|167=FUT|200=200809|207=2|439=998|10=216|
8=FIX.4.2|9=332|35=8|34=1865|49=REDIRPT|50=gc318119|52=20080818-14:48:58|56=MALBECRPT|128=SILK|1=NDAYBRK|6=117.7812|11=730|14=38|15=USD|17=906510662|20=0|29=1|30=2|31=117.781250|32=38|37=PZL00044VS10560|38=38|39=2|40=2|44=117.781250|47=E|54=1|55=USU8|59=0|60=20080818-10:30:09|76=GSCO|109=NDAYBRK|113=N|150=2|151=0|167=FUT|200=200809|207=2|439=998|10=216|