8=FIX.4.2|9=289|35=8|34=2863|49=TRAD|52=20080130-21:30:09|56=FFTW|57=444138|97=N|1=1TS001|6=1.9854|14=1|17=84100120080130153009TN0023798|20=0|31=1.9854|32=1|37=109103280|38=1|39=2|40=2|44=1.9854|54=1|55=6B|59=0|60=20080130-21:30:09|63=6|64=20080130|150=2|151=0|167=FUT|200=200803|201=0|202=0|205=17|207=2|10=127|
8=FIX.4.2|9=295|35=8|34=4935|49=TRAD|52=20080131-14:50:01|56=FFTW|57=444138|97=N|1=1TS001|6=106.796875|14=1|17=29700120080131085001TN0016037|20=0|31=106.796875|32=1|37=109151970|38=1|39=2|40=2|44=106.796875|54=1|55=ZT|59=0|60=20080131-14:50:01|63=6|64=20080131|150=2|151=0|167=FUT|200=200803|201=0|202=0|205=31|10=035|
8=FIX.4.2|9=238|35=8|34=9940|49=TRAD|52=20080214-20:42:51|56=FFTW|57=444139|97=N|1=17281450|6=23.13|14=1|17=WC24054050129379|20=0|31=23.13|32=1|37=111215116|38=1|39=2|40=2|44=23.13|54=5|55=UNM|59=0|60=20080214-20:42:45|63=0|150=2|151=0|201=0|202=0|207=N|10=179|