8=FIX.4.2|9=253|35=8|34=1516|49=REDIRPT|52=20090106-20:55:30.821|56=MALBECRPT|97=Y|1=MSCO|6=0|11=IRD0203|14=9900|15=USD|17=1280392594|20=0|31=23.96|32=300|37=IRD0203wP92594|38=15516|39=1|40=1|44=23.96|54=1|55=XLP|60=20090106-20:55:21.000|76=NSDQ|150=1|151=5616|207=OTC|10=235|
8=FIX.4.2|9=340|35=8|34=2262|49=REDIRPT|50=gc320436|52=20090522-17:07:29|56=MALBECRPT|128=SILK|1=STRSTGTY|6=117.6562|11=1374|14=13|15=USD|17=1250319321|20=0|29=1|30=CME|31=117.656250|32=13|37=LPB00005pQ13306|38=13|39=2|40=2|44=117.656250|47=E|54=2|55=TYU9|59=0|60=20090522-13:07:29|76=GSCO|109=STRSTGTY|113=N|150=2|151=0|167=FUT|200=200909|207=CME|439=998|10=101|
8=FIX.4.2|9=332|35=8|34=2276|49=REDIRPT|50=gc318120|52=20090522-17:14:23|56=MALBECRPT|128=SILK|1=NDAYBRK|6=119.4219|11=102891|14=1|15=USD|17=906512747|20=0|29=1|30=2|31=119.421875|32=1|37=IRD00009VS14418|38=8|39=1|40=2|44=119.421875|47=E|54=2|55=USM9|59=0|60=20090522-13:14:23|76=GSCO|109=NDAYBRK|113=N|150=1|151=7|167=FUT|200=200906|207=2|439=998|10=162|
8=FIX.4.2|9=336|35=8|34=1922|49=REDIRPT|50=gc318117|52=20090526-14:16:09|56=MALBECRPT|128=SILK|1=NBARFADE|6=901.7500|11=977|14=5|15=USD|17=1248716499|20=0|29=1|30=CME|31=901.750000|32=5|37=LBE00001pA12824|38=7|39=1|40=2|44=901.750000|47=E|54=1|55=ESM9|59=0|60=20090526-10:16:09|76=GSCO|109=NBARFADE|113=N|150=1|151=2|167=FUT|200=200906|207=CME|439=998|10=184|
8=FIX.4.2|9=319|35=8|34=1957|49=REDIRPT|50=gc318120|52=20090526-14:32:36|56=MALBECRPT|128=SILK|1=NDAYBRK|6=108.8672|11=81357|14=1|15=USD|17=906511020|20=0|30=2|31=108.867188|32=1|37=IRD00006VS11639|38=1|39=2|40=2|44=0.546875|54=2|55=TUM9|59=0|60=20090526-10:32:36|76=GSCO|109=NDAYBRK|113=N|150=2|151=0|167=FUT|200=200906|207=2|439=998|10=079|
8=FIX.4.4|9=311|35=8|49=REDI|56=MALBEC|34=2051|50=gc320436|52=20090427-15:10:02|37=LPB00001|11=20090427-0T00016|17=51071193711709|150=0|39=0|1=NDAYBRK|55=ECM9|48=UROM9|22=5|54=1|38=6|40=4|44=1.33800000|99=1.33800000|59=0|32=0|31=0|30=XCME|151=6|14=0|6=0.00000000|60=20090427-15:10:02|453=1|448=BLACKBOX|447=C|452=11|461=FXXXXX|10=185|
8=FIX.4.4|9=352|35=8|34=2534|49=REDI|50=gc320436|52=20090622-19:00:08|56=MALBEC|1=FADERCLS|6=0.86840000|11=20090622-0T00055|14=1|15=USD|17=HRNB718620090622|22=5|29=1|30=XCME|31=0.86840000|32=1|37=LPB00014|38=1|39=2|40=2|44=0.86840000|48=CDU9|54=2|55=CDU9|59=0|60=20090622-19:00:08|75=20090622|99=0.00000000|113=N|150=F|151=0|447=C|448=BLACKBOX|452=11|453=1|461=FXXXXX|10=036|
8=FIX.4.4|9=351|35=8|34=2764|49=REDI|50=gc320436|52=20090622-20:53:44|56=MALBEC|1=NDAYBRK|6=0.77970000|11=20090622-0T00017|14=9|15=USD|17=HRNB856020090622|22=5|29=1|30=XCME|31=0.77970000|32=9|37=LPB00007|38=9|39=2|40=4|44=0.77970000|48=ADU9|54=2|55=ADU9|59=0|60=20090622-20:53:44|75=20090622|99=0.77970000|113=N|150=F|151=0|447=C|448=BLACKBOX|452=11|453=1|461=FXXXXX|10=044|
8=FIX.4.2|9=322|35=8|34=2021|49=REDIRPT|50=gc318120|52=20090526-14:46:19|56=MALBECRPT|128=SILK|1=NDAYBRK|6=119.1719|11=88017|14=29|15=USD|17=906511238|20=0|30=2|31=119.171875|32=29|37=IRD00018VS11920|38=29|39=2|40=2|44=1.515625|54=1|55=TYM9|59=0|60=20090526-10:46:19|76=GSCO|109=NDAYBRK|113=N|150=2|151=0|167=FUT|200=200906|207=2|439=998|10=232|
8=FIX.4.2|9=332|35=8|34=2277|49=REDIRPT|50=gc318120|52=20090522-17:14:23|56=MALBECRPT|128=SILK|1=NDAYBRK|6=119.4219|11=102893|14=2|15=USD|17=906512748|20=0|29=1|30=2|31=119.421875|32=1|37=IRD00009VS14418|38=8|39=1|40=2|44=119.421875|47=E|54=2|55=USM9|59=0|60=20090522-13:14:23|76=GSCO|109=NDAYBRK|113=N|150=1|151=6|167=FUT|200=200906|207=2|439=998|10=166|
8=FIX.4.2|9=332|35=8|34=2278|49=REDIRPT|50=gc318120|52=20090522-17:14:27|56=MALBECRPT|128=SILK|1=NDAYBRK|6=119.4219|11=102938|14=3|15=USD|17=906512749|20=0|29=1|30=2|31=119.421875|32=1|37=IRD00009VS14418|38=8|39=1|40=2|44=119.421875|47=E|54=2|55=USM9|59=0|60=20090522-13:14:27|76=GSCO|109=NDAYBRK|113=N|150=1|151=5|167=FUT|200=200906|207=2|439=998|10=176|
8=FIX.4.2|9=332|35=8|34=2279|49=REDIRPT|50=gc318120|52=20090522-17:14:36|56=MALBECRPT|128=SILK|1=NDAYBRK|6=119.4219|11=102978|14=8|15=USD|17=906512750|20=0|29=1|30=2|31=119.421875|32=5|37=IRD00009VS14418|38=8|39=2|40=2|44=119.421875|47=E|54=2|55=USM9|59=0|60=20090522-13:14:36|76=GSCO|109=NDAYBRK|113=N|150=2|151=0|167=FUT|200=200906|207=2|439=998|10=179|
8=FIX.4.2|9=327|35=8|34=1617|49=REDIRPT|50=gc318120|52=20090526-11:44:10|56=MALBECRPT|128=SILK|1=NDAYBRK|6=119.6094|11=8|14=7|15=USD|17=906510001|20=0|29=1|30=2|31=119.609375|32=7|37=IRD00001VS10001|38=8|39=1|40=2|44=119.609375|47=E|54=1|55=USM9|59=0|60=20090526-07:44:10|76=GSCO|109=NDAYBRK|113=N|150=1|151=1|167=FUT|200=200906|207=2|439=998|10=141|
8=FIX.4.2|9=327|35=8|34=1618|49=REDIRPT|50=gc318120|52=20090526-11:44:10|56=MALBECRPT|128=SILK|1=NDAYBRK|6=119.6094|11=9|14=8|15=USD|17=906510002|20=0|29=1|30=2|31=119.609375|32=1|37=IRD00001VS10001|38=8|39=2|40=2|44=119.609375|47=E|54=1|55=USM9|59=0|60=20090526-07:44:10|76=GSCO|109=NDAYBRK|113=N|150=2|151=0|167=FUT|200=200906|207=2|439=998|10=140|
8=FIX.4.2|9=336|35=8|34=1923|49=REDIRPT|50=gc318117|52=20090526-14:16:09|56=MALBECRPT|128=SILK|1=NBARFADE|6=901.7500|11=978|14=7|15=USD|17=1248716500|20=0|29=1|30=CME|31=901.750000|32=2|37=LBE00001pA12824|38=7|39=2|40=2|44=901.750000|47=E|54=1|55=ESM9|59=0|60=20090526-10:16:09|76=GSCO|109=NBARFADE|113=N|150=2|151=0|167=FUT|200=200906|207=CME|439=998|10=168|
8=FIX.4.2|9=319|35=8|34=1958|49=REDIRPT|50=gc318120|52=20090526-14:32:36|56=MALBECRPT|128=SILK|1=NDAYBRK|6=108.3203|11=81358|14=1|15=USD|17=906511021|20=0|30=2|31=108.320312|32=1|37=IRD00007VS11640|38=1|39=2|40=2|44=0.546875|54=1|55=TUU9|59=0|60=20090526-10:32:36|76=GSCO|109=NDAYBRK|113=N|150=2|151=0|167=FUT|200=200909|207=2|439=998|10=043|
8=FIX.4.2|9=323|35=8|34=1978|49=REDIRPT|50=gc318120|52=20090526-14:42:11|56=MALBECRPT|128=SILK|1=NDAYBRK|6=108.8672|11=86454|14=57|15=USD|17=906511116|20=0|30=2|31=108.867188|32=57|37=IRD00009VS11669|38=89|39=1|40=2|44=0.554688|54=2|55=TUM9|59=0|60=20090526-10:42:11|76=GSCO|109=NDAYBRK|113=N|150=1|151=32|167=FUT|200=200906|207=2|439=998|10=058|
8=FIX.4.2|9=323|35=8|34=1979|49=REDIRPT|50=gc318120|52=20090526-14:42:11|56=MALBECRPT|128=SILK|1=NDAYBRK|6=108.3125|11=86455|14=57|15=USD|17=906511117|20=0|30=2|31=108.312500|32=57|37=IRD00010VS11670|38=89|39=1|40=2|44=0.554688|54=1|55=TUU9|59=0|60=20090526-10:42:11|76=GSCO|109=NDAYBRK|113=N|150=1|151=32|167=FUT|200=200909|207=2|439=998|10=016|
8=FIX.4.2|9=322|35=8|34=1980|49=REDIRPT|50=gc318120|52=20090526-14:42:17|56=MALBECRPT|128=SILK|1=NDAYBRK|6=108.8672|11=86473|14=58|15=USD|17=906511120|20=0|30=2|31=108.867188|32=1|37=IRD00009VS11669|38=89|39=1|40=2|44=0.554688|54=2|55=TUM9|59=0|60=20090526-10:42:17|76=GSCO|109=NDAYBRK|113=N|150=1|151=31|167=FUT|200=200906|207=2|439=998|10=255|
8=FIX.4.2|9=322|35=8|34=1981|49=REDIRPT|50=gc318120|52=20090526-14:42:17|56=MALBECRPT|128=SILK|1=NDAYBRK|6=108.3125|11=86474|14=58|15=USD|17=906511121|20=0|30=2|31=108.312500|32=1|37=IRD00010VS11670|38=89|39=1|40=2|44=0.554688|54=1|55=TUU9|59=0|60=20090526-10:42:17|76=GSCO|109=NDAYBRK|113=N|150=1|151=31|167=FUT|200=200909|207=2|439=998|10=213|
8=FIX.4.2|9=322|35=8|34=1982|49=REDIRPT|50=gc318120|52=20090526-14:42:18|56=MALBECRPT|128=SILK|1=NDAYBRK|6=108.8672|11=86483|14=59|15=USD|17=906511123|20=0|30=2|31=108.867188|32=1|37=IRD00009VS11669|38=89|39=1|40=2|44=0.554688|54=2|55=TUM9|59=0|60=20090526-10:42:18|76=GSCO|109=NDAYBRK|113=N|150=1|151=30|167=FUT|200=200906|207=2|439=998|10=007|
8=FIX.4.2|9=322|35=8|34=1983|49=REDIRPT|50=gc318120|52=20090526-14:42:18|56=MALBECRPT|128=SILK|1=NDAYBRK|6=108.3125|11=86484|14=59|15=USD|17=906511124|20=0|30=2|31=108.312500|32=1|37=IRD00010VS11670|38=89|39=1|40=2|44=0.554688|54=1|55=TUU9|59=0|60=20090526-10:42:18|76=GSCO|109=NDAYBRK|113=N|150=1|151=30|167=FUT|200=200909|207=2|439=998|10=221|
8=FIX.4.2|9=322|35=8|34=1984|49=REDIRPT|50=gc318120|52=20090526-14:42:18|56=MALBECRPT|128=SILK|1=NDAYBRK|6=108.8672|11=86485|14=60|15=USD|17=906511126|20=0|30=2|31=108.867188|32=1|37=IRD00009VS11669|38=89|39=1|40=2|44=0.554688|54=2|55=TUM9|59=0|60=20090526-10:42:18|76=GSCO|109=NDAYBRK|113=N|150=1|151=29|167=FUT|200=200906|207=2|439=998|10=014|
8=FIX.4.2|9=322|35=8|34=1985|49=REDIRPT|50=gc318120|52=20090526-14:42:18|56=MALBECRPT|128=SILK|1=NDAYBRK|6=108.3125|11=86486|14=60|15=USD|17=906511127|20=0|30=2|31=108.312500|32=1|37=IRD00010VS11670|38=89|39=1|40=2|44=0.554688|54=1|55=TUU9|59=0|60=20090526-10:42:18|76=GSCO|109=NDAYBRK|113=N|150=1|151=29|167=FUT|200=200909|207=2|439=998|10=228|
8=FIX.4.2|9=322|35=8|34=1986|49=REDIRPT|50=gc318120|52=20090526-14:42:19|56=MALBECRPT|128=SILK|1=NDAYBRK|6=108.8672|11=86487|14=65|15=USD|17=906511134|20=0|30=2|31=108.867188|32=5|37=IRD00009VS11669|38=89|39=1|40=2|44=0.554688|54=2|55=TUM9|59=0|60=20090526-10:42:19|76=GSCO|109=NDAYBRK|113=N|150=1|151=24|167=FUT|200=200906|207=2|439=998|10=023|
8=FIX.4.2|9=322|35=8|34=1987|49=REDIRPT|50=gc318120|52=20090526-14:42:19|56=MALBECRPT|128=SILK|1=NDAYBRK|6=108.3125|11=86488|14=65|15=USD|17=906511135|20=0|30=2|31=108.312500|32=5|37=IRD00010VS11670|38=89|39=1|40=2|44=0.554688|54=1|55=TUU9|59=0|60=20090526-10:42:19|76=GSCO|109=NDAYBRK|113=N|150=1|151=24|167=FUT|200=200909|207=2|439=998|10=237|
8=FIX.4.2|9=322|35=8|34=1988|49=REDIRPT|50=gc318120|52=20090526-14:42:20|56=MALBECRPT|128=SILK|1=NDAYBRK|6=108.8672|11=86489|14=66|15=USD|17=906511137|20=0|30=2|31=108.867188|32=1|37=IRD00009VS11669|38=89|39=1|40=2|44=0.554688|54=2|55=TUM9|59=0|60=20090526-10:42:20|76=GSCO|109=NDAYBRK|113=N|150=1|151=23|167=FUT|200=200906|207=2|439=998|10=010|
8=FIX.4.2|9=322|35=8|34=1989|49=REDIRPT|50=gc318120|52=20090526-14:42:20|56=MALBECRPT|128=SILK|1=NDAYBRK|6=108.3125|11=86490|14=66|15=USD|17=906511138|20=0|30=2|31=108.312500|32=1|37=IRD00010VS11670|38=89|39=1|40=2|44=0.554688|54=1|55=TUU9|59=0|60=20090526-10:42:20|76=GSCO|109=NDAYBRK|113=N|150=1|151=23|167=FUT|200=200909|207=2|439=998|10=215|
8=FIX.4.2|9=322|35=8|34=1990|49=REDIRPT|50=gc318120|52=20090526-14:42:23|56=MALBECRPT|128=SILK|1=NDAYBRK|6=108.8672|11=86508|14=69|15=USD|17=906511140|20=0|30=2|31=108.867188|32=3|37=IRD00009VS11669|38=89|39=1|40=2|44=0.554688|54=2|55=TUM9|59=0|60=20090526-10:42:23|76=GSCO|109=NDAYBRK|113=N|150=1|151=20|167=FUT|200=200906|207=2|439=998|10=253|
8=FIX.4.2|9=322|35=8|34=1991|49=REDIRPT|50=gc318120|52=20090526-14:42:23|56=MALBECRPT|128=SILK|1=NDAYBRK|6=108.3125|11=86509|14=69|15=USD|17=906511141|20=0|30=2|31=108.312500|32=3|37=IRD00010VS11670|38=89|39=1|40=2|44=0.554688|54=1|55=TUU9|59=0|60=20090526-10:42:23|76=GSCO|109=NDAYBRK|113=N|150=1|151=20|167=FUT|200=200909|207=2|439=998|10=211|
8=FIX.4.2|9=319|35=8|34=2018|49=REDIRPT|50=gc318120|52=20090526-14:45:40|56=MALBECRPT|128=SILK|1=NDAYBRK|6=119.1719|11=87749|14=1|15=USD|17=906511226|20=0|30=2|31=119.171875|32=1|37=IRD00015VS11909|38=1|39=2|40=2|44=1.523438|54=1|55=TYM9|59=0|60=20090526-10:45:40|76=GSCO|109=NDAYBRK|113=N|150=2|151=0|167=FUT|200=200906|207=2|439=998|10=069|
8=FIX.4.2|9=319|35=8|34=2019|49=REDIRPT|50=gc318120|52=20090526-14:45:40|56=MALBECRPT|128=SILK|1=NDAYBRK|6=117.6484|11=87750|14=1|15=USD|17=906511227|20=0|30=2|31=117.648438|32=1|37=IRD00016VS11910|38=1|39=2|40=2|44=1.523438|54=2|55=TYU9|59=0|60=20090526-10:45:40|76=GSCO|109=NDAYBRK|113=N|150=2|151=0|167=FUT|200=200909|207=2|439=998|10=072|
8=FIX.4.2|9=322|35=8|34=2022|49=REDIRPT|50=gc318120|52=20090526-14:46:19|56=MALBECRPT|128=SILK|1=NDAYBRK|6=117.6562|11=88018|14=29|15=USD|17=906511239|20=0|30=2|31=117.656250|32=29|37=IRD00019VS11921|38=29|39=2|40=2|44=1.515625|54=2|55=TYU9|59=0|60=20090526-10:46:19|76=GSCO|109=NDAYBRK|113=N|150=2|151=0|167=FUT|200=200909|207=2|439=998|10=241|

