8=FIX.4.2|9=307|35=8|34=1306|49=BLPDROP|50=ULBRIDGE|52=20090203-20:49:42|56=MALBEC|57=4768676|1=20000073|6=27.17|11=20090203-00093|14=100|15=USD|17=49122080|20=0|22=4|29=1|31=27.17|32=100|37=DMAGVL0XJS|38=764|39=1|40=1|47=A|48=US81369Y2090|54=5|55=XLV|58=PARTIAL|59=0|60=20090203-20:49:42|76=MANS|103=0|150=1|167=CS|207=US|10=163|
8=FIX.4.2|9=305|35=8|34=1309|49=BLPDROP|50=ULBRIDGE|52=20090203-20:49:42|56=MALBEC|57=4768676|1=20000073|6=21.17|11=20090203-00095|14=49|15=USD|17=54123878|20=0|22=4|29=1|31=21.17|32=49|37=DMFGVL0XJN|38=49|39=2|40=1|47=A|48=US81369Y1001|54=5|55=XLB|58=COMPLETE|59=0|60=20090203-20:49:42|76=MANS|103=0|150=2|167=CS|207=US|10=091|
8=FIX.4.2|9=308|35=8|34=1310|49=BLPDROP|50=ULBRIDGE|52=20090203-20:49:42|56=MALBEC|57=4768676|1=20000073|6=19.68|11=20090203-00094|14=500|15=USD|17=50125190|20=0|22=4|29=1|31=19.68|32=500|37=DMBGVL0XJZ|38=1088|39=1|40=1|47=A|48=US81369Y4070|54=5|55=XLY|58=PARTIAL|59=0|60=20090203-20:49:42|76=MANS|103=0|150=1|167=CS|207=US|10=238|
8=FIX.4.2|9=306|35=8|34=1313|49=BLPDROP|50=ULBRIDGE|52=20090203-20:49:42|56=MALBEC|57=4768676|1=20000073|6=9.01|11=20090203-00097|14=901|15=USD|17=41122257|20=0|22=4|29=1|31=9.01|32=901|37=DM1GVL0XJW|38=901|39=2|40=1|47=A|48=US81369Y6059|54=1|55=XLF|58=COMPLETE|59=0|60=20090203-20:49:42|76=MANS|103=0|150=2|167=CS|207=US|10=118|
8=FIX.4.2|9=302|35=8|34=1314|49=BLPDROP|50=ULBRIDGE|52=20090203-20:49:42|56=MALBEC|57=4768676|1=20000073|6=47|11=20090203-00096|14=379|15=USD|17=55125327|20=0|22=4|29=1|31=47|32=379|37=DMGGVL0XJM|38=379|39=2|40=1|47=A|48=US81369Y5069|54=1|55=XLE|58=COMPLETE|59=0|60=20090203-20:49:42|76=MANS|103=0|150=2|167=CS|207=US|10=228|
8=FIX.4.2|9=308|35=8|34=1316|49=BLPDROP|50=ULBRIDGE|52=20090203-20:49:42|56=MALBEC|57=4768676|1=20000073|6=20.53|11=20090203-00099|14=500|15=USD|17=43130297|20=0|22=4|29=1|31=20.53|32=500|37=DM3GVL0XJL|38=1707|39=1|40=1|47=A|48=US81369Y7040|54=2|55=XLI|58=PARTIAL|59=0|60=20090203-20:49:42|76=MANS|103=0|150=1|167=CS|207=US|10=177|
8=FIX.4.2|9=308|35=8|34=1323|49=BLPDROP|50=ULBRIDGE|52=20090203-20:49:42|56=MALBEC|57=4768676|1=20000073|6=22.44|11=20090203-00101|14=400|15=USD|17=50125195|20=0|22=4|29=1|31=22.44|32=400|37=DMBGVL0XK0|38=1387|39=1|40=1|47=A|48=US81369Y3080|54=2|55=XLP|58=PARTIAL|59=0|60=20090203-20:49:42|76=MANS|103=0|150=1|167=CS|207=US|10=159|
8=FIX.4.2|9=308|35=8|34=1324|49=BLPDROP|50=ULBRIDGE|52=20090203-20:49:42|56=MALBEC|57=4768676|1=20000073|6=15.23|11=20090203-00100|14=100|15=USD|17=49122085|20=0|22=4|29=1|31=15.23|32=100|37=DMAGVL0XJT|38=1233|39=1|40=1|47=A|48=US81369Y8030|54=1|55=XLK|58=PARTIAL|59=0|60=20090203-20:49:42|76=MANS|103=0|150=1|167=CS|207=US|10=172|
8=FIX.4.2|9=305|35=8|34=1335|49=BLPDROP|50=ULBRIDGE|52=20090203-20:49:43|56=MALBEC|57=4768676|1=20000073|6=29.3|11=20090203-00103|14=300|15=USD|17=53125438|20=0|22=4|29=1|31=29.3|32=300|37=DMEGVL0XK4|38=978|39=1|40=1|47=A|48=US81369Y8865|54=2|55=XLU|58=PARTIAL|59=0|60=20090203-20:49:42|76=MANS|103=0|150=1|167=CS|207=US|10=056|
8=FIX.4.2|9=307|35=8|34=1347|49=BLPDROP|50=ULBRIDGE|52=20090203-20:50:56|56=MALBEC|57=4768676|1=20000073|6=47.04|11=20090203-00109|14=200|15=USD|17=42122031|20=0|22=4|29=1|31=47.04|32=200|37=DM2GVL0XKK|38=379|39=1|40=1|47=A|48=US81369Y5069|54=1|55=XLE|58=PARTIAL|59=0|60=20090203-20:50:56|76=MANS|103=0|150=1|167=CS|207=US|10=115|
8=FIX.4.2|9=308|35=8|34=1348|49=BLPDROP|50=ULBRIDGE|52=20090203-20:50:56|56=MALBEC|57=4768676|1=20000073|6=47.04|11=20090203-00109|14=379|15=USD|17=42122032|20=0|22=4|29=1|31=47.04|32=179|37=DM2GVL0XKK|38=379|39=2|40=1|47=A|48=US81369Y5069|54=1|55=XLE|58=COMPLETE|59=0|60=20090203-20:50:56|76=MANS|103=0|150=2|167=CS|207=US|10=228|
