8=FIX.4.2|9=267|35=8|34=60|49=REDIRPT|52=20081204-18:30:03.366|56=MALBECRPT|97=Y|1=CPNSWAPF|6=0|11=LBE0001|14=1|15=USD|17=906510034|20=0|31=124.0625|32=1|37=LBE0001VS10034|38=10|39=1|40=1|44=124.0625|54=1|55=TYH9|60=20081204-12:26:35.000|76=GSCO|150=1|151=9|167=FUT|200=200903|207=2|10=085|
8=FIX.4.2|9=267|35=8|34=61|49=REDIRPT|52=20081204-18:30:03.366|56=MALBECRPT|97=Y|1=CPNSWAPF|6=0|11=LBE0001|14=4|15=USD|17=906510035|20=0|31=124.0625|32=3|37=LBE0001VS10035|38=10|39=1|40=1|44=124.0625|54=1|55=TYH9|60=20081204-12:26:35.000|76=GSCO|150=1|151=6|167=FUT|200=200903|207=2|10=090|
8=FIX.4.2|9=268|35=8|34=62|49=REDIRPT|52=20081204-18:30:03.382|56=MALBECRPT|97=Y|1=CPNSWAPF|6=0|11=LBE0001|14=10|15=USD|17=906510036|20=0|31=124.0625|32=6|37=LBE0001VS10036|38=10|39=2|40=1|44=124.0625|54=1|55=TYH9|60=20081204-12:26:35.000|76=GSCO|150=2|151=0|167=FUT|200=200903|207=2|10=136|
8=FIX.4.2|9=269|35=8|34=63|49=REDIRPT|52=20081204-18:30:03.382|56=MALBECRPT|97=Y|1=CPNSWAPF|6=0|11=LBE0002|14=2|15=USD|17=906510041|20=0|31=118.15625|32=2|37=LBE0002VS10041|38=10|39=1|40=1|44=118.15625|54=2|55=FVH9|60=20081204-12:57:02.000|76=GSCO|150=1|151=8|167=FUT|200=200903|207=2|10=183|
8=FIX.4.2|9=269|35=8|34=64|49=REDIRPT|52=20081204-18:30:03.382|56=MALBECRPT|97=Y|1=CPNSWAPF|6=0|11=LBE0002|14=3|15=USD|17=906510042|20=0|31=118.15625|32=1|37=LBE0002VS10042|38=10|39=1|40=1|44=118.15625|54=2|55=FVH9|60=20081204-12:57:02.000|76=GSCO|150=1|151=7|167=FUT|200=200903|207=2|10=185|
8=FIX.4.2|9=270|35=8|34=65|49=REDIRPT|52=20081204-18:30:03.382|56=MALBECRPT|97=Y|1=CPNSWAPF|6=0|11=LBE0002|14=10|15=USD|17=906510043|20=0|31=118.15625|32=7|37=LBE0002VS10043|38=10|39=2|40=1|44=118.15625|54=2|55=FVH9|60=20081204-12:57:39.000|76=GSCO|150=2|151=0|167=FUT|200=200903|207=2|10=237|
8=FIX.4.2|9=270|35=8|34=66|49=REDIRPT|52=20081204-18:30:03.398|56=MALBECRPT|97=Y|1=CPNSWAPF|6=0|11=LBE0004|14=2|15=USD|17=906510044|20=0|31=108.046875|32=2|37=LBE0004VS10044|38=5|39=1|40=1|44=108.046875|54=2|55=ZTH9|60=20081204-13:04:07.000|76=GSCO|150=1|151=3|167=FUT|200=200903|207=2|10=022|
8=FIX.4.2|9=270|35=8|34=67|49=REDIRPT|52=20081204-18:30:03.398|56=MALBECRPT|97=Y|1=CPNSWAPF|6=0|11=LBE0004|14=4|15=USD|17=906510045|20=0|31=108.046875|32=2|37=LBE0004VS10045|38=5|39=1|40=1|44=108.046875|54=2|55=ZTH9|60=20081204-13:04:07.000|76=GSCO|150=1|151=1|167=FUT|200=200903|207=2|10=025|
8=FIX.4.2|9=270|35=8|34=68|49=REDIRPT|52=20081204-18:30:03.398|56=MALBECRPT|97=Y|1=CPNSWAPF|6=0|11=LBE0004|14=5|15=USD|17=906510046|20=0|31=108.046875|32=1|37=LBE0004VS10046|38=5|39=2|40=1|44=108.046875|54=2|55=ZTH9|60=20081204-13:04:07.000|76=GSCO|150=2|151=0|167=FUT|200=200903|207=2|10=029|
8=FIX.4.2|9=271|35=8|34=69|49=REDIRPT|52=20081204-18:30:03.398|56=MALBECRPT|97=Y|1=CPNSWAPF|6=0|11=LBE0006|14=4|15=USD|17=906510128|20=0|31=108.078125|32=4|37=LBE0006VS10128|38=10|39=1|40=1|44=108.078125|54=1|55=ZTH9|60=20081204-14:03:03.000|76=GSCO|150=1|151=6|167=FUT|200=200903|207=2|10=068|
8=FIX.4.2|9=271|35=8|34=70|49=REDIRPT|52=20081204-18:30:03.398|56=MALBECRPT|97=Y|1=CPNSWAPF|6=0|11=LBE0006|14=5|15=USD|17=906510129|20=0|31=108.078125|32=1|37=LBE0006VS10129|38=10|39=1|40=1|44=108.078125|54=1|55=ZTH9|60=20081204-14:03:03.000|76=GSCO|150=1|151=5|167=FUT|200=200903|207=2|10=059|
8=FIX.4.2|9=271|35=8|34=71|49=REDIRPT|52=20081204-18:30:03.398|56=MALBECRPT|97=Y|1=CPNSWAPF|6=0|11=LBE0006|14=6|15=USD|17=906510130|20=0|31=108.078125|32=1|37=LBE0006VS10130|38=10|39=1|40=1|44=108.078125|54=1|55=ZTH9|60=20081204-14:03:03.000|76=GSCO|150=1|151=4|167=FUT|200=200903|207=2|10=044|
8=FIX.4.2|9=271|35=8|34=72|49=REDIRPT|52=20081204-18:30:03.413|56=MALBECRPT|97=Y|1=CPNSWAPF|6=0|11=LBE0006|14=7|15=USD|17=906510131|20=0|31=108.078125|32=1|37=LBE0006VS10131|38=10|39=1|40=1|44=108.078125|54=1|55=ZTH9|60=20081204-14:03:03.000|76=GSCO|150=1|151=3|167=FUT|200=200903|207=2|10=035|
8=FIX.4.2|9=271|35=8|34=73|49=REDIRPT|52=20081204-18:30:03.413|56=MALBECRPT|97=Y|1=CPNSWAPF|6=0|11=LBE0006|14=8|15=USD|17=906510132|20=0|31=108.078125|32=1|37=LBE0006VS10132|38=10|39=1|40=1|44=108.078125|54=1|55=ZTH9|60=20081204-14:03:03.000|76=GSCO|150=1|151=2|167=FUT|200=200903|207=2|10=038|
8=FIX.4.2|9=271|35=8|34=74|49=REDIRPT|52=20081204-18:30:03.413|56=MALBECRPT|97=Y|1=CPNSWAPF|6=0|11=LBE0006|14=9|15=USD|17=906510133|20=0|31=108.078125|32=1|37=LBE0006VS10133|38=10|39=1|40=1|44=108.078125|54=1|55=ZTH9|60=20081204-14:03:03.000|76=GSCO|150=1|151=1|167=FUT|200=200903|207=2|10=041|
8=FIX.4.2|9=272|35=8|34=75|49=REDIRPT|52=20081204-18:30:03.413|56=MALBECRPT|97=Y|1=CPNSWAPF|6=0|11=LBE0006|14=10|15=USD|17=906510134|20=0|31=108.078125|32=1|37=LBE0006VS10134|38=10|39=2|40=1|44=108.078125|54=1|55=ZTH9|60=20081204-14:03:03.000|76=GSCO|150=2|151=0|167=FUT|200=200903|207=2|10=086|
8=FIX.4.2|9=289|35=8|34=76|49=REDIRPT|52=20081204-18:30:03.429|56=MALBECRPT|97=Y|1=CPNSWAPF|6=0|11=LBE0008|14=10|15=USD|17=906510135|20=0|31=118.22656199999999|32=10|37=LBE0008VS10135|38=10|39=2|40=1|44=118.22656199999999|54=2|55=FVH9|60=20081204-14:13:32.000|76=GSCO|150=2|151=0|167=FUT|200=200903|207=2|10=030|
8=FIX.4.2|9=271|35=8|34=77|49=REDIRPT|52=20081204-18:30:03.429|56=MALBECRPT|97=Y|1=CPNSWAPF|6=0|11=LBE0009|14=3|15=USD|17=906510349|20=0|31=108.015625|32=3|37=LBE0009VS10349|38=10|39=1|40=1|44=108.015625|54=2|55=ZTH9|60=20081204-14:57:50.000|76=GSCO|150=1|151=7|167=FUT|200=200903|207=2|10=081|
8=FIX.4.2|9=271|35=8|34=78|49=REDIRPT|52=20081204-18:30:03.429|56=MALBECRPT|97=Y|1=CPNSWAPF|6=0|11=LBE0009|14=4|15=USD|17=906510350|20=0|31=108.015625|32=1|37=LBE0009VS10350|38=10|39=1|40=1|44=108.015625|54=2|55=ZTH9|60=20081204-14:57:50.000|76=GSCO|150=1|151=6|167=FUT|200=200903|207=2|10=064|
8=FIX.4.2|9=271|35=8|34=79|49=REDIRPT|52=20081204-18:30:03.429|56=MALBECRPT|97=Y|1=CPNSWAPF|6=0|11=LBE0009|14=8|15=USD|17=906510351|20=0|31=108.015625|32=4|37=LBE0009VS10351|38=10|39=1|40=1|44=108.015625|54=2|55=ZTH9|60=20081204-14:57:50.000|76=GSCO|150=1|151=2|167=FUT|200=200903|207=2|10=070|
8=FIX.4.2|9=271|35=8|34=80|49=REDIRPT|52=20081204-18:30:03.444|56=MALBECRPT|97=Y|1=CPNSWAPF|6=0|11=LBE0009|14=9|15=USD|17=906510352|20=0|31=108.015625|32=1|37=LBE0009VS10352|38=10|39=1|40=1|44=108.015625|54=2|55=ZTH9|60=20081204-14:57:50.000|76=GSCO|150=1|151=1|167=FUT|200=200903|207=2|10=058|
8=FIX.4.2|9=272|35=8|34=81|49=REDIRPT|52=20081204-18:30:03.460|56=MALBECRPT|97=Y|1=CPNSWAPF|6=0|11=LBE0009|14=10|15=USD|17=906510353|20=0|31=108.015625|32=1|37=LBE0009VS10353|38=10|39=2|40=1|44=108.015625|54=2|55=ZTH9|60=20081204-14:57:50.000|76=GSCO|150=2|151=0|167=FUT|200=200903|207=2|10=101|
8=FIX.4.2|9=269|35=8|34=82|49=REDIRPT|52=20081204-18:30:03.460|56=MALBECRPT|97=Y|1=CPNSWAPF|6=0|11=LBE0013|14=6|15=USD|17=906510659|20=0|31=118.03125|32=6|37=LBE0013VS10659|38=10|39=1|40=1|44=118.03125|54=2|55=FVH9|60=20081204-16:09:41.000|76=GSCO|150=1|151=4|167=FUT|200=200903|207=2|10=207|
8=FIX.4.2|9=269|35=8|34=83|49=REDIRPT|52=20081204-18:30:03.460|56=MALBECRPT|97=Y|1=CPNSWAPF|6=0|11=LBE0013|14=7|15=USD|17=906510660|20=0|31=118.03125|32=1|37=LBE0013VS10660|38=10|39=1|40=1|44=118.03125|54=2|55=FVH9|60=20081204-16:09:41.000|76=GSCO|150=1|151=3|167=FUT|200=200903|207=2|10=187|
8=FIX.4.2|9=269|35=8|34=84|49=REDIRPT|52=20081204-18:30:03.460|56=MALBECRPT|97=Y|1=CPNSWAPF|6=0|11=LBE0013|14=8|15=USD|17=906510661|20=0|31=118.03125|32=1|37=LBE0013VS10661|38=10|39=1|40=1|44=118.03125|54=2|55=FVH9|60=20081204-16:09:41.000|76=GSCO|150=1|151=2|167=FUT|200=200903|207=2|10=190|
8=FIX.4.2|9=270|35=8|34=85|49=REDIRPT|52=20081204-18:30:03.476|56=MALBECRPT|97=Y|1=CPNSWAPF|6=0|11=LBE0013|14=10|15=USD|17=906510662|20=0|31=118.03125|32=2|37=LBE0013VS10662|38=10|39=2|40=1|44=118.03125|54=2|55=FVH9|60=20081204-16:09:41.000|76=GSCO|150=2|151=0|167=FUT|200=200903|207=2|10=234|
8=FIX.4.2|9=269|35=8|34=86|49=REDIRPT|52=20081204-18:30:03.476|56=MALBECRPT|97=Y|1=CPNSWAPF|6=0|11=LBE0016|14=4|15=USD|17=906510665|20=0|31=107.96875|32=4|37=LBE0016VS10665|38=10|39=1|40=1|44=107.96875|54=2|55=ZTH9|60=20081204-16:09:50.000|76=GSCO|150=1|151=6|167=FUT|200=200903|207=2|10=022|
8=FIX.4.2|9=269|35=8|34=87|49=REDIRPT|52=20081204-18:30:03.476|56=MALBECRPT|97=Y|1=CPNSWAPF|6=0|11=LBE0016|14=5|15=USD|17=906510666|20=0|31=107.96875|32=1|37=LBE0016VS10666|38=10|39=1|40=1|44=107.96875|54=2|55=ZTH9|60=20081204-16:09:50.000|76=GSCO|150=1|151=5|167=FUT|200=200903|207=2|10=022|
8=FIX.4.2|9=269|35=8|34=88|49=REDIRPT|52=20081204-18:30:03.476|56=MALBECRPT|97=Y|1=CPNSWAPF|6=0|11=LBE0016|14=6|15=USD|17=906510667|20=0|31=107.96875|32=1|37=LBE0016VS10667|38=10|39=1|40=1|44=107.96875|54=2|55=ZTH9|60=20081204-16:09:51.000|76=GSCO|150=1|151=4|167=FUT|200=200903|207=2|10=026|
8=FIX.4.2|9=269|35=8|34=89|49=REDIRPT|52=20081204-18:30:03.476|56=MALBECRPT|97=Y|1=CPNSWAPF|6=0|11=LBE0016|14=7|15=USD|17=906510668|20=0|31=107.96875|32=1|37=LBE0016VS10668|38=10|39=1|40=1|44=107.96875|54=2|55=ZTH9|60=20081204-16:09:51.000|76=GSCO|150=1|151=3|167=FUT|200=200903|207=2|10=029|
8=FIX.4.2|9=269|35=8|34=90|49=REDIRPT|52=20081204-18:30:03.491|56=MALBECRPT|97=Y|1=CPNSWAPF|6=0|11=LBE0016|14=8|15=USD|17=906510669|20=0|31=107.96875|32=1|37=LBE0016VS10669|38=10|39=1|40=1|44=107.96875|54=2|55=ZTH9|60=20081204-16:09:51.000|76=GSCO|150=1|151=2|167=FUT|200=200903|207=2|10=020|
8=FIX.4.2|9=269|35=8|34=91|49=REDIRPT|52=20081204-18:30:03.491|56=MALBECRPT|97=Y|1=CPNSWAPF|6=0|11=LBE0016|14=9|15=USD|17=906510670|20=0|31=107.96875|32=1|37=LBE0016VS10670|38=10|39=1|40=1|44=107.96875|54=2|55=ZTH9|60=20081204-16:09:51.000|76=GSCO|150=1|151=1|167=FUT|200=200903|207=2|10=005|
8=FIX.4.2|9=270|35=8|34=92|49=REDIRPT|52=20081204-18:30:03.491|56=MALBECRPT|97=Y|1=CPNSWAPF|6=0|11=LBE0016|14=10|15=USD|17=906510671|20=0|31=107.96875|32=1|37=LBE0016VS10671|38=10|39=2|40=1|44=107.96875|54=2|55=ZTH9|60=20081204-16:09:51.000|76=GSCO|150=2|151=0|167=FUT|200=200903|207=2|10=041|
8=FIX.4.2|9=271|35=8|34=93|49=REDIRPT|52=20081204-18:30:03.491|56=MALBECRPT|97=Y|1=CPNSWAPF|6=0|11=LBE0018|14=4|15=USD|17=906511066|20=0|31=107.929688|32=4|37=LBE0018VS11066|38=10|39=1|40=1|44=107.929688|54=2|55=ZTH9|60=20081204-17:12:26.000|76=GSCO|150=1|151=6|167=FUT|200=200903|207=2|10=114|
8=FIX.4.2|9=271|35=8|34=94|49=REDIRPT|52=20081204-18:30:03.491|56=MALBECRPT|97=Y|1=CPNSWAPF|6=0|11=LBE0018|14=5|15=USD|17=906511067|20=0|31=107.929688|32=1|37=LBE0018VS11067|38=10|39=1|40=1|44=107.929688|54=2|55=ZTH9|60=20081204-17:12:26.000|76=GSCO|150=1|151=5|167=FUT|200=200903|207=2|10=114|
8=FIX.4.2|9=271|35=8|34=95|49=REDIRPT|52=20081204-18:30:03.491|56=MALBECRPT|97=Y|1=CPNSWAPF|6=0|11=LBE0018|14=6|15=USD|17=906511068|20=0|31=107.929688|32=1|37=LBE0018VS11068|38=10|39=1|40=1|44=107.929688|54=2|55=ZTH9|60=20081204-17:12:26.000|76=GSCO|150=1|151=4|167=FUT|200=200903|207=2|10=117|
8=FIX.4.2|9=271|35=8|34=96|49=REDIRPT|52=20081204-18:30:03.507|56=MALBECRPT|97=Y|1=CPNSWAPF|6=0|11=LBE0018|14=7|15=USD|17=906511069|20=0|31=107.929688|32=1|37=LBE0018VS11069|38=10|39=1|40=1|44=107.929688|54=2|55=ZTH9|60=20081204-17:12:26.000|76=GSCO|150=1|151=3|167=FUT|200=200903|207=2|10=118|
8=FIX.4.2|9=271|35=8|34=97|49=REDIRPT|52=20081204-18:30:03.507|56=MALBECRPT|97=Y|1=CPNSWAPF|6=0|11=LBE0018|14=8|15=USD|17=906511070|20=0|31=107.929688|32=1|37=LBE0018VS11070|38=10|39=1|40=1|44=107.929688|54=2|55=ZTH9|60=20081204-17:12:26.000|76=GSCO|150=1|151=2|167=FUT|200=200903|207=2|10=103|
8=FIX.4.2|9=271|35=8|34=98|49=REDIRPT|52=20081204-18:30:03.507|56=MALBECRPT|97=Y|1=CPNSWAPF|6=0|11=LBE0018|14=9|15=USD|17=906511071|20=0|31=107.929688|32=1|37=LBE0018VS11071|38=10|39=1|40=1|44=107.929688|54=2|55=ZTH9|60=20081204-17:12:26.000|76=GSCO|150=1|151=1|167=FUT|200=200903|207=2|10=106|
8=FIX.4.2|9=272|35=8|34=99|49=REDIRPT|52=20081204-18:30:03.507|56=MALBECRPT|97=Y|1=CPNSWAPF|6=0|11=LBE0018|14=10|15=USD|17=906511072|20=0|31=107.929688|32=1|37=LBE0018VS11072|38=10|39=2|40=1|44=107.929688|54=2|55=ZTH9|60=20081204-17:12:26.000|76=GSCO|150=2|151=0|167=FUT|200=200903|207=2|10=151|
8=FIX.4.2|9=266|35=8|34=100|49=REDIRPT|52=20081204-18:30:03.507|56=MALBECRPT|97=Y|1=PORTHEDGE|6=0|11=PZL0001|14=2|15=USD|17=906511249|20=0|31=123.625|32=2|37=PZL0001VS11249|38=2|39=2|40=1|44=123.625|54=1|55=TYH9|60=20081204-17:32:30.000|76=GSCO|150=2|151=0|167=FUT|200=200903|207=2|10=123|